:020000040800F2
:1000000000500020995C000851420008534200084B
:1000100055420008574200085942000800000000FD
:100020000000000000000000000000005B4200082B
:100030005D420008000000005F42000861420008C5
:10004000E15C0008E15C0008E15C0008E15C00089C
:10005000E15C0008E15C0008E15C00086542000822
:10006000E15C0008E15C0008E15C0008E15C00087C
:10007000E15C0008E15C0008E15C0008E15C00086C
:10008000E15C0008E15C0008E15C00087D420008DA
:10009000794200086D420008E15C0008E15C00085C
:1000A000E15C0008E15C0008E15C0008E15C00083C
:1000B000E15C000881420008E15C0008E15C0008A6
:1000C000E15C0008E15C0008E15C0008E15C00081C
:1000D000E15C0008E15C00088D420008E15C00087A
:1000E000E15C0008E15C0008E15C00080000000041
:1000F0000000000000000000000000000000000000
:0C01000000000000000000005FF808F1A3
:1001100010B5054C237833B9044B13B10448AFF341
:1001200000800123237010BD840000200000000027
:100130007094000808B5034B1BB103490348AFF3A3
:10014000008008BD000000008800002070940008B6
:1001500010F8012B11F8013B012A28BF9A42F7D071
:10016000D01A704781F0004102E000BF83F00043E5
:1001700030B54FEA41044FEA430594EA050F08BF42
:1001800090EA020F1FBF54EA000C55EA020C7FEA06
:10019000645C7FEA655C00F0E2804FEA5454D4EB83
:1001A0005555B8BF6D420CDD2C4480EA020281EA4D
:1001B000030382EA000083EA010180EA020281EA85
:1001C0000303362D88BF30BD11F0004F4FEA0131D7
:1001D0004FF4801C4CEA113102D0404261EB4101E6
:1001E00013F0004F4FEA03334CEA133302D052426C
:1001F00063EB430394EA050F00F0A780A4F1010428
:10020000D5F1200E0DDB02FA0EFC22FA05F2801861
:1002100041F1000103FA0EF2801843FA05F3594147
:100220000EE0A5F120050EF1200E012A03FA0EFCC6
:1002300028BF4CF0020C43FA05F3C01851EBE371F0
:1002400001F0004507D54FF0000EDCF1000C7EEB0D
:1002500000006EEB0101B1F5801F1BD3B1F5001F4B
:100260000CD349085FEA30004FEA3C0C04F101046A
:100270004FEA445212F5800F80F09A80BCF1004F93
:1002800008BF5FEA500C50F1000041EB045141EA15
:10029000050130BD5FEA4C0C404141EB010111F416
:1002A000801FA4F10104E9D191F0000F04BF0146C1
:1002B0000020B1FA81F308BF2033A3F10B03B3F19F
:1002C00020020CDA0C3208DD02F1140CC2F10C022F
:1002D00001FA0CF021FA02F10CE002F11402D8BF8D
:1002E000C2F1200C01FA02F120FA0CFCDCBF41EA59
:1002F0000C019040E41AA2BF01EB0451294330BD28
:100300006FEA04041F3C1CDA0C340EDC04F1140404
:10031000C4F1200220FA04F001FA02F340EA0300DB
:1003200021FA04F345EA030130BDC4F10C04C4F121
:10033000200220FA02F001FA04F340EA0300294601
:1003400030BD21FA04F0294630BD94F0000F83F44B
:10035000801306BF81F480110134013D4EE77FEA2E
:10036000645C18BF7FEA655C29D094EA050F08BF7A
:1003700090EA020F05D054EA000C04BF194610465B
:1003800030BD91EA030F1EBF0021002030BD5FEA9F
:10039000545C05D14000494128BF41F0004130BDC7
:1003A00014F580043CBF01F5801130BD01F000451B
:1003B00045F0FE4141F470014FF0000030BD7FEA8E
:1003C000645C1ABF194610467FEA655C1CBF0B4689
:1003D000024650EA013406BF52EA033591EA030FA0
:1003E00041F4002130BD00BF90F0000F04BF002198
:1003F000704730B54FF4806404F132044FF00005CB
:100400004FF0000150E700BF90F0000F04BF002143
:10041000704730B54FF4806404F1320410F00045A9
:1004200048BF40424FF000013EE700BF42004FEAA4
:10043000E2014FEA31014FEA02701FBF12F07F4321
:1004400093F07F4F81F06051704792F0000F14BF1E
:1004500093F07F4F704730B54FF4607401F0004562
:1004600021F0004120E700BF50EA010208BF7047B9
:1004700030B54FF000050AE050EA010208BF7047AE
:1004800030B511F0004502D5404261EB41014FF417
:10049000806404F132045FEA915C3FF4DCAE4FF01B
:1004A00003025FEADC0C18BF03325FEADC0C18BF02
:1004B000033202EBDC02C2F1200300FA03FC20FA53
:1004C00002F001FA03FE40EA0E0021FA02F11444A0
:1004D000C1E600BF70B54FF0FF0C4CF4E06C1CEAB5
:1004E00011541DBF1CEA135594EA0C0F95EA0C0F2A
:1004F00000F0DEF82C4481EA030621EA4C5123EA9D
:100500004C5350EA013518BF52EA033541F48011CB
:1005100043F4801338D0A0FB02CE4FF00005E1FB7E
:1005200002E506F00042E0FB03E54FF00006E1FBC8
:1005300003569CF0000F18BF4EF0010EA4F1FF040B
:10054000B6F5007F64F5407404D25FEA4E0E6D414B
:1005500046EB060642EAC62141EA55514FEAC5205C
:1005600040EA5E504FEACE2EB4F1FD0C88BFBCF5D8
:10057000E06F1ED8BEF1004F08BF5FEA500E50F189
:10058000000041EB045170BD06F0004646EA01014F
:1005900040EA020081EA0301B4EB5C04C2BFD4EB81
:1005A0000C0541EA045170BD41F480114FF0000E7A
:1005B000013C00F3AB8014F1360FDEBF002001F0E8
:1005C000004170BDC4F10004203C35DA0C341BDC62
:1005D00004F11404C4F1200500FA05F320FA04F034
:1005E00001FA05F240EA020001F0004221F0004168
:1005F00010EBD37021FA04F642EB06015EEA430EDB
:1006000008BF20EAD37070BDC4F10C04C4F120050A
:1006100000FA04F320FA05F001FA04F240EA0200BD
:1006200001F0004110EBD37041F100015EEA430E8E
:1006300008BF20EAD37070BDC4F1200500FA05F2AE
:100640004EEA020E20FA04F301FA05F243EA02032D
:1006500021FA04F001F0004121FA04F220EA02003C
:1006600000EBD3705EEA430E08BF20EAD37070BD82
:1006700094F0000F0FD101F00046400041EB010162
:1006800011F4801F08BF013CF7D041EA060195F044
:10069000000F18BF704703F00046520043EB0303FE
:1006A00013F4801F08BF013DF7D043EA06037047EB
:1006B00094EA0C0F0CEA135518BF95EA0C0F0CD0F6
:1006C00050EA410618BF52EA4306D1D181EA03013C
:1006D00001F000414FF0000070BD50EA410606BF36
:1006E0001046194652EA430619D094EA0C0F02D17B
:1006F00050EA013613D195EA0C0F05D152EA0336C0
:100700001CBF104619460AD181EA030101F00041DD
:1007100041F0FE4141F470014FF0000070BD41F026
:10072000FE4141F4780170BD70B54FF0FF0C4CF400
:10073000E06C1CEA11541DBF1CEA135594EA0C0F1F
:1007400095EA0C0F00F0A7F8A4EB050481EA030E6C
:1007500052EA03354FEA013100F088804FEA033353
:100760004FF0805545EA131343EA12634FEA022221
:1007700045EA111545EA10654FEA00260EF00041E2
:100780009D4208BF964244F1FD0404F5407402D234
:100790005B084FEA3202B61A65EB03055B084FEAC5
:1007A00032024FF480104FF4002CB6EB020E75EBC2
:1007B000030E22BFB61A754640EA0C005B084FEAEA
:1007C0003202B6EB020E75EB030E22BFB61A754667
:1007D00040EA5C005B084FEA3202B6EB020E75EBB2
:1007E000030E22BFB61A754640EA9C005B084FEA2A
:1007F0003202B6EB020E75EB030E22BFB61A754637
:1008000040EADC0055EA060E18D04FEA051545EA25
:1008100016754FEA06164FEAC30343EA52734FEACE
:10082000C2025FEA1C1CC0D111F4801F0BD141EA47
:1008300000014FF000004FF0004CB6E711F4801FAC
:1008400004BF01430020B4F1FD0C88BFBCF5E06F8C
:100850003FF6AFAEB5EB030C04BFB6EB020C5FEA9C
:10086000500C50F1000041EB045170BD0EF0004EF1
:100870004EEA113114EB5C04C2BFD4EB0C0541EA23
:10088000045170BD41F480114FF0000E013C90E620
:1008900045EA060E8DE60CEA135594EA0C0F08BFE4
:1008A00095EA0C0F3FF43BAF94EA0C0F0AD150EAE3
:1008B00001347FF434AF95EA0C0F7FF425AF104676
:1008C00019462CE795EA0C0F06D152EA03353FF49E
:1008D000FDAE1046194622E750EA410618BF52EA1B
:1008E00043067FF4C5AE50EA41047FF40DAF52EAEF
:1008F00043057FF4EBAE12E74FF0FF3C06E000BF8C
:100900004FF0010C02E000BF4FF0010C4DF804CD98
:100910004FEA410C7FEA6C5C4FEA430C18BF7FEA58
:100920006C5C1BD001B050EA410C0CBF52EA430C86
:1009300091EA030F02BF90EA020F0020704710F106
:10094000000F91EA030F58BF994208BF90422CBF95
:10095000D8176FEAE37040F0010070474FEA410C8E
:100960007FEA6C5C02D150EA013C07D14FEA430CAC
:100970007FEA6C5CD6D152EA033CD3D05DF8040B1D
:10098000704700BF8446104662468C46194663464F
:1009900000E000BF01B5FFF7B7FF002848BF10F126
:1009A000000F01BD4DF808EDFFF7F4FF0CBF01206B
:1009B00000205DF808FB00BF4DF808EDFFF7EAFFE7
:1009C00034BF012000205DF808FB00BF4DF808EDA2
:1009D000FFF7E0FF94BF012000205DF808FB00BF97
:1009E0004DF808EDFFF7CEFF94BF012000205DF821
:1009F00008FB00BF4DF808EDFFF7C4FF34BF01202E
:100A000000205DF808FB00BF4FEA410C7FEA6C5CF8
:100A100002D150EA013C0AD14FEA430C7FEA6C5CF8
:100A200002D152EA033C02D14FF0000070474FF070
:100A3000010070474FEA410212F5001215D211D59C
:100A40006FF47873B3EB625212D94FEAC12343F0CB
:100A5000004343EA505311F0004F23FA02F018BF4D
:100A6000404270474FF00000704750EA013005D116
:100A700011F0004008BF6FF0004070474FF00000D9
:100A8000704700BF4A0011D212F5001211D20DD5E5
:100A90006FF47873B3EB62520ED44FEAC12343F084
:100AA000004343EA505323FA02F070474FF000002E
:100AB000704750EA013002D14FF0FF3070474FF0DD
:100AC000000070474FEA4102B2F1E04324BFB3F5A2
:100AD000001CDCF1FE5C0DD901F0004C4FEAC002B5
:100AE0004CEA5070B2F1004F40EB830008BF20F099
:100AF0000100704711F0804F21D113F13872BCBF53
:100B000001F00040704741F480114FEA5252C2F1A7
:100B10001802C2F1200C10FA0CF320FA02F018BFF0
:100B200040F001004FEAC1234FEAD32303FA0CFC43
:100B300040EA0C0023FA02F34FEA4303CCE77FEAD2
:100B4000625307D150EA01331EBF4FF0FE4040F41C
:100B50004000704701F0004040F0FE4040F40000CB
:100B6000704700BF80F0004002E000BF81F000410C
:100B700042001FBF5FEA410392EA030F7FEA226C43
:100B80007FEA236C6AD04FEA1262D2EB1363C1BFD3
:100B9000D218414048404140B8BF5B42192B88BF42
:100BA000704710F0004F40F4000020F07F4018BF65
:100BB000404211F0004F41F4000121F07F4118BF85
:100BC000494292EA030F3FD0A2F1010241FA03FC2D
:100BD00010EB0C00C3F1200301FA03F100F0004315
:100BE00002D5494260EB4000B0F5000F13D3B0F1DD
:100BF000807F06D340084FEA310102F10102FE2A4C
:100C000051D2B1F1004F40EBC25008BF20F00100BB
:100C100040EA03007047490040EB000010F4000F69
:100C2000A2F10102EDD1B0FA80FCACF1080CB2EBFC
:100C30000C0200FA0CF0AABF00EBC250524218435B
:100C4000BCBFD0401843704792F0000F81F4000100
:100C500006BF80F400000132013BB5E74FEA4103D3
:100C60007FEA226C18BF7FEA236C21D092EA030F3F
:100C700004D092F0000F08BF0846704790EA010FB9
:100C80001CBF0020704712F07F4F04D1400028BFE6
:100C900040F00040704712F100723CBF00F50000C8
:100CA000704700F0004343F0FE4040F400007047FE
:100CB0007FEA226216BF08467FEA236301464202AA
:100CC00006BF5FEA412390EA010F40F480007047BD
:100CD0004FF0000304E000BF10F0004348BF404263
:100CE0005FEA000C08BF704743F0964301464FF09F
:100CF00000001CE050EA010208BF70474FF00003FB
:100D00000AE000BF50EA010208BF704711F000433B
:100D100002D5404261EB41015FEA010C02BF84460B
:100D20000146002043F0B64308BFA3F18053A3F56A
:100D30000003BCFA8CF2083AA3EBC25310DB01FAB1
:100D400002FC634400FA02FCC2F12002BCF1004F35
:100D500020FA02F243EB020008BF20F001007047C6
:100D600002F1200201FA02FCC2F1200250EA4C001A
:100D700021FA02F243EB020008BF20EADC70704760
:100D80004FF0FF0C1CEAD0521EBF1CEAD15392EA6E
:100D90000C0F93EA0C0F6FD01A4480EA010C40024A
:100DA00018BF5FEA41211ED04FF0006343EA5010A4
:100DB00043EA5111A0FB01310CF00040B1F5000FE6
:100DC0003EBF490041EAD3715B0040EA010062F195
:100DD0007F02FD2A1DD8B3F1004F40EBC25008BF7F
:100DE00020F00100704790F0000F0CF0004C08BF9D
:100DF00049024CEA502040EA51207F3AC2BFD2F16A
:100E0000FF0340EAC250704740F400004FF0000377
:100E1000013A5DDC12F1190FDCBF00F000407047B1
:100E2000C2F10002410021FA02F1C2F1200200FAEF
:100E300002FC5FEA310040F1000053EA4C0308BFB6
:100E400020EADC70704792F0000F00F0004C02BF07
:100E5000400010F4000F013AF9D040EA0C0093F082
:100E6000000F01F0004C02BF490011F4000F013BDC
:100E7000F9D041EA0C018FE70CEAD15392EA0C0F4A
:100E800018BF93EA0C0F0AD030F0004C18BF31F0B5
:100E9000004CD8D180EA010000F00040704790F08B
:100EA000000F17BF90F0004F084691F0000F91F02F
:100EB000004F14D092EA0C0F01D142020FD193EAF5
:100EC0000C0F03D14B0218BF084608D180EA01007D
:100ED00000F0004040F0FE4040F40000704740F059
:100EE000FE4040F4400070474FF0FF0C1CEAD05227
:100EF0001EBF1CEAD15392EA0C0F93EA0C0F69D083
:100F0000A2EB030280EA010C49024FEA402037D0ED
:100F10004FF0805343EA111143EA10130CF00040E4
:100F20008B4238BF5B0042F17D024FF4000C8B42D4
:100F300024BF5B1A40EA0C00B3EB510F24BFA3EBB4
:100F4000510340EA5C00B3EB910F24BFA3EB910384
:100F500040EA9C00B3EBD10F24BFA3EBD10340EADE
:100F6000DC001B0118BF5FEA1C1CE0D1FD2A3FF624
:100F700050AF8B4240EBC25008BF20F001007047D9
:100F80000CF0004C4CEA50207F32C2BFD2F1FF037C
:100F900040EAC250704740F400004FF00003013AAD
:100FA00037E792F0000F00F0004C02BF400010F451
:100FB000000F013AF9D040EA0C0093F0000F01F065
:100FC000004C02BF490011F4000F013BF9D041EA87
:100FD0000C0195E70CEAD15392EA0C0F08D14202BA
:100FE0007FF47DAF93EA0C0F7FF470AF084676E78D
:100FF00093EA0C0F04D14B023FF44CAF08466EE766
:1010000030F0004C18BF31F0004CCAD130F0004233
:101010007FF45CAF31F000437FF43CAF5FE700BF8B
:101020004FF0FF3C06E000BF4FF0010C02E000BFB4
:101030004FF0010C4DF804CD4FEA40024FEA410356
:101040007FEA226C18BF7FEA236C11D001B052EA0C
:10105000530C18BF90EA010F58BFB2EB030088BFD2
:10106000C81738BF6FEAE17018BF40F00100704741
:101070007FEA226C02D15FEA402C05D17FEA236C23
:10108000E4D15FEA412CE1D05DF8040B704700BF6A
:10109000844608466146FFE70FB5FFF7C9FF002801
:1010A00048BF10F1000F0FBD4DF808EDFFF7F4FF3A
:1010B0000CBF012000205DF808FB00BF4DF808EDD3
:1010C000FFF7EAFF34BF012000205DF808FB00BFF6
:1010D0004DF808EDFFF7E0FF94BF012000205DF818
:1010E00008FB00BF4DF808EDFFF7D2FF94BF0120C9
:1010F00000205DF808FB00BF4DF808EDFFF7C8FFC2
:1011000034BF012000205DF808FB00BF4FEA400219
:101110004FEA41037FEA226C02D15FEA402C08D1FA
:101120007FEA236C02D15FEA412C02D14FF000002C
:1011300070474FF0010070474FEA4002B2F1FE4F96
:101140000FD34FF09E03B3EB12620DD94FEA002389
:1011500043F0004310F0004F23FA02F018BF404262
:1011600070474FF00000704712F1610F01D1420249
:1011700005D110F0004008BF6FF0004070474FF0FD
:101180000000704742000ED2B2F1FE4F0BD34FF079
:101190009E03B3EB126209D44FEA002343F00043ED
:1011A00023FA02F070474FF00000704712F1610F10
:1011B00001D1420202D14FF0FF3070474FF00000E2
:1011C000704700BF03685A004CBF43F0004323F050
:1011D00000431844704700BF61B32DE9F84F01F197
:1011E000FF3A90460646D146002707EB090404EB78
:1011F000D4746410E50071190846FFF7E3FFA245B7
:10120000834605F10800304409D0FFF7DBFFC345F2
:1012100000F1FF3005D8404509D2671CE5E7C3451A
:1012200005D9A74202D004F1FF39DEE700210846C4
:10123000BDE8F88F08467047012807D0022807D07C
:10124000044B00280CBF1846002070470248704726
:1012500002487047491900084D1900085119000843
:1012600030B5254B83B004468D1E73B301A92846C3
:10127000AFF3008018B301992A46FFF7ADFF01468E
:10128000E8B1FFF79FFF4B68A064012B11D0002B42
:1012900022DB081DFFF796FF0023E0642365036847
:1012A000002B1EDBFFF78EFF00232061184603B0E2
:1012B00030BD052300221846226103B030BD09234A
:1012C00000221846226103B030BD0C4B0C49184671
:1012D000C91AC9100191CFE70123081DE0642365F5
:1012E000DDE7C3F30360FFF7A7FF0028206114BF09
:1012F00000230923DAE700BF00000000549D000826
:10130000449F0008036810B5DA07044606D49B071B
:1013100000F1480009D500F057FC2368590709D5AA
:101320001A070ED5DB0613D510BD00F045FC236867
:101330005907F5D404F1D00000F04EFC23681A07D9
:10134000F0D404F5A87000F04FFC2368DB06EBD462
:1013500004F5E870BDE8104000F08ABC036803B1F2
:1013600003441846704700BF09207047704700BF0C
:1013700070B504460D4608E02A6C23696261214677
:101380002A4601209847082808D1296C2046FFF7F3
:1013900067FF06460028EFD007F0F1FE0728FBD1D3
:1013A0003046296CFFF7E2FF281D00F0F9FB00BF73
:1013B0002DE9F04705460027ADF5727D03AC0E1D03
:1013C00092460FCE0FC40FCE0FC40FCE0FC496E8B7
:1013D0000F00D5F80C80D5F8189084E80F0002AC07
:1013E0002846216C2760FFF73BFFBAF1000F074644
:1013F00014BF0A2609267FB1A36B46F010018DE8C1
:1014000010022A46636401202B46C04778BB384649
:101410000DF5727DBDE8F087236C4FF4F0726B61BF
:1014200021467AA808F018F82B697AAA294630468E
:101430009847889B82468DE81002314663642A46AD
:101440002B460120C04790B94FF4F0727AA920468C
:1014500008F002F8BAF1080F06D1216C2846FFF710
:10146000FFFE09260746C6E7BAF1070F05D0092790
:1014700038460DF5727DBDE8F0873846216CFFF7E0
:1014800075FF03A800F08CFB406C7047F0B54FF07F
:10149000FF3ECB6BF9B00B640E1D01AD0F46044649
:1014A0000FCE0FC50FCE0FC50FCE0FC596E80F009C
:1014B00085E80F00CDF800E006E023696A46214682
:1014C00098470828054608D110992046FFF7C8FE1E
:1014D0000028F2D0092079B0F0BD6846FFF712FF6E
:1014E000062DF7D139462046FFF742FF30B4DD6BB9
:1014F000C160826119461D64002230BC58E700BFFC
:1015000070B54369C6680B6426B10122FFF750FF2E
:1015100007F035FE03690A4604460D4601460220DF
:101520009847072807D0082803D129462046FFF707
:101530001FFF07F024FE3046296CFFF717FF281D18
:1015400000F02EFBC2682AB110B4CC6B00220C64F0
:1015500010BC2DE79AE700BF704700BF836813B146
:10156000014601201847704700B5042907D8DFE875
:1015700001F00309060909000BB90F2A05D9022059
:101580005DF804FB01205DF804FB00EB8202526869
:101590001846019B1A605DF804FB00BF002310B5DC
:1015A00084B003AC0A4600941946FFF7DDFF0398A8
:1015B00004B010BD00B5042907D8DFE801F0030925
:1015C000060909000BB90F2A05D902205DF804FBB2
:1015D00001205DF804FB019900EB820209681846BE
:1015E00051605DF804FB00BF002310B584B004AC6B
:1015F00044F8042D00940A461946FFF7DBFF04B0B7
:1016000010BD00BFF0B54FF0FF3ED36BADF50F7DC1
:101610001364151D17AC07460E460FCD0FC40FCD32
:101620000FC40FCD0FC495E80F0084E80F00CDF86C
:1016300058E012E00C2116A86A46FFF7D5FF3146A4
:1016400016A8B84778B9049B16AA69460820984797
:101650000528044608D0092805D026996846FFF7D2
:10166000FFFD0028E6D0092416A8FFF74BFE204610
:101670000DF50F7DF0BD00BF2DE9F04FCC6C91460C
:1016800022688BB004340D460792089400F0030BD7
:101690001E46002B60D10323120207928DF82560AD
:1016A0008DF824302B6DBBF1020F08BFAC6B13F02B
:1016B000010340D1019300F008030393D4F80080A4
:1016C000B8F1000F39D0022E43D0B4F800806788FB
:1016D0000434AB6C27F0010A0F2148469A44FFF707
:1016E0005DFF824533D828F001039A4450452CBF52
:1016F000002001207F0007F0020708F0010847EAF8
:101700000807012F3ED035D3022F1CD1236823F0C8
:1017100000420292BBF1000F76D128B10399002953
:101720007ED0002A00F0A680002B77DB029B0133DD
:1017300004EB8304C2E700230193022E3EDDFFF792
:1017400013FE002840D009200BB0BDE8F08F002028
:10175000D0E767680834BCE7022BA3DC0221130C36
:101760008DF825301204DBB204EB830407928DF868
:10177000241097E7BBF1000F02D0002840F0BD8095
:1017800004349BE7BBF1000F25D1A8B194E80C000D
:10179000991C4FEAD272D6D005F158010133069157
:1017A00000F0A380201DFFF7D9FD06AB01462846B7
:1017B00004F07EFB002877D108347FE707A948466C
:1017C00000F0F0FA0028BED1019B002B5CD108206C
:1017D0000BB0BDE8F08F0D2148462F6AFFF7DEFE03
:1017E0008742E9D1AB6A9C42E6D12046FFF7EAFC8A
:1017F0000F2102464846FFF7F7FE48462A460021D9
:10180000FFF7F2FE07209FE70D2148462F6AFFF7FA
:10181000C5FE874258D02368002B87DA043485E759
:10182000029B3BB305F15803271DCDF810B0DDF83E
:101830000C80A346DDF808A01C46059602E0B245E0
:10184000B04616D038460694FFF788FD06AB014631
:101850000022284604F02CFB08F10106043700287A
:10186000EDD0029B5C464345DDF810B0059ED2D119
:1018700000E05C4648460D21FFF790FE069B28627B
:10188000AC626B6206205FE70F214846FFF786FED9
:101890000E2102464846FFF7A7FE4846294A0F2177
:1018A000FFF7A2FE07204FE707460D214846FFF746
:1018B00075FE022F28621DD12B46069A43F82C2F65
:1018C0006B62AC6206203FE7AB6A9C42A3D1042264
:1018D00000270299A318A962EF622A636B63236849
:1018E000BB421DDB0123019320E748460D21FFF792
:1018F00055FE2862069B6B62E3E72046FFF762FC19
:1019000004340646AC63284604F030FB00283FF45C
:101910001AAF484632460F21FFF766FE072013E74D
:101920000846013004EB8000FFF74CFC0F21024613
:101930004846FFF759FE48462A463946FFF754FE07
:10194000072001E77D660008002395E6012393E662
:10195000022391E6F0B50446C5B004290DD8DFE8AE
:1019600001F055030C310F00012B4FEA124695B2DE
:1019700064D17219102A40F29D80022045B0F0BD5A
:10198000002BFAD1102AF8D82368D80600F1C880B5
:1019900022AE30460192012500F074F90023A06BBD
:1019A000019A05FA03F1114203D00168043046F8A8
:1019B00023100133042BF4D1A063304600F058F912
:1019C0000020DBE7032BD8D1150C97B2EB19102BB5
:1019D000D3D823681E0700F1B78022AE304600F04E
:1019E00025F9ED00A06B5FB1043D0346711900EBD2
:1019F000C70053F8042B834241F8042FF9D118464D
:101A0000A063304600F0F0F80020B7E7002BB4D117
:101A10000127A56B96B2201D07FA03F1314203F1AD
:101A2000010302D0296804350160102B00F1040085
:101A3000F2D112F400503BD1A5639FE7052B9CD156
:101A40007719202F99D80F2E66D92F46002D3AD11D
:101A50002A460027002AA06B72DD00EBC202014675
:101A600044A800EBC6008C3851F8045B914240F862
:101A7000045FF9D1084697B1102E324638BF1022C4
:101A800044A901EBC202A2F5C4727900043A00EB4A
:101A9000810150F8045B884242F8045FF9D1012BC0
:101AA00048D00F2EA16333D917B102A800F094F8E3
:101AB000002063E70F2E3FF660AF00272268D107B2
:101AC00017D4002F60D02268510745D4012B4DD088
:101AD0000F2E06D822A8019300F07AF8019B002F60
:101AE000B6D002A8019300F07BF8019BC6F110026A
:101AF000B0E722F00101052B2160019320463BD085
:101B000022F0030240F8482B00F05AF8019BD8E776
:101B100022A800F059F8C7E7102FCED9103FCDE723
:101B200023F01003236004F5E870019200F0AAF896
:101B3000019A2DE70431A16322A800F03DF8B7E730
:101B4000002F99D10146AAE723F00803236004F58A
:101B5000A87000F06BF840E7204622F0040240F83D
:101B6000D02B019300F03CF8019BAFE722A8019332
:101B700000F026F8019BB9E741F0020140F8481B4C
:101B800000F026F8019B9CE7012B03D00F2E3FF6B7
:101B90005FAF9FE722A8019300F012F8019B57E77F
:101BA00000F1340191E838009C46A6464CF8045DEB
:101BB00090E8FF0FE54600BD90EC210B704700BF99
:101BC00080EC210B704700BF90EC200B704700BFEA
:101BD00080EC200B704700BFD0EC200B704700BF9B
:101BE000C0EC200B704700BFF0EC0201F0EC0211DA
:101BF000F0EC0221F0EC0231F0EC0241F0EC025189
:101C0000F0EC0261F0EC0271F0EC0281F0EC029178
:101C1000F0EC02A1F0EC02B1F0EC02C1F0EC02D168
:101C2000F0EC02E1F0EC02F1704700BFE0EC0201E1
:101C3000E0EC0211E0EC0221E0EC0231E0EC0241C8
:101C4000E0EC0251E0EC0261E0EC0271E0EC0281B8
:101C5000E0EC0291E0EC02A1E0EC02B1E0EC02C1A8
:101C6000E0EC02D1E0EC02E1E0EC02F1704700BFF1
:101C7000B0FC0181B0FC0191B0FC01A1B0FC01B14C
:101C8000704700BFA0FC0181A0FC0191A0FC01A154
:101C9000A0FC01B1704700BFEC4600B52DE9005033
:101CA0002DE9FF1F4FF000032DE90C0001A9FFF7FC
:101CB000EDFBDDF840E012B0704700BFEC4600B528
:101CC0002DE900502DE9FF1F4FF000032DE90C0016
:101CD00001A9FFF715FCDDF840E012B0704700BF26
:101CE000EC4600B52DE900502DE9FF1F4FF0000331
:101CF0002DE90C0001A9FFF725FCDDF840E012B04A
:101D0000704700BFEC4600B52DE900502DE9FF1FDC
:101D10004FF000032DE90C0001ABFFF7E7FBDDF806
:101D200040E012B0704700BFEC4600B52DE900500E
:101D30002DE9FF1F4FF000032DE90C0001AAFFF76A
:101D400061FCDDF840E012B0704700BF027A1AB9BA
:101D5000437A43B9B02070470368013A02721A020D
:101D60000260180E704703214268013B10B44372B1
:101D70001368141D01721A024460026010BC180E30
:101D8000704700BF002300B585B003AA0092194632
:101D90000C22FFF7E9FB039805B05DF804FB00BFD8
:101DA000F0E700BF2DE9F04306460F464FF000086C
:101DB00085B03846FFF7CAFFB028044623D0050691
:101DC00027D400230DF10C09194685000D22CDF80A
:101DD00000903046FFF7C8FBEDB2039B600605F1AB
:101DE00004054CBF5D1BED1800230D221946CDF8EC
:101DF000009030460395FFF7DDFB3846FFF7A6FF5E
:101E0000B0280446DBD1B8F1000F00F09480002028
:101E10001CE000F0F003802B5CD0902B19D0A02B9D
:101E20002CD0B02B3ED0C02B6BD000F0F803D02BC1
:101E30000BD100F00702013242F4002205230121F8
:101E40003046FFF787FD0028B3D0092005B0BDE874
:101E5000F08300F00D030D2BF7D0002303AD00F04D
:101E60000F02194600953046FFF77EFB00230095D0
:101E700019460D223046FFF79DFB9AE7C3434FF406
:101E80007F6203F007031A410023010702F47F6217
:101E900048BF42F4804219463046FFF75BFD0028F8
:101EA000D3D186E7B12857D0B22868D0B32800F044
:101EB000958000F0FC03B42BC7D0012300F007028B
:101EC0001A4442F4002219463046FFF743FD002829
:101ED000BBD16EE73846FFF739FF24020443B4F55F
:101EE000004FB2D000232401A2B219463046FFF7BA
:101EF00031FD0028A9D114F4004F18BF4FF001089C
:101F000057E7C6287DD0C72800F0868000F0F80388
:101F1000C02B00F09480C82800F09F80C92894D17D
:101F20003846FFF713FF020300F00F0002F470229F
:101F30000130024382E703AC43460E22414600943F
:101F40003046FFF711FB0094304643460F224146CE
:101F5000FFF730FB404679E73846FFF7F7FE0028E9
:101F60003FF473AF10F0F0037FF46FAF02461946F1
:101F70003046FFF7EFFC00287FF467AF19E7002336
:101F80000DF10C090D221946CDF800903046FFF7EF
:101F9000EBFA3846FFF7DAFE02064FF002040CD5E2
:101FA000039B00F07F00A040034438460393FFF7F3
:101FB000CDFE030604F10704F2D40023039900F0D8
:101FC0007F02A24001F501718C18CDF800901946EE
:101FD0000D2230460394FFF7EDFAEAE63846FFF7A4
:101FE000B5FE0123010300F00F0001F47021C218B7
:101FF0000A4330461946FFF7ADFC00287FF425AFB1
:10200000D7E63846FFF7A2FE010300F00F000323D6
:1020100001F47021421CEBE73846FFF797FE0028D9
:102020003FF413AF10F0F0037FF40FAF024604212A
:102030003046FFF78FFC00287FF407AFB9E6032393
:1020400000F00F02013242F4202219463046FFF719
:1020500081FC00287FF4F9AEABE63846FFF776FE48
:1020600000F0F00200F00F031032013343EA0232B5
:10207000E4E600BF30B503240D46C36C85B05A6852
:102080008DF80C40DC791202083301A92846019230
:102090008DF80D400293FFF785FE05B030BD00BFFF
:1020A00008B5FFF77DFE806C08BD00BF08B5FFF7DF
:1020B00077FEC06CC37900EB8300083008BD00BF19
:1020C00008B507F05CF800BF08B5FFF7F9FF00BFDF
:1020D00080B483B000AF7860044A7B681A607B6884
:1020E00018460C37BD4680BC704700BF909400086E
:1020F00080B582B000AF7860094801F053FE09480E
:1021000000F062FF084801F04FFB084801F0C6FCF0
:10211000074800F069F800BF0837BD4680BD00BF22
:10212000A0010020CC0000208001002094010020AC
:10213000A400002080B582B000AF7860044801F0B0
:102140005FFB044801F0B8FC00BF0837BD4680BD06
:10215000800100209401002080B483B000AF78603B
:10216000044A7B681A607B6818460C37BD4680BC01
:10217000704700BF9094000880B582B000AF7860CF
:102180007868FFF7E9FF786803F02FFE7B68184650
:102190000837BD4680BD000080B582B000AF7860D2
:1021A00039607B68012B0CD13B684FF6FF7293427C
:1021B00007D10648FFF78CFF054A0649034803F09C
:1021C00016FE00BF0837BD4680BD00BFA00000203E
:1021D000000000205921000880B500AF4FF6FF71C4
:1021E0000120FFF7D9FF80BD80B582B000AF7860D5
:1021F0007B6800221A617B680022DA607B6801221A
:102200009A607B6800221A76786800F004F800BFB4
:102210000837BD4680BD80B485B000AF786000232C
:10222000FB73FB7B072B09DCFB7B7A6813440022E2
:1022300083F82020FB7B0133FB73F2E700BF1437E8
:10224000BD4680BC704780B582B000AF78600B4659
:10225000FB70FB78002B06D1042240F23E21786807
:1022600000F050F912E0FB78012B06D1042240F275
:102270004D21786800F046F908E0FB78022B05D183
:10228000042240F25D21786800F03CF97868FFF79D
:10229000C2FF00BF0837BD4680BD80B582B000AF29
:1022A000786039604FF000013868FEF71BFF034685
:1022B000002B01D0012300E0002318460837BD465B
:1022C00080BDB0B584B000AF786039604FF0864310
:1022D000FB60F9683868FEF70FFF0346002B05D056
:1022E000F868FEF74FFF03469BB223E03868FEF71D
:1022F0009DF804460D461021022000F04EF90246DA
:102300000B4620462946FEF7E5F803460C462546CF
:102310001C46F868FEF78AF802460B462046294616
:10232000FEF702FA03460C4618462146FEF7AAFBC2
:1023300003469BB218461037BD46B0BD80B584B089
:1023400000AF78600B46FB70FB780121184606F061
:102350001DFF0346BB60BB68002B29D00123FB7324
:10236000FA7BFB789A420FDCFB7B013BBA68134493
:10237000F978FA7B8A1A79680A4492F820201A7050
:10238000FB7B0133FB73EBE70023BB73BA7BFB786A
:102390009A420DDABB7BBA7BB9680A4411787A6835
:1023A00013440A4683F82020BB7B0133BB73EDE75F
:1023B000B86806F033FF00BF1037BD4680BD80B55A
:1023C00086B000AFF860B9607A60FB707968F86831
:1023D000FFF763FF0346FB75FB7D002B03D17B6892
:1023E00083F000437B607968F868FFF76AFF034673
:1023F000BB82FB7D1B12DAB2FB6883F82020FB68EE
:10240000FA7D83F82120BB8A1B12DAB2FB6883F8BD
:102410002220BB8ADAB2FB6883F823200421F86803
:10242000FFF78CFFFB781946F868FFF70CFF00BF39
:102430001837BD4680BD80B584B000AFF860B96084
:102440007A6001237A68B968F868FFF7B8FF00BFBF
:102450001037BD4680BD80B584B000AFF860B9606C
:102460007A6000237A68B968F868FFF7A8FF00BFB0
:102470001037BD4680BD80B584B000AF78600B4694
:10248000FB701346BB70FB78002B02D10023FB735B
:1024900010E0FB78032B02D10123FB730AE0FB78E9
:1024A000022B02D10223FB7304E0FB78012B01D144
:1024B0000323FB73BB78012B02D10123BB7304E020
:1024C000BB78002B01D10023BB737B68002283F80B
:1024D00020207B68FA7B83F821207B68002283F828
:1024E00022207B68BA7B83F8232004217868FFF7D9
:1024F00025FF02217868FFF7A6FE00BF1037BD4612
:1025000080BD000080B584B000AFF860B9607A602B
:10251000FB687A685A61FB68BA685A60FB68191DE3
:10252000FB6803F12002FB681C33034802F04EF9FC
:1025300000BF1037BD4680BDC401002080B483B009
:1025400000AF7860044A7B681A607B6818460C37D5
:10255000BD4680BC704700BFB494000880B483B00F
:1025600000AF7860044A7B681A607B6818460C37B5
:10257000BD4680BC704700BFB494000880B582B0EF
:1025800000AF78607868FFF7E9FF786803F02DFC0A
:102590007B6818460837BD4680BDB0B582B000AF35
:1025A000786039607868FDF72FFF04460D4638687B
:1025B000FDF72AFF02460B462046294604F032F971
:1025C00003460C46184621460837BD46B0BD0000FC
:1025D00080B582B000AF786039607B68012B0CD188
:1025E0003B684FF6FF72934207D10648FFF7A6FFFC
:1025F000054A0649034803F0FAFB00BF0837BD4609
:1026000080BD00BFA4000020000000205D25000860
:1026100080B500AF4FF6FF710120FFF7D9FF80BDF5
:1026200080B483B000AF7860044A7B681A607B682E
:1026300018460C37BD4680BC704700BF3C9600086A
:1026400080B483B000AF7860044A7B681A607B680E
:1026500018460C37BD4680BC704700BF3C9600084A
:1026600080B582B000AF78607868FFF7E9FF7868DE
:1026700003F0BBFB7B6818460837BD4680BD0000F1
:1026800080B582B000AF7860054A7B681A607B68CD
:102690001846FFF7D5FF7B6818460837BD4680BD52
:1026A000E094000880B582B000AF78607868FFF7EA
:1026B000E7FF786803F099FB7B6818460837BD464A
:1026C00080BDB0B582B000AF786039607B685C686F
:1026D0007B689D687B685B6819463868FEF746FA38
:1026E000034619462846FEF74BFB0346194620468B
:1026F000FEF73EFA03461A467B685A607B685B68C1
:1027000018460837BD46B0BD80B582B000AF7860CE
:10271000054A7B681A607B681846FFF791FF7B6863
:1027200018460837BD4680BD1C95000880B582B0AC
:1027300000AF78607868FFF7E7FF786803F055FB33
:102740007B6818460837BD4680BD90B585B000AFA0
:10275000786039607B68DB6839681846FEF710FBE3
:1027600003461A467B681B6A19461046FEF700FAB4
:102770000346FB607B681B6939681846FEF700FB5F
:1027800003461C467B689B69F9681846FEF7F8FA11
:10279000034619462046FEF7E9F903461A467B68C8
:1027A0005B6A19461046FEF7E3F903461A467B6852
:1027B0001A627B685B6939681846FEF7E1FA0346DE
:1027C0001C467B68DB69F9681846FEF7D9FA0346B0
:1027D00019462046FEF7CAF903461A467B685A6234
:1027E000FB6818461437BD4690BD000090B58DB00B
:1027F00000AFF8607A603B600B46FB72FB681846DE
:10280000FFF70EFF744AFB681A60FB68734A5A6050
:10281000FB68734A9A6073493868FEF7B1FA034659
:1028200079681846FEF7ACFA03467B62786A03F0D3
:10283000C3FF03463B62786A03F080FF0346FB61F7
:10284000FB7A012B2BD1396C3868FEF74DFB034620
:10285000184603F0A7FF034619461846FEF788F905
:102860000346BB61B9694FF0804004F0B1F90346FB
:10287000184604F019FB0446B9694FF0804004F093
:10288000A7F903464FF07E511846FEF76FF903464D
:1028900019462046FEF728FB0346FB6202E0FB6870
:1028A0009B68FB62FB6A19461846FEF761F903460E
:1028B0001946386AFEF718FB03467B614FF00003A8
:1028C000BB62FB684FF00002DA60FB684FF0000269
:1028D0001A61FB684FF000025A614FF00003BB62BF
:1028E000FB684FF000029A61FB684FF00002DA616A
:1028F000FB7A012B45D0022B76D0002B40F09A803A
:10290000F9694FF07E50FEF731F903464FF07C51E4
:102910001846FEF735FA03461A46FB68DA60F9698D
:102920004FF07E50FEF722F903461A46FB681A6103
:10293000F9694FF07E50FEF719F903464FF07C51CC
:102940001846FEF71DFA03461A46FB685A614FF017
:102950007E517869FEF70CF90346BB624FF04041A7
:10296000F869FEF70DFA03461A46FB689A61796921
:102970004FF07E50FEF7FAF803461A46FB68DA611C
:1029800058E0FB684FF07E52DA604FF04041F86942
:10299000FEF7F6F903461A46FB681A61FB684FF02A
:1029A0007E525A614FF07E517869FEF7E1F8034696
:1029B000BB624FF04041F869FEF7E2F903461A4660
:1029C000FB689A6179694FF07E50FEF7CFF80346B5
:1029D0001A46FB68DA612DE0089500083333F33FAF
:1029E000F304353FDB0FC940FB687A69DA60FB68A6
:1029F0004FF000021A617B6983F00042FB685A6164
:102A00004FF07E517869FEF7B3F80346BB624FF092
:102A10004041F869FEF7B4F903461A46FB689A612B
:102A200079694FF07E50FEF7A1F803461A46FB681D
:102A3000DA6100BFFB68DB68B96A1846FEF754FA32
:102A400003461A46FB68DA60FB681B69B96A1846D8
:102A5000FEF74AFA03461A46FB681A61FB685B698F
:102A6000B96A1846FEF740FA03461A46FB685A61EF
:102A7000FB689B69B96A1846FEF736FA03461A46A0
:102A8000FB689A61FB68DB69B96A1846FEF72CFAA5
:102A900003461A46FB68DA61FB684FF000025A628F
:102AA000FB685A6AFB681A62FB684FF00002DA6240
:102AB000FB68DA6AFB689A62FB6805E0FB68184607
:102AC000FFF7BEFD03F0D0F918463437BD4690BD80
:102AD00080B582B000AF7860054A7B681A607B6879
:102AE0001846FFF7ADFD7B6818460837BD4680BD28
:102AF0000895000880B582B000AF78607868FFF76D
:102B0000E7FF786803F071F97B6818460837BD461F
:102B100080BDB0B582B000AF786039607B685C6919
:102B20007B685A697B689B6919461046FEF71EF858
:102B3000034619462046FEF71BF803461A467B68F3
:102B40005A617B685A697B689A617B68DA687B683E
:102B50005B6819461046FEF70BF803461A467B6879
:102B6000DA607B68DC687B68DA687B689B6819469A
:102B70001046FDF7FDFF034619462046FEF7B4F95F
:102B800003461A467B681A617B685C697B681D692D
:102B90007B685B6919463868FDF7E8FF034619460C
:102BA0002846FEF7EDF8034619462046FDF7E0FFFC
:102BB00003461A467B685A617B681B6919464FF0C9
:102BC0007E50FDF7D3FF03461A467B68DB68194643
:102BD0001046FEF7D5F803461A467B68DA607B6834
:102BE0005B6918460837BD46B0BD000080B582B0AD
:102BF00000AF7860054A7B681A607B681846FFF76B
:102C00001FFD7B6818460837BD4680BDF494000858
:102C100080B582B000AF78607868FFF7E7FF78682A
:102C200003F0E3F87B6818460837BD4680BD80B4E2
:102C300083B000AF786039603B6818460C37BD46FA
:102C400080BC704790B585B000AF78600B46FB70D4
:102C5000264801F09BF80346FB607B689B6AFA6894
:102C6000D31A184600F067FD03460C461846214665
:102C7000FDF7E0FE0346BB60BB6840F6AC529342F2
:102C800003DD7B68002283F82E207B6893F82E30CA
:102C9000002B05D1FB780F2B23D17B68FA689A6251
:102CA0007B6893F82E30182B1CD87B6893F82E3055
:102CB0005A1CD1B27A6882F82E101A467B681344E7
:102CC000FA781A737B6893F82E30182B04D87B6837
:102CD000002283F82F2005E07B68012283F82F2053
:102CE00000E000BF1437BD4690BD00BFA00100202A
:102CF00080B582B000AF78607B6893F82F30002BEE
:102D000001D1002323E07B68002283F82F207B6819
:102D100093F8233003F00403002B06D07B689B8DCF
:102D200043F002039AB27B689A857B6893F823305C
:102D300003F00803002B06D07B689B8D43F0010352
:102D40009AB27B689A85786800F005F803461846C1
:102D50000837BD4680BD80B483B000AF78607B6823
:102D6000DB68C3F30A239BB21A467B68A3F84C20A6
:102D70007B68DB89C3F3CA039BB21A467B68A3F85E
:102D80004E207B68DA7B9209D2B21B8AC3F3080318
:102D90009B0013439BB21A467B68A3F850207B68C4
:102DA0001B69C3F34A239BB21A467B68A3F85220DF
:102DB0007B685B8AC3F30A139BB21A467B68A3F84D
:102DC00054207B68DA7CD209D2B29B8AC3F3090310
:102DD0005B0013439BB21A467B68A3F856207B68BE
:102DE0005B69C3F38A239BB21A467B68A3F8582019
:102DF0007B68DB8AC3F34A139BB21A467B68A3F84D
:102E00005A207B681B8BC3F30A039BB21A467B686C
:102E1000A3F85C207B689B69C3F3CA239BB21A4664
:102E20007B68A3F85E207B685A8B920992B21B7F65
:102E300003F001039B0213439BB21A467B68A3F87D
:102E400060207B689B8BC3F34A039BB21A467B6866
:102E5000A3F862207B68DB69C3F30A339BB21A468E
:102E60007B68A3F864207B68DA8BD20992B293F86E
:102E7000203003F003035B0213439BB21A467B68C6
:102E8000A3F866207B681B8CC3F38A039BB21A46A7
:102E90007B68A3F868207B681B6AC3F34A339BB244
:102EA0001A467B68A3F86A207B6893F8233003F006
:102EB0000103002B05D07B6840F21472A3F86C204C
:102EC00003E07B68AD22A3F86C207B6893F8233085
:102ED00003F00203002B05D07B6840F21472A3F8C4
:102EE0006E2003E07B68AD22A3F86E207B6893F828
:102EF000233003F00803002B01D0032309E07B6893
:102F000093F8233003F00403002B01D0092300E0E1
:102F1000012318460C37BD4680BC704780B485B08D
:102F200000AF78600023FB60FB68112B1DDC7B6821
:102F30001B8E1B01234A82FB03129210DB17D31A4C
:102F40009BB2A3F5B06399B27A68FB6824335B0047
:102F500013440A469A807A68FB6813449633002229
:102F60001A70FB680133FB60DEE77B684FF00002FC
:102F70005A677B684FF000029A677B684FF0000247
:102F80001A677B684FF00002DA677B68002283F8DB
:102F900090207B68002283F891207B68002283F8D0
:102FA00092207B68002283F893207B68002283F8BC
:102FB00094207B68002283F8952000BF1437BD461B
:102FC00080BC70476766666680B582B000AF786087
:102FD00001F026FA084800F0E5FE7868FFF79EFF4A
:102FE0007B68043301221946044802F049FD00BF02
:102FF0000837BD4680BD00BFA0010020A40200200C
:1030000080B483B000AF78607B6893F825309BB2C2
:1030100018460C37BD4680BC7047000080B582B0B2
:1030200000AF78607B681B7919467868FFF70AFE65
:103030007868FFF75DFE03461A467B6883F8262012
:103040007B6893F8263003F00103002B25D07B68C2
:1030500093F8263003F00203002B07D07B6801228F
:1030600083F825207868FFF759FF16E07B6893F80E
:10307000263003F00803002B05D07B685B6C5A1CDC
:103080007B685A6409E0786800F072F8786800F0AC
:1030900067F97B68002283F825207B6804330122CE
:1030A00019460D4802F0ECFC0C4B1B78002B0FD09E
:1030B0000A4B00221A707B68032283F82520786867
:1030C000FFF72CFF044802F0C3FC7868FFF77CFF91
:1030D00000BF0837BD4680BDA402002004000020C8
:1030E00090B589B002AFF860B9607A600023FB75D3
:1030F000FB7D032B1CDC302002F0A5FE03461C46A2
:103100004FF000030093BB687A6800212046FFF768
:103110006DFBFB7DFA680C339B0013445C60FB7D08
:103120000133FB75E4E7204602F05FFE02F09CFEEF
:1031300000BF1C37BD4690BD80B485B000AF78603D
:103140000023FB60FB68032B0DDC7B68FA681C32F4
:1031500053F822107B68FA68203243F82210FB688B
:103160000133FB60EEE700BF1437BD4680BC7047FB
:1031700080B582B000AF78607B68B3F84C30A3F5BF
:1031800078731846FDF7A8FD034673491846FDF706
:10319000ABFE03461A467B685A677B68B3F84E302D
:1031A000A3F578731846FDF797FD03466A4918465C
:1031B000FDF79AFE03461A467B689A677B68B3F868
:1031C0005030C03B1846FDF787FD0346634918465B
:1031D000FDF78AFE03461A467B681A677B68B3F8D8
:1031E0005230A3F578731846FDF776FD03465A4929
:1031F0001846FDF779FE03461A467B68DA677B6856
:10320000B3F85A30B3F5FA7F04DA7B68002283F80A
:10321000902010E07B68B3F85A301A4640F2DC5335
:103220009A4204DD7B68022283F8902003E07B68E9
:10323000012283F890207B68B3F85630B3F5FA7F0B
:1032400004DA7B68002283F8912010E07B68B3F8F1
:1032500056301A4640F2DC539A4204DD7B68012264
:1032600083F8912003E07B68022283F891207B6839
:10327000B3F85830B3F5FA7F04DA7B68002283F89C
:10328000922010E07B68B3F858301A4640F2DC53C5
:103290009A4204DD7B68022283F8922003E07B6877
:1032A000012283F892207B68B3F85C30B3F5FA7F93
:1032B00004DA7B68002283F8932010E07B68B3F87F
:1032C0005C301A4640F2DC539A4204DD7B680222ED
:1032D00083F8932003E07B68012283F893207B68C6
:1032E000B3F85430B3F5FA7F04DA7B68002283F830
:1032F000942010E07B68B3F854301A4640F2DC5357
:103300009A4204DD7B68022283F8942003E07B6804
:10331000012283F894207B68B3F85E30B3F5FA7F1E
:1033200004DA7B68002283F8952010E07B68B3F80C
:103330005E301A4640F2DC539A4204DD7B6801227B
:1033400083F8952003E07B68022283F8952000BF74
:103350000837BD4680BD00BF000048440000C84497
:1033600080B582B000AF78607B6893F82530002B81
:1033700040F05F817B681B6F83491846FDF79EFE16
:103380000346002B36D07B68DB6F80491846FDF77B
:10339000B3FE0346002B2DD07B689B6F7C491846FB
:1033A000FDF78CFE0346002B24D07B685B6F7749CA
:1033B0001846FDF7A1FE0346002B1BD0754B1B885A
:1033C00001339AB2734B1A80724B1B886F2B0CBF60
:1033D00001230023DBB2002B0FD07B6893F89630DB
:1033E000002B0CBF01230023DBB21A467B6883F855
:1033F000962002E0674B00221A807B681B6F6249AF
:103400001846FDF75BFE0346002B36D07B68DB6F6A
:103410005F491846FDF752FE0346002B2DD07B680E
:103420009B6F5B491846FDF749FE0346002B24D0ED
:103430007B685B6F56491846FDF740FE0346002B3C
:103440001BD0554B1B8801339AB2534B1A80524BF9
:103450001B886F2B0CBF01230023DBB2002B0FD086
:103460007B6893F89730002B0CBF01230023DBB25D
:103470001A467B6883F8972002E0474B00221A80A7
:103480007B681B6F41491846FDF736FE0346002B4B
:1034900036D07B68DB6F3E491846FDF70FFE0346CA
:1034A000002B2DD07B689B6F38491846FDF724FE12
:1034B0000346002B24D07B685B6F35491846FDF727
:1034C000FDFD0346002B1BD0344B1B8801339AB201
:1034D000324B1A80314B1B886F2B0CBF012300230A
:1034E000DBB2002B0FD07B6893F89830002B0CBF19
:1034F00001230023DBB21A467B6883F8982002E0A0
:10350000264B00221A807B681B6F20491846FDF766
:10351000F3FD0346002B45D07B68DB6F1B49184643
:10352000FDF7EAFD0346002B3CD07B689B6F1749F3
:103530001846FDF7E1FD0346002B33D07B685B6F37
:1035400012491846FDF7D8FD0346002B2AD0144B2C
:103550001B8801339AB2124B1A80114B1B886F2BB8
:103560000CBF01230023DBB2002B1ED07B6893F835
:103570009930002B0CBF01230023DBB21A467B6875
:1035800083F8992011E000BFCDCC4C3D3333733F1D
:10359000333373BF740100207601002078010020CE
:1035A0007A010020254B00221A807B681B6F24497A
:1035B0001846FDF783FD0346002B36D07B68DB6F92
:1035C00020491846FDF77AFD0346002B2DD07B6875
:1035D0009B6F1C491846FDF771FD0346002B24D054
:1035E0007B685B6F18491846FDF786FD0346002B84
:1035F0001BD0164B1B8801339AB2144B1A80134B05
:103600001B886F2B0CBF01230023DBB2002B10D0D3
:103610007B6893F89A30002B0CBF01230023DBB2A8
:103620001A467B6883F89A2003E0084B00221A8030
:10363000FFE700BF0837BD4680BD00BF7A0100200C
:10364000CDCC4C3D333373BF3333733F7C0100200B
:1036500080B582B000AF78607868FFF7DFFC00BF0C
:103660000837BD4680BD000080B483B000AF7860ED
:10367000204A7B681A607B68032283F825207B68D8
:10368000002283F826207B6800229A627B68002251
:103690009A857B68002283F82E207B68002283F8BD
:1036A0002F207B6840F2DC521A867B6800225A6425
:1036B0007B6801229A647B68002283F890207B68F3
:1036C000002283F891207B68002283F892207B6897
:1036D000002283F893207B68002283F894207B6883
:1036E000002283F895207B6818460C37BD4680BCC5
:1036F000704700BF9C95000880B483B000AF78602D
:10370000044A7B681A607B6818460C37BD4680BC4B
:10371000704700BF9C95000880B582B000AF78600C
:103720007868FFF7E9FF786802F05FFB7B6818466E
:103730000837BD4680BD90B583B000AF786078682B
:10374000FCF752FE03460C46184621460C37BD4690
:1037500090BD000080B582B000AF786039607B68B2
:10376000012B0CD13B684FF6FF72934207D10648FC
:10377000FFF77AFF054A0649034802F038FB00BF0D
:103780000837BD4680BD00BFCC00002000000020EF
:10379000F936000880B500AF4FF6FF710120FFF742
:1037A000D9FF80BD0000000090B583B000AF786005
:1037B0007B68DB681846FCF717FE0DA3D3E90023EE
:1037C000FCF788FE03460C4618462146FDF77AF9B9
:1037D00003461A4608490948FFF782FC7B68002225
:1037E000DA7100BF0C37BD4690BD00BFAFF300805B
:1037F000FCA9F1D24D62503F00004842CC000020AD
:1038000080B582B000AF78600C48FFF795FC0B4B99
:1038100093F89230022B03D17B6800229A7102E068
:103820007B6801229A71786800F00AF8786800F0E5
:103830004DF800BF0837BD4680BD00BFCC0000205A
:1038400080B582B000AF78601F48FFF7D9FB034610
:10385000002B04D11C4B93F89030012B01DC012389
:1038600000E00023002B06D07B6800221A717B68E1
:1038700000225A7124E0144B93F89030022B1FD190
:10388000114B93F89130002B03D17B6803221A71FE
:1038900016E00D4B93F89130012B06D17B68022284
:1038A0001A717B6801225A710AE0074B93F8913034
:1038B000022B05D17B6801221A717B6801225A71A3
:1038C00000BF0837BD4680BDCC00002080B582B067
:1038D00000AF78607B689B79002B0AD0012B00D069
:1038E0000CE07B681B79002B07D07B6801225A71A2
:1038F00003E0786800F006F800E000BF00BF08377A
:10390000BD4680BD80B582B000AF78607B681B7912
:10391000002B1ADB022B0DDD032B00D015E07B689A
:10392000DB79002B0ED17B6800225A71786800F099
:1039300010F807E07B68DB79002B05D0786800F091
:1039400014F801E000BF00E000BF00BF0837BD462B
:1039500080BD80B483B000AF78607B680122DA71EB
:1039600000BF0C37BD4680BC704780B483B000AF49
:1039700078607B680122DA7100BF0C37BD4680BCDD
:10398000704780B483B000AF78607B681B791846BD
:103990000C37BD4680BC704780B483B000AF786000
:1039A0007B685B7918460C37BD4680BC704780B495
:1039B00083B000AF78607B689B7918460C37BD46B2
:1039C00080BC704780B483B000AF78600E4A7B68DB
:1039D0001A607B6800221A717B6800225A717B682A
:1039E00000229A717B680022DA717B6801221A72C8
:1039F0007B680122DA607B6864221A617B68184662
:103A00000C37BD4680BC7047BC95000880B483B0BD
:103A100000AF7860044A7B681A607B6818460C37F0
:103A2000BD4680BC704700BFBC95000880B582B021
:103A300000AF78607868FFF7E9FF786802F0D5F9A1
:103A40007B6818460837BD4680BD000080B582B04F
:103A500000AF786039607B68012B0CD13B684FF672
:103A6000FF72934207D10648FFF7ACFF054A0649AB
:103A7000034802F0BCF900BF0837BD4680BD00BF57
:103A800080010020000000200D3A000880B500AF42
:103A90004FF6FF710120FFF7D9FF80BD80B483B0DE
:103AA00000AF78607B68034A9A6000BF0C37BD4660
:103AB00080BC70470000BE4280B582B000AF786025
:103AC000786800F0C1F8786800F008F8786800F0CD
:103AD00017F800BF0837BD4680BD000080B582B032
:103AE00000AF78600548FFF757FF03461A467B682A
:103AF0001A7100BF0837BD4680BD00BF800100209D
:103B000090B583B000AF78604A48FFF73AFF0346AC
:103B1000032B00F28B8001A252F823F02D3B00080A
:103B2000053C0008B33B0008473B000801224FF466
:103B30008061414801F040FA01224FF400613E48A3
:103B400001F03AFA72E000224FF480613A4801F045
:103B500033FA01224FF40061374801F02DFA7B68F7
:103B60001B791A4603213548FEF785FC786800F07A
:103B7000A7F80446786800F0A3F80246304BD3F863
:103B8000883019461046FDF7FBF803461A462146D1
:103B90002A48FEF750FC2A4BD3F88C3029491846A6
:103BA000FDF7EEF803461A4626492448FEF753FC73
:103BB0003CE001224FF480611F4801F0FDF9002232
:103BC0004FF400611C4801F0F7F97B681B791A4635
:103BD00002211A48FEF74FFC786800F071F804469D
:103BE000786800F06DF80246154BD3F88830194616
:103BF0001046FDF7C5F803461A4621460F48FEF762
:103C00001AFC13E000224FF480610B4801F0D4F954
:103C100000224FF40061084801F0CEF97B681B795F
:103C20001A4601210548FEF726FC00BF00BF0C37ED
:103C3000BD4690BD8001002000100140A40000207E
:103C4000CC0000200000344280B582B000AF786024
:103C50001848FFF7ACFE0346002B0CBF01230023DE
:103C6000DBB2002B1DD01348FFF78BFE0346032B5E
:103C70001CD801A252F823F0AB3C0008993C000884
:103C8000913C0008893C00087B680B4A9A600DE073
:103C90007B680A4A9A6009E07B68084A9A6000BF1C
:103CA00004E07B68044A9A6000E000BF00BF083768
:103CB000BD4680BD800100200000BE420000A04241
:103CC00080B483B000AF78607B689B6818460C377F
:103CD000BD4680BC7047000080B483B000AF786000
:103CE000054A7B681A607B6800221A717B68184657
:103CF0000C37BD4680BC7047E495000880B483B0A3
:103D000000AF7860044A7B681A607B6818460C37FD
:103D1000BD4680BC704700BFE495000880B582B006
:103D200000AF78607868FFF7E9FF786802F05DF827
:103D30007B6818460837BD4680BD000080B582B05C
:103D400000AF786039607B68012B0CD13B684FF67F
:103D5000FF72934207D10648FFF7BEFF054A0649A6
:103D6000034802F044F800BF0837BD4680BD00BFDD
:103D70009401002000000020FD3C000880B500AF49
:103D80004FF6FF710120FFF7D9FF80BD80B483B0EB
:103D900000AF78604FF080435B6A18460C37BD4631
:103DA00080BC704780B582B000AF78607B681B79BB
:103DB000002B01D0002308E000F09AFA054801F03A
:103DC000A5FB7B6801221A71012318460837BD46FE
:103DD00080BD00BF5C02002080B483B000AF78607B
:103DE000054A7B681A607B6800221A717B68184656
:103DF0000C37BD4680BC70470C96000880B483B079
:103E000000AF7860044A7B681A607B6818460C37FC
:103E1000BD4680BC704700BF0C96000880B582B0DC
:103E200000AF78607868FFF7E9FF786801F0DDFFA0
:103E30007B6818460837BD4680BD000080B582B05B
:103E400000AF786039607B68012B0CD13B684FF67E
:103E5000FF72934207D10648FFF7BEFF054A0649A5
:103E6000034801F0C4FF00BF0837BD4680BD00BF56
:103E7000A001002000000020FD3D000880B500AF3B
:103E80004FF6FF710120FFF7D9FF80BD4FF4A0224C
:103E90000E4808B54FF0050E02614FF480120C4B2E
:103EA000426180E8084001220023C2768360C3603B
:103EB0000376437683760377437700F075FB18B17A
:103EC000BDE8084000F09BB908BD00BFC401002058
:103ED0000064004010B5044686B01022002102A8FC
:103EE00005F0A4F92268214B9A423DD103F5D6335F
:103EF000DA6902A942F00072DA61DA691C4802F05C
:103F000000720092009A9A6942F004029A619B69D9
:103F100003F004030193019B4FF40063029300F04C
:103F2000FBFE4FF48053029302230393032302A961
:103F30000F48059300F0F0FE00221320114600F018
:103F400037FE132000F068FE00221420114600F016
:103F50002FFE142000F060FE00221520114600F014
:103F600027FE152000F058FE06B010BD006400408A
:103F7000000801400023084901224B618B610B605E
:103F80004B608B60CB600B610E230448CA610A62F0
:103F90004B6200F084BB00BFEC010020C401002094
:103FA00000B58BB008AB6A46002100F05DFC0BB099
:103FB0005DF804FB10222DE9F04389B00DEB0200FF
:103FC000002105F033F93C4B3C4F9A69384642F0EA
:103FD00010029A619A694FF4406102F01002009257
:103FE000009A9A69032442F020029A619A6907258F
:103FF00002F020020192019A9A69002642F004021E
:104000009A619A694FF0020802F004020292029A41
:104010009A69DFF8BC9042F008029A619B6900221D
:1040200003F008030393039B00F0C6FF4FF2FF3336
:1040300004A938460493059400F06EFE04A92048B4
:104040000495059400F068FE48F2F17304A948460F
:104050000493059400F060FE1A4B04A948460593AA
:10406000CDF81080069600F057FE4FF6FF7304A9B6
:1040700015480493059400F04FFE4FF440630493F9
:10408000012304A9384605930696CDF81C8000F05C
:1040900043FE0E4A31465368284643F0E06343F43A
:1040A00000435360324600F083FD284600F0B4FD23
:1040B00009B0BDE8F08300BF0010024000100140CD
:1040C0000014014000001110000C014000000140EC
:1040D0000008014080B582B000AF78607B681B6843
:1040E000044A934202D10448FEF724F800BF08377F
:1040F000BD4680BD00040040A000002080B582B015
:1041000000AF78607B681B68044A934202D1044880
:10411000FFF79EFA00BF0837BD4680BD004400404F
:10412000CC00002080B582B000AF00F019FA00F09A
:1041300021F8FFF73FFFFFF7A9FE00F00DF9FFF7A9
:1041400019FF094800F017FB0221074800F002FCA4
:104150000346002B054801F0FFF90548FDF7C8FFAD
:104160000123FB71FEE700BFC40100201402002000
:10417000A000002080B590B000AF07F118032822FE
:104180000021184605F052F83B1D00221A605A60C3
:104190009A60DA601A610223BB610123BB621023BB
:1041A000FB6200237B6307F11803184600F016FF3B
:1041B0000346002B14BF01230023DBB2002B01D0E8
:1041C00000F01DF80F237B600023BB600023FB6021
:1041D00000233B6100237B613B1D0021184601F059
:1041E000D7F80346002B14BF01230023DBB2002BBA
:1041F00001D000F004F800BF4037BD4680BD80B458
:1042000000AF00BFBD4680BC704700000E4B82B0BF
:104210009A6942F001029A619A6902F001020092E1
:10422000009ADA6942F08052DA61DB69074A03F0EA
:1042300080530193019B536823F0E06343F00073C4
:10424000536002B0704700BF001002400000014000
:104250007047FEE7FEE7FEE7FEE7704770477047EE
:1042600000F090B9022000F0ADBE0000014800F05F
:104270008EBB00BFC4010020FFF7F8BFFFF7F6BFF9
:10428000014801F097B900BF14020020014801F075
:104290005BBC00BFA40200200120704708B504F0F9
:1042A0008BFF162303604FF0FF3008BD08B504F004
:1042B00083FF16230360FEE708B50A4B0246196820
:1042C00009B9094919606946186802448A4206D941
:1042D00004F072FF0C2303604FF0FF3008BD1A603A
:1042E00008BD00BFA8010020EC02002070470000BC
:1042F0007FB51022002102A804F098FF08224FF099
:1043000080411448002380E806004FF6FF720093B6
:1043100001938360C2600361836101F025FA08B1F3
:10432000FFF76DFF4FF4805302A90A48029301F092
:1043300051FA08B1FFF763FF00236946054800936F
:10434000019301F0DBFA08B1FFF759FF07B05DF800
:1043500004FB00BF5C0200207FB51022002102A8F0
:1043600004F064FF002340F21F3214481449009304
:10437000019380E8060083604FF47A720361802322
:10438000C260836101F0F0F908B1FFF738FF4FF424
:10439000805302A90948029301F01CFA08B1FFF703
:1043A0002EFF0023694605480093019301F0A6FA09
:1043B00008B1FFF724FF07B05DF804FB14020020EA
:1043C00000040040036807B5B3F1804F0DD103F539
:1043D0000433DA6942F00102DA61DB6903F00103B8
:1043E0000093009B03B05DF804FB0B4A9342F9D1A4
:1043F0000A4B1D20DA6942F00202DA610022DB6911
:10440000114603F002030193019B00F0D1FB1D2034
:1044100000F002FCE6E700BF00040040001002408C
:1044200008B54FF480534FF4005E0A480A490B4A1E
:1044300080E80E404FF4806303610C234361002346
:104440008361C36101F0D6FA18B1BDE80840FFF7F7
:10445000D6BE08BDA402002000440040A086010092
:1044600010B5044686B01022002102A804F0DEFE3A
:1044700022681A4B9A422FD103F5E633DA6902A972
:1044800042F40032DA61DA69154802F4003200922F
:10449000009A9A69002442F004029A619B6903F031
:1044A00004030193019B0423029302230393032338
:1044B000059300F031FC082309480DEB030102933A
:1044C0000394049400F028FC26202246214600F0A4
:1044D0006FFB262000F0A0FB06B010BD004400409A
:1044E0000008014008B50268084B9A420DD1084AFD
:1044F0000848D3690C2123F40033D36100F0EEFCAB
:10450000BDE80840262000F095BB08BD00440040EF
:10451000001002400008014038B50E4B05461878DF
:104520004FF47A73B3FBF0F30B4A1068B0FBF3F06F
:1045300000F094FB044658B90F2D09D802462946CD
:104540004FF0FF3000F034FB044B20461D6038BDB7
:10455000012038BD0C0000200800002010000020C1
:10456000074A08B51368032043F01003136000F0F6
:104570000DFB0020FFF7D0FFFFF748FE002008BD2D
:1045800000200240034A044B11681B780B4413605F
:10459000704700BFE40200200C000020014B1868A7
:1045A000704700BFE402002038B5044600286ED0F2
:1045B00090F820300BB9FFF78DFC2268136823F0C8
:1045C00002031360FFF7EAFF054623685A68910764
:1045D00051D41A6842F001021A60FFF7DFFF054666
:1045E00023685A68D20754D5227E0020012A1A680F
:1045F0000CBF42F0800222F080021A60627E012A23
:104600001A680CBF42F0400222F040021A60A27EFB
:10461000012A1A680CBF42F0200222F020021A6020
:10462000E27E012A1A680CBF22F0100242F010024A
:104630001A60227F012A1A680CBF42F0080222F099
:1046400008021A60627F012A1A680CBF42F0040255
:1046500022F004021A60E168A2680A4321690A4351
:1046600061690A43616801390A43DA6101236062C2
:1046700084F8203038BDFFF791FF401B0A28A4D9E9
:10468000636A43F400336362052384F82030012019
:1046900038BDFFF783FF401B0A28A1D9F0E790F847
:1046A000203070B5013B012B5FD8012403684869B5
:1046B000D3F8002242F00102C3F8002200F01F02EA
:1046C00004FA02F2D443D3F81C522540C3F81C521A
:1046D000CD6985BBD3F80C52CE682540C3F80C5287
:1046E0008D8803EBC00045EA0645C0F840528E684D
:1046F0000D8845EA0645C0F84452886968BBD3F87E
:1047000004022040C3F80402086950BBD3F8140225
:104710002040C3F81402096A0020012902BFD3F81F
:104720001C120A43C3F81C22D3F8002222F0010213
:10473000C3F8002270BD012DDFD1D3F80C520E68F2
:104740001543C3F80C528D8803EBC00045EA0645BB
:10475000C0F840528E688D89CBE7D3F8040210432D
:10476000D0E7D3F814021043D3E7436A43F480231D
:104770004362012070BD38B590F820300446012B0B
:104780001FD10223026880F82030136823F0010350
:104790001360FFF703FF05462368586810F0010017
:1047A00001D1606238BDFFF7F9FE401B0A28F3D93A
:1047B000636A43F400336362052384F820300120E8
:1047C00038BD436A43F400234362F8E7F0B590F83C
:1047D00020500668013D012DB46841D814F0E05F17
:1047E0003AD0C4F30164032C4FF0010505D1436AAC
:1047F00043F4000343620120F0BDA5401D608868BA
:10480000CF6804F1180310BB086847EA40501B0149
:10481000F05008692401097D3319C3F88401012986
:1048200008BFD3F88411344404BF41F48071C3F845
:10483000841151680020C4F88C111268C4F88821D2
:10484000D3F8802142F00102C3F88021F0BD4D6809
:10485000384340EAC500DAE7436A43F40013C9E786
:10486000436A43F48023C5E7F0B590F82040013C4B
:10487000012C6BD8066841B9F468A40707D1436AD4
:1048800043F4001343620120F0BD3469F5E70C01E5
:104890003519D5F8B07107F004079760002F4BD198
:1048A000D5F8B0717F0D1760D5F8B071264407F0C8
:1048B0000207D760D5F8B47107F00F071761D5F874
:1048C000B471D5F8B451C7F307272D0C9761556122
:1048D000D6F8B8211A7002682244D2F8B821120A18
:1048E0005A7002682244D2F8B821120C9A700268F9
:1048F0002244D2F8B821120EDA7002682244D2F8AB
:10490000BC211A7102682244D2F8BC21120A5A71E1
:1049100002682244D2F8BC21120C9A710268144435
:10492000D4F8BC21120EDA71036851B9DA6842F08A
:104930002002DA600020F0BDD5F8B071FF085760A2
:10494000B2E71A6942F020021A61F3E7436A43F4BE
:10495000802397E790F82030013B012B05D80268AF
:1049600000205369194351617047436A43F480231F
:104970004362012070477047704770477047704727
:1049800070477047704770477047704770472DE910
:10499000F84F036805465E69D3F8049016F00104E9
:1049A0009F68D3F80CB0D3F810A0D3F8188022D0A9
:1049B00017F0010407D00122B9079A6040F1A380E3
:1049C000FFF7D9FF0024FB0509D54FF480722B684F
:1049D000B8059A6040F1A5802846FFF7CDFFFB039C
:1049E00009D54FF480322B68B8039A6040F1A78054
:1049F0002846FFF7C2FF330707D51BF0100F1FBF74
:104A000010222B6844F40074DA60770708D51BF095
:104A1000080F05D008222B682846DA60FFF7B1FF9F
:104A2000B00706D52B68DB68990702D02846FFF748
:104A3000B7FA720607D51AF0100F1FBF10222B68A5
:104A400044F480641A61B30608D51AF0080F05D043
:104A500008222B6828461A61FFF795FFF70606D54E
:104A60002B681B69980702D02846FFF78BFFB1031C
:104A700008D519F0100F05D010222B6828465A606F
:104A8000FFF782FFF20308D519F0080F05D00822BE
:104A90002B6828465A60FFF778FF33042AD519F0AF
:104AA000040F2A6824D0F70504D518F0010F18BFA9
:104AB00044F00104B00504D518F0020F18BF44F00B
:104AC0000204710504D518F0040F18BF44F0040463
:104AD00033050DD518F070030AD0302B4CD03CD8DC
:104AE000102B43D0202B44D0936923F070039361A3
:104AF000042353602CB16B6A28461C436C62FFF799
:104B000045FFBDE8F88F7A0705D417F0080405D1F2
:104B1000FFF734FF57E74FF4006454E74FF4805435
:104B200051E7790502D544F4005458E73A0502D517
:104B300044F4804453E72846FFF721FF4FE7790309
:104B400002D544F4004456E73A0302D544F48034D5
:104B500051E72846FFF714FF4DE7502B0FD0602B8D
:104B600010D0402BC0D144F04004BDE744F008040D
:104B7000BAE744F01004B7E744F02004B4E744F087
:104B80008004B1E744F48074AEE70000074A0002F5
:104B9000D36800F4E06023F4E0631B041B0C43F0D3
:104BA000BF6343F400330343D360704700ED00E07C
:104BB000174B30B5DC68C4F30224C4F10703251D8C
:104BC000042B28BF0423062D4FF0010598BF0024B5
:104BD00005FA03F303F1FF3388BF033C1940A140FA
:104BE00005FA04F4013C2240002842EA01024FEA9F
:104BF0000212A9BF00F16040064BD2B200F561403D
:104C0000BBBF00F00F00D2B280F800231A5430BDB1
:104C100000ED00E014ED00E0002808DB012342096C
:104C200000F01F0003FA00F0014B43F82200704728
:104C300000E100E000280DDB0122430900F01F0025
:104C400002FA00F0044A203342F82300BFF34F8FEA
:104C5000BFF36F8F704700BF00E100E00138B0F193
:104C6000807F0AD2F021064B064A586082F8231052
:104C70000020072298601A6070470120704700BF2B
:104C800010E000E000ED00E090F8213010B5022BBC
:104C900003D004238363012010BD03681A6822F047
:104CA0000E021A601A6822F001021A60184A934232
:104CB0001FD0143293421ED0143293421DD01432AE
:104CC00093421DD0143293421DD0143293420CBF34
:104CD0004FF480134FF080730E4A00245360012379
:104CE00080F82130436B80F820407BB19847204604
:104CF00010BD0123F0E71023EEE74FF48073EBE7DC
:104D00004FF48053E8E74FF48033E5E7184610BDD1
:104D100008000240000002402DE9F74F002426461B
:104D2000664BDFF8A8E1DFF8A8C10A6832FA06F599
:104D300002D103B0BDE8F08F4FF0010808FA06F881
:104D400002EA080290457FD14D68122D00F0AA803A
:104D500000F28380022D00F0A28077D8002D00F0B1
:104D60008980012D00F099804FF00F09FF2A93BF31
:104D7000824606F18045083DD0F800B092BFB500EC
:104D8000D0F804B0AD0009FA05F82BEA080804FAD7
:104D900005F588BF00F1040A48EA0505CAF8005085
:104DA000D1F804A01AF0805F4ED0454D444FAD6954
:104DB00026F0030845F00105BD61BD6908F1804892
:104DC00005F00105019508F5803806F0030B019DFB
:104DD0004FEA8B0BD8F8085009FA0BF925EA0909B4
:104DE000384DA84263D005F58065A84261D005F52D
:104DF0008065A8425FD005F58065A8420CBF0325F9
:104E0000042505FA0BF545EA0905C8F808501D68A0
:104E10001AF4803F14BF154395431D605D681AF472
:104E2000003F14BF154395435D609D681AF4801FD1
:104E300014BF154395439D60DD681AF4001F14BF2D
:104E40002A4325EA0202DA6001366EE7032D22D0FA
:104E5000112D89D1CC68043486E71B4FBD4209D09F
:104E600012D8DFF870904D4504D009F580394D45D2
:104E70007FF47AAF8C68C4B1012C0CBFC0F81080ED
:104E8000C0F8148008246FE77545F3D06545F1D06C
:104E9000DFF84490EBE7002466E7CC6864E7CC6871
:104EA000083461E7CC680C345EE704245CE7002535
:104EB000A7E70125A5E70225A3E700BF00040140FD
:104EC00000100240000801400000211000003110D5
:104ED0000000321000001110000022102DE9F04FE8
:104EE0004FF0040A00234FF001094FF00F0C304A35
:104EF00000EB0A0B31FA03F401D1BDE8F08F09FA97
:104F000003F60E404CD023F0030404F1804404F572
:104F1000803403F00307A568BF000CFA07F805EA20
:104F2000080E244DA8423DD005F58065A8423BD02F
:104F300005F58065A84239D005F58065A8420CBF0B
:104F400003250425BD40AE456FEA06050FD1A768CD
:104F500027EA0807A76014682C40146054682C40A6
:104F6000546094682C409460D4682C40D460FF2E28
:104F700091BF07465F4603F18044083C95BFD0F8D7
:104F800000E0D0F804E09C00A4000CFA04F62EEA3D
:104F900006060AFA04F426433E60C4682540C5604C
:104FA0000133A7E70025CDE70125CBE70225C9E7B7
:104FB00000040140000801400AB101617047090482
:104FC000FBE7704708B5044B5969014202D05861AC
:104FD000FFF7F7FF08BD00BF000401402DE9F341D2
:104FE000054608B901203CE00368DB0710D42B68B4
:104FF0009F075DD42B68190700F194802B685A072E
:1050000000F1BE80E869002840F02C81002028E0F3
:105010008F4C636803F00C03042B07D0636803F024
:105020000C03082B09D16368DE0306D523689C03B3
:10503000DDD56B68002BDAD1D4E76B68B3F5803F20
:1050400012D1236843F480332360FFF7A7FA0646A2
:1050500023689803CBD4FFF7A1FA801B6428F7D903
:10506000032002B0BDE8F0819BB9236823F48033AC
:105070002360236823F480232360FFF78FFA06461A
:1050800023689903B3D5FFF789FA801B6428F7D901
:10509000E6E7B3F5A02F236803D143F48023236010
:1050A000CFE723F480332360236823F48023CBE706
:1050B000674C636813F00C0F07D0636803F00C03B0
:1050C000082B10D16368DA030DD423689B0702D53F
:1050D0002B69012B86D123686A6923F0F80343EA20
:1050E000C203236086E72A695A4B6AB101221A601B
:1050F000FFF754FA064623689F07ECD4FFF74EFAF1
:10510000801B0228F7D9ABE71A60FFF747FA06467B
:10511000236898077FF56EAFFFF740FA801B0228DF
:10512000F6D99DE7AA694A4C4B4BDAB101221A60C5
:10513000FFF734FA0646636A9B070DD54FF4FA521F
:10514000464B1B68B3FBF2F3019300BF019B5A1E51
:105150000192002BF9D151E7FFF720FA801B0228BA
:10516000E9D97DE71A60FFF719FA0646636A9F07D7
:105170007FF544AFFFF712FA801B0228F6D96FE7DC
:10518000334CE369D80024D40127E36943F080530A
:10519000E361E36903F080530093009B304E336872
:1051A000D90518D5EB68012B26D1236A43F00103FA
:1051B0002362FFF7F3F941F288368046236A9B07A2
:1051C0003FD5002F3FF41EAFE36923F08053E36126
:1051D00018E70027E2E7336843F480733360FFF792
:1051E000DDF980463368DA05DCD4FFF7D7F9A0EBA8
:1051F00008006428F6D933E7ABB9236A41F288384E
:1052000023F001032362236A23F004032362FFF7E0
:10521000C5F90646236A9807D3D5FFF7BFF9801B67
:105220004045F7D91CE7052B236A03D143F004035B
:105230002362BAE723F001032362236A23F0040305
:10524000B6E7FFF7ABF9A0EB0800B042B6D907E725
:105250000010024000004242800442420800002048
:10526000007000402A4B5A681C4602F00C02082AC3
:105270003DD00023274E022833602BD1FFF78EF953
:105280000746236899011FD42B6AB3F5803F05D1E7
:105290006268A96822F400320A436260696A62683F
:1052A0000B4322F474121343636001233360FFF74E
:1052B00075F9054623689A013FF5A8AEFFF76EF928
:1052C000401B0228F6D9CBE6FFF768F9C01B02287D
:1052D000D7D9C5E6FFF762F9054623689B017FF53C
:1052E00095AEFFF75BF9401B0228F6D9B8E6012816
:1052F0003FF4B7AE58682B6A00F480329A427FF4CC
:1053000071AE6B6A00F47010C01A18BF0120A8E6D5
:10531000001002406000424230B5194B87B002AC29
:1053200003F11005224618685968083303C2AB42DE
:105330001446F7D101238DF80430022311498DF86A
:1053400005304B6803F00C02082A17D1C3F38342DF
:1053500006A80244DB0312F8102C0CD54B680A484F
:10536000C3F34043504306AA134413F8143CB0FB64
:10537000F3F007B030BD05485043FAE70248F8E7BC
:10538000239600080010024000127A0000093D0038
:105390002DE9F0410D46044610B90120BDE8F08129
:1053A000454A136803F007038B4229D321688E070F
:1053B00031D4CA0744D4404A136803F007039D421E
:1053C00067D322683D4D12F0040F6ED1130706D546
:1053D0006B68226923F4605343EAC2036B60FFF7F2
:1053E0009BFF6B68364AC3F30313D35CD840354B3D
:1053F0001860354B1868FFF78FF80020BDE8F08182
:10540000136823F007030B431360136803F00703CB
:105410009942C2D1CAE7294B11F0040F1EBF5A6846
:1054200042F4E0625A60080742BF5A6842F4605290
:105430005A605A68A06822F0F00202435A60B8E746
:1054400062681E4E012A33681BD113F4003FA4D0BA
:10545000736841F2883823F0030313437360FFF746
:105460009DF807467368626803F00C03B3EB820F84
:10547000A1D0FFF793F8C01B4045F3D90320BDE846
:10548000F081022A02D113F0007FE0E713F0020F4F
:10549000DDE7136823F007032B431360136803F061
:1054A00007039D427FF479AF8BE76B68E16823F4D3
:1054B000E0630B436B6089E700200240001002406C
:1054C000589600080800002010000020044B054AF0
:1054D0005B68C3F30223D35C034A1068D84070476B
:1054E000001002406896000808000020044B054A9E
:1054F0005B68C3F3C223D35C034A1068D84070478B
:1055000000100240689600080800002090F83D3026
:10551000012B1CD102230F4A80F83D3003689342CF
:105520000AD0B3F1804F07D0A2F59432934203D052
:1055300002F58062934204D19A6802F00702062ABB
:1055400003D01A6842F001021A600020704701205F
:10555000704700BF002C014090F83D30012B20D156
:10556000022380F83D300368DA6842F00102DA6015
:105570000D4A93420AD0B3F1804F07D0A2F594327E
:10558000934203D002F58062934204D19A6802F0FC
:105590000702062A03D01A6842F001021A600020AE
:1055A00070470120704700BF002C014070477047D2
:1055B00070477047036810B51A69044691070ED505
:1055C000DA6892070BD56FF002021A6101229B691B
:1055D00002779B0777D0FFF7EAFF00232377236842
:1055E0001A69500710D5DA6851070DD56FF004021B
:1055F0001A6102229B69227713F4407F204668D00B
:10560000FFF7D5FF0023237723681A6912070FD508
:10561000DA6810070CD56FF008021A610422DB6902
:105620002277990720465AD0FFF7C1FF002323773E
:1056300023681A69D20610D5DA68D0060DD56FF046
:1056400010021A610822DB69227713F4407F20469A
:105650004BD0FFF7ACFF0023237723681A69D107EB
:1056600008D5DA68D20705D56FF0010220461A6125
:10567000FEF730FD23681A69100608D5DA681106AE
:1056800005D56FF0800220461A6100F06AF92368A0
:105690001A69520608D5DA68500605D56FF040023F
:1056A00020461A61FFF785FF23681A69910622D503
:1056B000DA6892061FD56FF020022046BDE8104040
:1056C0001A6100F04DB9FFF771FF2046FFF770FF38
:1056D00083E7FFF76BFF2046FFF76AFF92E7FFF7CC
:1056E00065FF2046FFF764FFA0E7FFF75FFF204656
:1056F000FFF75EFFAFE710BD1A4A036890420AD079
:10570000B0F1804F07D0A2F59432904203D002F559
:105710008062904215D14A6823F070031343114A06
:1057200090420AD0B0F1804F07D0A2F59432904257
:1057300003D002F58062904203D1CA6823F440731B
:1057400013434A6923F08003134303608B68C362E9
:105750000B688362034B984204BF0B690363012308
:1057600043617047002C014010B5044630B390F8F7
:105770003D3003F0FF021BB980F83C20FEF722FE0B
:105780000223206884F83D30211DFFF7B5FF012377
:10579000002084F8463084F83E3084F83F3084F8A6
:1057A000403084F8413084F8423084F8433084F843
:1057B000443084F8453084F83D3010BD012010BDE0
:1057C00010B584680A4324F47F4442EA0323234348
:1057D000836010BD90F83C3070B5012B04464FF04B
:1057E000020019D0012384F83D00206884F83C3081
:1057F000836823F47F4323F0770383600B68402B97
:1058000065D015D8102B0CD007D853B10123002038
:1058100084F83D3084F83C0070BD202B01D0302B43
:10582000F4D1826843F0070322F0700213431AE0B8
:10583000602B34D019D8502BE8D14A68CE68016A61
:10584000056A21F00A0125F00105056283690A4312
:1058500023F0F00343EA061383610262836823F0B6
:10586000700343F057038360D0E7702B0CD0B3F57F
:10587000005FCBD1CB684A688968FFF7A1FF226837
:10588000936843F4804308E0CB684A688968FFF76F
:1058900097FF2268936843F077039360B6E74D68FB
:1058A000CE68016A21F0100101628269036A22F464
:1058B000704223F0A00343EA051342EA06328261F4
:1058C0000362836823F0700343F06703CBE74A6801
:1058D000CE68016A056A21F00A0125F0010505621A
:1058E00083690A4323F0F00343EA061383610262EB
:1058F000836823F0700343F04703B4E790F83C302B
:1059000030B5012B4FF0020325D0012280F83D3045
:1059100003680D685C6880F83C2024F070042C4318
:105920009A685C600D4CA3420AD0B3F1804F07D057
:10593000A4F59434A34203D004F58064A34204D1B7
:10594000496822F080020A439A60012380F83D30C2
:10595000002380F83C30184630BD00BF002C0140C9
:10596000704770470368DA6822F49072DA605A6907
:1059700022F001025A61202380F83A30704700007B
:1059800038B504460368C1681A6922F440520A43D4
:105990001A6182680069D9680243606921F4B051D4
:1059A00021F00C0102430A43DA605A69A16922F42A
:1059B00040720A435A610E4A934215D1FFF796FD91
:1059C00019235843636864229B00B0FBF3F0B0FBDB
:1059D000F2F102FB11031B013233B3FBF2F3256832
:1059E00003EB0113AB6038BDFFF770FDE8E700BFC4
:1059F0000038014010B5044640B390F8393003F048
:105A0000FF021BB980F83820FEF72AFD2423226804
:105A100084F83930D368204623F40053D360FFF76D
:105A2000AFFF236800201A6922F490421A615A6974
:105A300022F02A025A61DA6842F40052DA60202326
:105A4000E06384F8393084F83A3010BD012010BD8D
:105A500010B5044690B12423026880F83930D36829
:105A600023F40053D360FEF73DFD0020E06384F88B
:105A7000380084F8390084F83A0010BD012010BDC8
:105A800090F83A30202B20D1E9B1E2B190F83830CB
:105A9000012B1AD0C285828500232222C36380F89D
:105AA0003A2002688162D16880F8383041F4807110
:105AB000D1605169184641F001015161D16841F04E
:105AC0002001D16070470120704702207047704765
:105AD00090F83A3010B5222B32D18168836AB1F543
