:020000040800F2
:100000000050002045240008B9070008BB0700087D
:10001000BD070008BF070008C10700080000000076
:10002000000000000000000000000000C3070008FE
:10003000C507000800000000C7070008C90700083E
:100040008D2400088D2400088D2400088D240008CC
:100050008D2400088D2400088D2400088D240008BC
:100060008D2400088D2400088D240008CD07000889
:10007000D9070008E5070008F1070008FD07000898
:100080008D2400088D2400088D240008190800081C
:1000900015080008090800088D2400088D240008B0
:1000A0008D2400088D2400088D2400088D2400086C
:1000B0008D2400081D0800088D2400088D240008E8
:1000C0008D2400088D2400088D24000829080008CC
:1000D0008D2400088D2400088D2400088D2400083C
:1000E0008D2400088D2400088D24000800000000E5
:1000F0000000000000000000000000000000000000
:0C01000000000000000000005FF808F1A3
:10010C0010B5054C237833B9044B13B10448AFF345
:10011C0000800123237010BD0C00002000000000A3
:10012C00E824000808B5034B1BB103490348AFF39F
:10013C00008008BD0000000010000020E82400082A
:10014C002448254B30B503604FF4807383604FF423
:10015C00602300240125C361042385B0019402941B
:10016C000394057304754460036100F037FD08B116
:10017C0000F05EFA052301A9164801940295039339
:10018C0000F086FC08B100F053FA0123019302231E
:10019C0001A91048029300F07BFC08B100F048FA6A
:1001AC000E230193032301A90A48029300F070FC6B
:1001BC0008B100F03DFA0F230193042305480DEB21
:1001CC000301029300F064FC08B100F031FA05B0B1
:1001DC0030BD00BF2800002000240140102230B5A3
:1001EC00054689B00DEB0200002102F06FF92A6878
:1001FC00254B9A4245D1032403F56C439A6904A913
:10020C0042F400729A619A69204802F400720192D9
:10021C00019A9A6942F004029A619A6902F0040206
:10022C000292029A9A6942F010029A619B690494B4
:10023C0003F010030393039B059401F069F9302339
:10024C00134804A90493059401F062F9114C124B64
:10025C002046236000236360A3608023E3604FF497
:10026C00007323614FF4006363612023A3614FF497
:10027C000053E36101F040F808B100F0D9F92C62A9
:10028C00656209B030BD00BF002401400008014088
:10029C0000100140580000200800024008B54FF043
:1002AC00100E0B480B4B80E8084000238360C360A2
:1002BC0003614361037643768376C3760377437792
:1002CC0000F00CFD18B1BDE8084000F0B1B908BD54
:1002DC009C0000200064004010B5044686B010223B
:1002EC00002102A802F0F2F82268214B9A423DD17B
:1002FC0003F5D633DA6902A942F00072DA61DA69E1
:10030C001C4802F000720092009A9A6942F00402B2
:10031C009A619B6903F004030193019B4FF4006302
:10032C00029301F0F5F84FF48053029302230393E8
:10033C00032302A90F48059301F0EAF800221320C9
:10034C00114600F081FF132000F0B2FF00221420B0
:10035C00114600F079FF142000F0AAFF00221520AE
:10036C00114600F071FF152000F0A2FF06B010BD81
:10037C0000640040000801400023064906480B6158
:10038C004B6040F24D230B600123CB610B6200F0FC
:10039C0020BD00BFC40000209C00002010B5094CFB
:1003AC008AB008AB6A46002100F0AAFD20464FF443
:1003BC00806101F094F94FF40061204601F08FF94F
:1003CC000AB010BD001001401A4B07B55A690B203A
:1003DC0042F001025A6100225B69114603F00103ED
:1003EC000193019B00F030FF0B2000F061FF002215
:1003FC000C20114600F028FF0C2000F059FF0022C1
:10040C000D20114600F020FF0D2000F051FF0022BE
:10041C000E20114600F018FF0E2000F049FF0022BC
:10042C000F20114600F010FF0F2000F041FF03B029
:10043C005DF804FB001002402DE9F04F4FF010095D
:10044C0089B04A4600210DEB090002F03FF8494BF8
:10045C00494E9A69494D42EA09029A619A693046B5
:10046C0002EA09020092009A9A6944F6C74142F0E6
:10047C0020029A619A69DFF80CB102F02002019215
:10048C00019A9A69002442F004029A619A694FF029
:10049C00010802F004020292029A9A69022742F0C1
:1004AC0008029A619B69002203F008030393039BE3
:1004BC0001F010F928460122042101F00BF928461D
:1004CC00002248F2081101F005F9002258464FF6B7
:1004DC00FF7101F0FFF84FF440530DEB090130466A
:1004EC0004930594069401F013F844F6C7430DEBFE
:1004FC000901304604934FF0030ACDF8148006949A
:10050C00079701F005F848F208330DEB0901304666
:10051C000493CDF814A000F0FBFF48F20C130DEB84
:10052C00090128460493CDF814800694079700F02F
:10053C00EFFF0DEB09012846CDF8109005940694B9
:10054C0000F0E6FF4FF6FF730DEB090158460493DC
:10055C00CDF814800694079700F0DAFF04230DEB16
:10056C00090107480493CDF814A000F0D1FF09B09D
:10057C00BDE8F08F0010024000100140000801405F
:10058C0000140140000C0140282270B594B00DEB12
:10059C000200002101F09AFF1422102402250126EA
:1005AC000DEB0200002101F091FF2246002101A871
:1005BC0001F08CFF0AA80F940A9500240E9601F006
:1005CC0097F80F23314605A80593069407940894D1
:1005DC00099401F067FA01A80195039401F020FB3E
:1005EC0014B070BD08B500F02FFAFFF7CDFFFFF780
:1005FC0023FFFFF7E9FEFFF7A3FDFFF74FFE00F027
:10060C0019F800F013F900F073F9FFF7B5FE0221A9
:10061C00054800F0EBFC044800F047FC4FF4806107
:10062C00024801F05CF8FEE79C000020001001403D
:10063C007047000008B54FF4827E0D480D4B4FF407
:10064C00007280E8084000238360C360036143614B
:10065C00C3610362436283620A238261C36201F055
:10066C0057FB18B1BDE80840FFF7E2BF08BD00BF5B
:10067C00EC0000200030014070B5064686B0102218
:10068C00002102A801F022FF3268314B9A425CD162
:10069C0003F560439A6902A942F480529A619A69FF
:1006AC002C4802F480520092009A9A69002542F07C
:1006BC0004029A619B69284C03F004030193019B8B
:1006CC00A0230293022303930323059300F020FF3E
:1006DC004023204802A902930395049500F018FFCB
:1006EC001E4B204684E828008023E3602023A3616E
:1006FC004FF48053A56025616561E36100F0FCFD5A
:10070C0008B1FFF795FF4FF0100C154BF4646662BF
:10071C00144C802284E808100023A36023616361D9
:10072C00A3614FF480532046E260E36100F0E4FDE6
:10073C0008B1FFF77DFF00222320B46411466662E6
:10074C0000F082FD232000F0B3FD06B070BD00BFA9
:10075C000030014000080140440100201C00024010
:10076C0030000240880100200E4B82B09A6942F0A2
:10077C0001029A619A6902F001020092009ADA6908
:10078C0042F08052DA61DB69074A03F0805301932F
:10079C00019B536823F0E06343F00073536002B095
:1007AC00704700BF00100240000001407047FEE798
:1007BC00FEE7FEE7FEE770477047704700F056B95A
:1007CC00014800F011BE00BF58000020014800F0A5
:1007DC000BBE00BF44010020014800F005BE00BF65
:1007EC0088010020014800F0FFBD00BF140200206A
:1007FC00014800F0F9BD00BF58020020014800F08C
:10080C0012BC00BF9C000020FFF7F8BFFFF7F6BF3B
:10081C00014801F056BB00BFCC010020014801F09B
:10082C00D1BA00BFEC0000207047000010B58CB0AE
:10083C001022002103A801F049FE1422002107A870
:10084C0001F044FE002340221848194901930293F9
:10085C0080E8060083604FF47A7203618023C260E3
:10086C00836101F009FC08B1FFF7E2FE4FF48053FD
:10087C0003A90E48039301F035FC08B1FFF7D8FE2D
:10088C00002407A909480794089401F011FD08B148
:10089C00FFF7CEFE01A905480194029401F030FD4A
:1008AC0008B1FFF7C5FE0CB010BD00BFCC01002095
:1008BC000004004007B50D4B02689A4212D103F5B3
:1008CC000333DA691D2042F00202DA610022DB698F
:1008DC00114603F002030193019B00F0B5FC1D20AF
:1008EC0000F0E6FC03B05DF804FB00BF0004004020
:1008FC0008B54FF4E13E0A480A4B0C2280E8084048
:10090C00002342618360C36003618361C36101F0B2
:10091C0065FD18B1BDE80840FFF78ABE08BD00BFF1
:10092C009C0200200038014070B5064686B01022AB
:10093C00002102A801F0CAFD32682B4B9A4251D11A
:10094C0003F558439A6902A942F480429A619A6964
:10095C00264802F480420092009A9A69002542F0DF
:10096C0004029A619B69224C03F004030193019BDE
:10097C004FF400730293022303930323059300F0B7
:10098C00C7FD4FF48063194802A90293039504959F
:10099C0000F0BEFD174B204684E828008023A5609C
:1009AC00E36025616561A561E56100F0A5FC08B116
:1009BC00FFF73EFE4FF0100C0F4B746366620F4C4A
:1009CC00802284E8081000232046A360E2602361A3
:1009DC006361A361E36100F08FFC08B1FFF728FEAF
:1009EC003463666206B070BD0038014000080140F7
:1009FC00580200205800024044000240140200201B
:100A0C0038B50E4B054618784FF47A73B3FBF0F3F8
:100A1C000B4A1068B0FBF3F000F058FC044658B9D0
:100A2C000F2D09D8024629464FF0FF3000F00CFC80
:100A3C00044B20461D6038BD012038BD0400002049
:100A4C000000002008000020074A08B513680320A6
:100A5C0043F01003136000F0E5FB0020FFF7D0FF1C
:100A6C00FFF782FE002008BD00200240034A044B21
:100A7C0011681B780B441360704700BFDC02002028
:100A8C0004000020014B1868704700BFDC020020F6
:100A9C00002373B5019390F82430012B74D00123FB
:100AAC004D6880F82430062D02684FEA85030C68E7
:100ABC0025D82B441F25566B053B9D4026EA050582
:100ACC0004FA03F32B435363092C4FEA44038D6858
:100ADC002FD907262344D1681E3B9E4021EA0601EC
:100AEC0005FA03F30B43D360A4F11003012B2BD9AC
:100AFC000023002280F82420184602B070BD0C2D73
:100B0C000BD82B441F25166B233B9D4026EA05056D
:100B1C0004FA03F32B431363D6E72B441F25D66A41
:100B2C00413B9D4026EA050504FA03F32B43D362AF
:100B3C00CAE70726116923449E4021EA060105FAFB
:100B4C0003F30B431361CFE7104B9A4216D1936812
:100B5C001B02CDD49368102C43F400039360C7D1CF
:100B6C000B4B0C4A1B68B3FBF2F20A235343019361
:100B7C00019B002BBCD0019B013BF8E7836A43F03F
:100B8C00200383620123B4E70223B5E7002401406C
:100B9C000000002040420F0038B5036804469A68F4
:100BAC00D20701D4002038BD9A6822F001029A6065
:100BBC00FFF768FF054623689B68DB07F2D5FFF754
:100BCC0061FF401B0228F6D9A36A012043F01003F1
:100BDC00A362E36A43F00103E36238BD70B50446D7
:100BEC00002871D0836A23B9C36280F82430FFF7E0
:100BFC00F5FA2046FFF7D0FFA36A13F0100FA36A93
:100C0C0064D1002862D1E16923F48853626823F02F
:100C1C00020343F002030A43A168A362237BB1F5EC
:100C2C00807F42EA430238D0012914BF06464FF4B4
:100C3C008076257D012D07D1002B30D1A369013B96
:100C4C0046EA433545F400662368B1F5807F5D685C
:100C5C0025F4694545EA06055D609E681D4D05EA6B
:100C6C00060545EA02059D6001D0012920D12169C4
:100C7C0001390905DD6A25F470052943D9629968A3
:100C8C00154B0B409A4215D10023E362A36A23F063
:100C9C00030343F00103A36270BD0E46C9E7A36AC8
:100CAC0043F02003A362E36A43F00103E362CBE762
:100CBC000021DFE7A36A23F0120343F01003A362C1
:100CCC00E36A43F00103E362012070BD43F01003BB
:100CDC00A362F9E7FDF7E1FFFE0E1FFF38B50446EE
:100CEC0000286ED090F820300BB9FFF7F5FA226887
:100CFC00136823F002031360FFF7C4FE0546236854
:100D0C005A68910751D41A6842F001021A60FFF731
:100D1C00B9FE054623685A68D20754D5227E0020B6
:100D2C00012A1A680CBF42F0800222F080021A607D
:100D3C00627E012A1A680CBF42F0400222F0400287
:100D4C001A60A27E012A1A680CBF42F0200222F01F
:100D5C0020021A60E27E012A1A680CBF22F01002EF
:100D6C0042F010021A60227F012A1A680CBF42F06E
:100D7C00080222F008021A60627F012A1A680CBF6E
:100D8C0042F0040222F004021A60E168A2680A43ED
:100D9C0021690A4361690A43616801390A43DA61CE
:100DAC000123606284F8203038BDFFF76BFE401BD6
:100DBC000A28A4D9636A43F400336362052384F8D8
:100DCC002030012038BDFFF75DFE401B0A28A1D959
:100DDC00F0E790F8203070B5013B012B5FD801246F
:100DEC0003684869D3F8002242F00102C3F80022DC
:100DFC0000F01F0204FA02F2D443D3F81C5225402F
:100E0C00C3F81C52CD6985BBD3F80C52CE68254073
:100E1C00C3F80C528D8803EBC00045EA0645C0F8B8
:100E2C0040528E680D8845EA0645C0F844528869E0
:100E3C0068BBD3F804022040C3F80402086950BB15
:100E4C00D3F814022040C3F81402096A00200129C7
:100E5C0002BFD3F81C120A43C3F81C22D3F8002299
:100E6C0022F00102C3F8002270BD012DDFD1D3F8AE
:100E7C000C520E681543C3F80C528D8803EBC0005E
:100E8C0045EA0645C0F840528E688D89CBE7D3F809
:100E9C0004021043D0E7D3F814021043D3E7436A9B
:100EAC0043F480234362012070BD38B590F82030A4
:100EBC000446012B1FD10223026880F820301368EE
:100ECC0023F001031360FFF7DDFD05462368586826
:100EDC0010F0010001D1606238BDFFF7D3FD401B5B
:100EEC000A28F3D9636A43F400336362052384F858
:100EFC002030012038BD436A43F400234362F8E7F5
:100F0C00F0B590F82040013C012C6BD8066841B933
:100F1C00F468A40707D1436A43F400134362012029
:100F2C00F0BD3469F5E70C013519D5F8B07107F04F
:100F3C0004079760002F4BD1D5F8B0717F0D176067
:100F4C00D5F8B071264407F00207D760D5F8B47114
:100F5C0007F00F071761D5F8B471D5F8B451C7F382
:100F6C0007272D0C97615561D6F8B8211A700268C5
:100F7C002244D2F8B821120A5A7002682244D2F8DC
:100F8C00B821120C9A7002682244D2F8B821120EC1
:100F9C00DA7002682244D2F8BC211A710268224429
:100FAC00D2F8BC21120A5A7102682244D2F8BC2130
:100FBC00120C9A7102681444D4F8BC21120EDA7126
:100FCC00036851B9DA6842F02002DA600020F0BD03
:100FDC00D5F8B071FF085760B2E71A6942F02002E9
:100FEC001A61F3E7436A43F4802397E790F82030C3
:100FFC00013B012B05D8026800205369194351614C
:10100C007047436A43F48023436201207047704762
:10101C00704770477047704770477047704770470C
:10102C007047704770472DE9F84F036805465E69B5
:10103C00D3F8049016F001049F68D3F80CB0D3F8E1
:10104C0010A0D3F8188022D017F0010407D0012289
:10105C00B9079A6040F1A380FFF7D9FF0024FB0584
:10106C0009D54FF480722B68B8059A6040F1A580C1
:10107C002846FFF7CDFFFB0309D54FF480322B68D0
:10108C00B8039A6040F1A7802846FFF7C2FF3307E8
:10109C0007D51BF0100F1FBF10222B6844F40074EF
:1010AC00DA60770708D51BF0080F05D008222B68EB
:1010BC002846DA60FFF7B1FFB00706D52B68DB686E
:1010CC00990702D02846FFF769F9720607D51AF07E
:1010DC00100F1FBF10222B6844F480641A61B306F2
:1010EC0008D51AF0080F05D008222B6828461A617B
:1010FC00FFF795FFF70606D52B681B69980702D0FA
:10110C002846FFF78BFFB10308D519F0100F05D057
:10111C0010222B6828465A60FFF782FFF20308D58D
:10112C0019F0080F05D008222B6828465A60FFF7E3
:10113C0078FF33042AD519F0040F2A6824D0F70558
:10114C0004D518F0010F18BF44F00104B00504D504
:10115C0018F0020F18BF44F00204710504D518F002
:10116C00040F18BF44F0040433050DD518F07003B8
:10117C000AD0302B4CD03CD8102B43D0202B44D051
:10118C00936923F070039361042353602CB16B6A51
:10119C0028461C436C62FFF745FFBDE8F88F7A07C1
:1011AC0005D417F0080405D1FFF734FF57E74FF4C7
:1011BC00006454E74FF4805451E7790502D544F4A8
:1011CC00005458E73A0502D544F4804453E72846C6
:1011DC00FFF721FF4FE7790302D544F4004456E7AB
:1011EC003A0302D544F4803451E72846FFF714FF44
:1011FC004DE7502B0FD0602B10D0402BC0D144F0BA
:10120C004004BDE744F00804BAE744F01004B7E723
:10121C0044F02004B4E744F08004B1E744F4807453
:10122C00AEE70000074A0002D36800F4E06023F444
:10123C00E0631B041B0C43F0BF6343F40033034314
:10124C00D360704700ED00E0174B30B5DC68C4F399
:10125C000224C4F10703251D042B28BF0423062DEB
:10126C004FF0010598BF002405FA03F303F1FF3397
:10127C0088BF033C1940A14005FA04F4013C22400C
:10128C00002842EA01024FEA0212A9BF00F16040B5
:10129C00064BD2B200F56140BBBF00F00F00D2B2DA
:1012AC0080F800231A5430BD00ED00E014ED00E08E
:1012BC00002808DB0123420900F01F0003FA00F0AC
:1012CC00014B43F82200704700E100E00138B0F117
:1012DC00807F0AD2F021064B064A586082F8231010
:1012EC000020072298601A6070470120704700BFE9
:1012FC0010E000E000ED00E010B530B314220168FE
:10130C00134B84680B44B3FBF2F39B000364114B47
:10131C000A68C363436822F47F522343C46822F0F3
:10132C0030022343046923434469234384692343E0
:10133C00C469234313430B600122002380F821204E
:10134C00836380F82030184610BD012010BD00BF0B
:10135C00F8FFFDBF0000024090F8213010B5022BC1
:10136C0003D004238363012010BD03681A6822F0A4
:10137C000E021A601A6822F001021A60184A93428F
:10138C001FD0143293421ED0143293421DD014320B
:10139C0093421DD0143293421DD0143293420CBF91
:1013AC004FF480134FF080730E4A002453600123D6
:1013BC0080F82130436B80F820407BB19847204661
:1013CC0010BD0123F0E71023EEE74FF48073EBE739
:1013DC004FF48053E8E74FF48033E5E7184610BD2F
:1013EC00080002400000024070B40425C66B026C79
:1013FC003468036895402542196832D04D0730D5C2
:10140C001A6896065EBF1A6822F004021A603E4AF9
:10141C00934219D01432934218D01432934217D0FD
:10142C001432934217D01432934217D01432934291
:10143C000CBF4FF480034FF08063344A5360C36A8F
:10144C00002B5ED070BC18470423F6E74023F4E76A
:10145C004FF48063F1E74FF48043EEE74FF48023C1
:10146C00EBE702259540254235D08D0733D51A6818
:10147C00940606D41A6822F00A021A60012280F837
:10148C002120214A934219D01432934218D014329D
:10149C00934217D01432934217D01432934217D080
:1014AC00143293420CBF4FF400134FF00073174AE1
:1014BC005360002380F82030836AC1E70223F6E7EB
:1014CC002023F4E74FF40073F1E74FF40053EEE7F9
:1014DC004FF40033EBE708259540254211D009075E
:1014EC000FD5196821F00E011960012303FA02F2DD
:1014FC007260836380F82130002380F82030036B06
:10150C009EE770BC704700BF08000240000002401C
:10151C002DE9F74F00242646664BDFF8A8E1DFF8EB
:10152C00A8C10A6832FA06F502D103B0BDE8F08F03
:10153C004FF0010808FA06F802EA080290457FD13C
:10154C004D68122D00F0AA8000F28380022D00F06D
:10155C00A28077D8002D00F08980012D00F09980B1
:10156C004FF00F09FF2A93BF824606F18045083DD4
:10157C00D0F800B092BFB500D0F804B0AD0009FAB5
:10158C0005F82BEA080804FA05F588BF00F1040AEF
:10159C0048EA0505CAF80050D1F804A01AF0805F9B
:1015AC004ED0454D444FAD6926F0030845F001057A
:1015BC00BD61BD6908F1804805F00105019508F58C
:1015CC00803806F0030B019D4FEA8B0BD8F80850BE
:1015DC0009FA0BF925EA0909384DA84263D005F53B
:1015EC008065A84261D005F58065A8425FD005F5FD
:1015FC008065A8420CBF0325042505FA0BF545EAC6
:10160C000905C8F808501D681AF4803F14BF15432B
:10161C0095431D605D681AF4003F14BF1543954354
:10162C005D609D681AF4801F14BF154395439D603F
:10163C00DD681AF4001F14BF2A4325EA0202DA609F
:10164C0001366EE7032D22D0112D89D1CC680434DC
:10165C0086E71B4FBD4209D012D8DFF870904D457C
:10166C0004D009F580394D457FF47AAF8C68C4B14C
:10167C00012C0CBFC0F81080C0F8148008246FE750
:10168C007545F3D06545F1D0DFF84490EBE70024C5
:10169C0066E7CC6864E7CC68083461E7CC680C3446
:1016AC005EE704245CE70025A7E70125A5E70225F2
:1016BC00A3E700BF000401400010024000080140F5
:1016CC000000211000003110000032100000111039
:1016DC00000022100AB1016170470904FBE7C368DE
:1016EC0003EA010221EA030141EA02410161704768
:1016FC002DE9F341054608B901203CE00368DB07FE
:10170C0010D42B689F075DD42B68190700F19480C7
:10171C002B685A0700F1BE80E869002840F02C8144
:10172C00002028E08F4C636803F00C03042B07D0D7
:10173C00636803F00C03082B09D16368DE0306D53C
:10174C0023689C03DDD56B68002BDAD1D4E76B687A
:10175C00B3F5803F12D1236843F480332360FFF745
:10176C0091F9064623689803CBD4FFF78BF9801BBD
:10177C006428F7D9032002B0BDE8F0819BB9236837
:10178C0023F480332360236823F480232360FFF742
:10179C0079F9064623689903B3D5FFF773F9801BD3
:1017AC006428F7D9E6E7B3F5A02F236803D143F4F7
:1017BC0080232360CFE723F480332360236823F452
:1017CC008023CBE7674C636813F00C0F07D063687A
:1017DC0003F00C03082B10D16368DA030DD42368D3
:1017EC009B0702D52B69012B86D123686A6923F0EC
:1017FC00F80343EAC203236086E72A695A4B6AB1AD
:10180C0001221A60FFF73EF9064623689F07ECD4C5
:10181C00FFF738F9801B0228F7D9ABE71A60FFF7FE
:10182C0031F90646236898077FF56EAFFFF72AF962
:10183C00801B0228F6D99DE7AA694A4C4B4BDAB1BA
:10184C0001221A60FFF71EF90646636A9B070DD545
:10185C004FF4FA52464B1B68B3FBF2F3019300BFF3
:10186C00019B5A1E0192002BF9D151E7FFF70AF99F
:10187C00801B0228E9D97DE71A60FFF703F90646B9
:10188C00636A9F077FF544AFFFF7FCF8801B0228C3
:10189C00F6D96FE7334CE369D80024D40127E36908
:1018AC0043F08053E361E36903F080530093009BA2
:1018BC00304E3368D90518D5EB68012B26D1236A35
:1018CC0043F001032362FFF7DDF841F288368046CE
:1018DC00236A9B073FD5002F3FF41EAFE36923F02B
:1018EC008053E36118E70027E2E7336843F4807321
:1018FC003360FFF7C7F880463368DA05DCD4FFF7AE
:10190C00C1F8A0EB08006428F6D933E7ABB9236A19
:10191C0041F2883823F001032362236A23F0040385
:10192C002362FFF7AFF80646236A9807D3D5FFF773
:10193C00A9F8801B4045F7D91CE7052B236A03D176
:10194C0043F004032362BAE723F001032362236A02
:10195C0023F00403B6E7FFF795F8A0EB0800B042BC
:10196C00B6D907E700100240000042428004424210
:10197C0000000020007000402A4B5A681C4602F000
:10198C000C02082A3DD00023274E022833602BD1AD
:10199C00FFF778F80746236899011FD42B6AB3F533
:1019AC00803F05D16268A96822F400320A43626064
:1019BC00696A62680B4322F4741213436360012357
:1019CC003360FFF75FF8054623689A013FF5A8AE30
:1019DC00FFF758F8401B0228F6D9CBE6FFF752F870
:1019EC00C01B0228D7D9C5E6FFF74CF8054623687B
:1019FC009B017FF595AEFFF745F8401B0228F6D901
:101A0C00B8E601283FF4B7AE58682B6A00F4803270
:101A1C009A427FF471AE6B6A00F47010C01A18BF52
:101A2C000120A8E6001002406000424230B5194B7C
:101A3C0087B002AC03F110052246186859680833C8
:101A4C0003C2AB421446F7D101238DF804300223B4
:101A5C0011498DF805304B6803F00C02082A17D198
:101A6C00C3F3834206A80244DB0312F8102C0CD5F6
:101A7C004B680A48C3F34043504306AA134413F877
:101A8C00143CB0FBF3F007B030BD05485043FAE707
:101A9C000248F8E7002500080010024000127A0006
:101AAC0000093D002DE9F0410D46044610B9012016
:101ABC00BDE8F081454A136803F007038B4229D334
:101ACC0021688E0731D4CA0744D4404A136803F006
:101ADC0007039D4267D322683D4D12F0040F6ED16F
:101AEC00130706D56B68226923F4605343EAC203DB
:101AFC006B60FFF79BFF6B68364AC3F30313D35C31
:101B0C00D840354B1860354B1868FEF779FF00202C
:101B1C00BDE8F081136823F007030B4313601368CF
:101B2C0003F007039942C2D1CAE7294B11F0040F05
:101B3C001EBF5A6842F4E0625A60080742BF5A68F6
:101B4C0042F460525A605A68A06822F0F0020243D4
:101B5C005A60B8E762681E4E012A33681BD113F431
:101B6C00003FA4D0736841F2883823F00303134379
:101B7C007360FEF787FF07467368626803F00C0317
:101B8C00B3EB820FA1D0FEF77DFFC01B4045F3D90C
:101B9C000320BDE8F081022A02D113F0007FE0E7B8
:101BAC0013F0020FDDE7136823F007032B431360D8
:101BBC00136803F007039D427FF479AF8BE76B68E2
:101BCC00E16823F4E0630B436B6089E7002002407B
:101BDC000010024010250008000000200800002022
:101BEC00044B054A5B68C3F30223D35C034A1068B9
:101BFC00D84070470010024020250008000000204B
:101C0C00044B054A5B68C3F3C223D35C034A1068D8
:101C1C00D84070470010024020250008000000202A
:101C2C0003682DE9F341D907054620D5354CE36906
:101C3C00DA0032D40127E36943F08053E361E369AE
:101C4C0003F080530193019B2F4E3368DB0526D59F
:101C5C00236A13F4407336D1236A6A6823F4407301
:101C6C00134323621FB1E36923F08053E3612868B7
:101C7C00830706D5234AA968536823F440430B43D2
:101C8C00536010F010001BD01E4AE9685368002006
:101C9C0023F480030B43536012E00027D4E733682E
:101CAC0043F480733360FEF7EDFE80463368D8054D
:101CBC00CED4FEF7E7FEA0EB08006428F6D903208B
:101CCC0002B0BDE8F0816A6802F440729342C3D05E
:101CDC0001200E4A236A1060002023F4407110602A
:101CEC002162D907B8D5FEF7CDFE41F288380646F9
:101CFC00236A9A07B0D4FEF7C5FE801B4045F7D97E
:101D0C00DDE700BF0010024000700040400442427A
:101D1C0010B50446002851D0436A002B4AD14268C2
:101D2C00B2F5827F00D0C3610023A36294F85130D6
:101D3C0003F0FF0223B984F850202046FEF79CFCE8
:101D4C000223226884F851301368A06823F0400302
:101D5C001360636800F4044003F482730343E06887
:101D6C00A16900F400600343206900F00200034302
:101D7C00606900F00100034301F400700343E06963
:101D8C00090C00F038000343206A01F0040100F054
:101D9C0080000343A06A00F40050034313605160B9
:101DAC00D369002023F40063D3610123606584F8B8
:101DBC00513010BD002303614361B5E7012010BD14
:101DCC0070470000036830B559689A6885B002F016
:101DDC004105012D044605D14D0603D5036C9847EA
:101DEC0005B030BD900704D50D0602D5636C2046B6
:101DFC00F5E712F0600FF3D08806F1D555060ED535
:101E0C0094F851000025032841D0606D40F0040087
:101E1C0060650195D86801909868019001989006CA
:101E2C000CD5626D42F001026265002203929A6841
:101E3C0003921A6822F040021A60039A626D002A1B
:101E4C00CED05A6822F0E0025A60012284F8512068
:101E5C008A0723D05A68E06C22F003025A6040B122
:101E6C00104B4363FFF778FA18B1636D43F04003EE
:101E7C006365A06C0028B3D00A4B4363FFF76CFA80
:101E8C000028ADD0636D43F040036365A8E702956D
:101E9C00DA6802929B680293029BA1E72046FFF747
:101EAC008FFF9DE7B51E000808B50023406AC38765
:101EBC00C386FFF785FF08BD7047704770477047B2
:101ECC007047036810B51A69044691070ED5DA6895
:101EDC0092070BD56FF002021A6101229B690277FF
:101EEC009B0777D0FFF7EAFF0023237723681A6953
:101EFC00500710D5DA6851070DD56FF004021A613E
:101F0C0002229B69227713F4407F204668D0FFF7AA
:101F1C00D5FF0023237723681A6912070FD5DA68D7
:101F2C0010070CD56FF008021A610422DB692277C6
:101F3C00990720465AD0FFF7C1FF00232377236867
:101F4C001A69D20610D5DA68D0060DD56FF01002DA
:101F5C001A610822DB69227713F4407F20464BD0AC
:101F6C00FFF7ACFF0023237723681A69D10708D544
:101F7C00DA68D20705D56FF0010220461A61FFF727
:101F8C009BFF23681A69100608D5DA68110605D577
:101F9C006FF0800220461A6100F0E5F923681A6997
:101FAC00520608D5DA68500605D56FF04002204677
:101FBC001A61FFF785FF23681A69910622D5DA6842
:101FCC0092061FD56FF020022046BDE810401A6122
:101FDC0000F0C8B9FFF771FF2046FFF770FF83E7E9
:101FEC00FFF76BFF2046FFF76AFF92E7FFF765FFED
:101FFC002046FFF764FFA0E7FFF75FFF2046FFF7DF
:10200C005EFFAFE710BD00001A4A036890420AD089
:10201C00B0F1804F07D0A2F59432904203D002F574
:10202C008062904215D14A6823F070031343114A21
:10203C0090420AD0B0F1804F07D0A2F59432904272
:10204C0003D002F58062904203D1CA6823F4407336
:10205C0013434A6923F08003134303608B68C36204
:10206C000B688362034B984204BF0B690363012323
:10207C0043617047002C014010B5044630B390F812
:10208C003D3003F0FF021BB980F83C20FEF712FC38
:10209C000223206884F83D30211DFFF7B5FF012392
:1020AC00002084F8463084F83E3084F83F3084F8C1
:1020BC00403084F8413084F8423084F8433084F85E
:1020CC00443084F8453084F83D3010BD012010BDFB
:1020DC0010B584680A4324F47F4442EA0323234363
:1020EC00836010BD90F83C3070B5012B04464FF066
:1020FC00020019D0012384F83D00206884F83C309C
:10210C00836823F47F4323F0770383600B68402BB1
:10211C0065D015D8102B0CD007D853B10123002053
:10212C0084F83D3084F83C0070BD202B01D0302B5E
:10213C00F4D1826843F0070322F0700213431AE0D3
:10214C00602B34D019D8502BE8D14A68CE68016A7C
:10215C00056A21F00A0125F00105056283690A432D
:10216C0023F0F00343EA061383610262836823F0D1
:10217C00700343F057038360D0E7702B0CD0B3F59A
:10218C00005FCBD1CB684A688968FFF7A1FF226852
:10219C00936843F4804308E0CB684A688968FFF78A
:1021AC0097FF2268936843F077039360B6E74D6816
:1021BC00CE68016A21F0100101628269036A22F47F
:1021CC00704223F0A00343EA051342EA063282610F
:1021DC000362836823F0700343F06703CBE74A681C
:1021EC00CE68016A056A21F00A0125F00105056235
:1021FC0083690A4323F0F00343EA06138361026206
:10220C00836823F0700343F04703B4E7006838B5E4
:10221C0083684A6823F070030C68134323F00703A8
:10222C002343502A83601ED003D8402A0BD00020B1
:10223C0038BD602A27D0702AF9D10B698A68C96821
:10224C00FFF746FFF3E7052C30D0026A036A0969F1
:10225C0023F001030362836923F0F00343EA0113C3
:10226C0083610262E3E78A680D69016A046A21F0FE
:10227C000A0124F00104046283690A4323F0F00389
:10228C0043EA0513ECE78C680D69016A21F0100133
:10229C0001628269036A22F4704223F0A00342EACD
:1022AC00053243EA041382610362C0E7012038BDA2
:1022BC0038B590F83C300446012B4FF002031CD08B
:1022CC00012580F83D3080F83C50FFF79FFF30B17E
:1022DC00002384F83D5084F83C30284638BD2368F0
:1022EC00DA6822F04002DA60DA6822F48042DA60BE
:1022FC0084F83D5084F83C0038BD184638BD0000C9
:10230C0090F83C3030B5012B4FF0020325D0012260
:10231C0080F83D3003680D685C6880F83C2024F040
:10232C0070042C439A685C600D4CA3420AD0B3F144
:10233C00804F07D0A4F59434A34203D004F58064F5
:10234C00A34204D1496822F080020A439A60012317
:10235C0080F83D30002380F83C30184630BD00BF7B
:10236C00002C01407047704738B504460368C168BB
:10237C001A6922F440520A431A6182680069D968CA
:10238C000243606921F4B05121F00C0102430A436D
:10239C00DA605A69A16922F440720A435A610E4A02
:1023AC00934215D1FFF72CFC192358436368642220
:1023BC009B00B0FBF3F0B0FBF2F102FB11031B012D
:1023CC003233B3FBF2F3256803EB0113AB6038BD7A
:1023DC00FFF706FCE8E700BF0038014010B50446E3
:1023EC0040B390F8393003F0FF021BB980F8382065
:1023FC00FEF79AFA2423226884F83930D3682046F1
:10240C0023F40053D360FFF7AFFF236800201A6951
:10241C0022F490421A615A6922F02A025A61DA684F
:10242C0042F40052DA602023E06384F8393084F8F7
:10243C003A3010BD012010BD002103E00B4B5B585E
:10244C00435004310A480B4B42189A42F6D30A4ABD
:10245C0002E0002342F8043B084B9A42F9D3FEF702
:10246C00E3F900F00FF8FEF7BDF8704730250008CF
:10247C00000000200C0000200C000020E0020020D6
:10248C00FEE7000070B500250C4E0D4CA41BA410EB
:10249C00A54209D100F022F800250A4E0A4CA41BD3
:1024AC00A410A54205D170BD56F8253098470135CA
:1024BC00EEE756F8253098470135F2E72825000855
:1024CC0028250008282500082C250008034602446E
:1024DC00934200D1704703F8011BF9E7F8B500BF30
:1024EC00F8BC08BC9E467047F8B500BFF8BC08BCE9
:0424FC009E46704741
:1025000002030405060708090A0B0C0D0E0F101034
:102510000000000000000000010203040607080993
:082520000000000001020304A9
:042528003101000875
:04252C000D01000895
:0C2530000024F400010000001000000076
:040000050800244586
:00000001FF
