:020000040800F2
:1000000000500020D52F00082D1900082F190008D6
:1000100031190008331900083519000800000000E4
:100020000000000000000000000000003719000878
:1000300039190008000000003B1900083D190008AC
:100040001D3000081D3000081D3000081D3000085C
:100050001D3000081D3000081D300008411900083F
:100060001D3000081D3000081D3000081D3000083C
:100070001D3000081D3000081D3000081D3000082C
:100080001D3000081D3000081D30000859190008F7
:1000900055190008491900081D3000081D300008D6
:1000A0001D3000081D3000081D3000081D300008FC
:1000B0001D3000085D1900081D3000081D300008C3
:1000C0001D3000081D3000081D3000081D300008DC
:1000D0001D3000081D300008691900081D30000897
:1000E0001D3000081D3000081D3000080000000011
:1000F0000000000000000000000000000000000000
:0C01000000000000000000005FF808F1A3
:10010C0010B5054C237833B9044B13B10448AFF345
:10011C0000800123237010BD7C0000200000000033
:10012C009836000808B5034B1BB103490348AFF3DD
:10013C00008008BD000000008000002098360008F8
:10014C0010F8012B11F8013B012A28BF9A42F7D075
:10015C00D01A704703685A004CBF43F0004323F099
:10016C0000431844704700BF61B32DE9F84F01F10B
:10017C00FF3A90460646D146002707EB090404EBEC
:10018C00D4746410E50071190846FFF7E3FFA2452B
:10019C00834605F10800304409D0FFF7DBFFC34567
:1001AC0000F1FF3005D8404509D2671CE5E7C3458F
:1001BC0005D9A74202D004F1FF39DEE70021084639
:1001CC00BDE8F88F08467047012807D0022807D0F1
:1001DC00044B00280CBF184600207047024870479B
:1001EC0002487047E5080008E9080008ED08000817
:1001FC0030B5254B83B004468D1E73B301A9284638
:10020C00AFF3008018B301992A46FFF7ADFF014602
:10021C00E8B1FFF79FFF4B68A064012B11D0002BB6
:10022C0022DB081DFFF796FF0023E06423650368BB
:10023C00002B1EDBFFF78EFF00232061184603B056
:10024C0030BD052300221846226103B030BD0923BE
:10025C0000221846226103B030BD0C4B0C491846E5
:10026C00C91AC9100191CFE70123081DE064236569
:10027C00DDE7C3F30360FFF7A7FF0028206114BF7D
:10028C0000230923DAE700BF00000000083900084A
:10029C00D8390008036810B5DA07044606D49B0762
:1002AC0000F1480009D500F057FC2368590709D51F
:1002BC001A070ED5DB0613D510BD00F045FC2368DC
:1002CC005907F5D404F1D00000F04EFC23681A074E
:1002DC00F0D404F5A87000F04FFC2368DB06EBD4D7
:1002EC0004F5E870BDE8104000F08ABC036803B167
:1002FC0003441846704700BF09207047704700BF81
:10030C0070B504460D4608E02A6C236962612146EB
:10031C002A4601209847082808D1296C2046FFF767
:10032C0067FF06460028EFD003F0C2F80728FBD180
:10033C003046296CFFF7E2FF281D00F0F9FB00BFE7
:10034C002DE9F04705460027ADF5727D03AC0E1D77
:10035C0092460FCE0FC40FCE0FC40FCE0FC496E82B
:10036C000F00D5F80C80D5F8189084E80F0002AC7B
:10037C002846216C2760FFF73BFFBAF1000F0746B8
:10038C0014BF0A2609267FB1A36B46F010018DE835
:10039C0010022A46636401202B46C04778BB3846BE
:1003AC000DF5727DBDE8F087236C4FF4F0726B6134
:1003BC0021467AA803F05EF92B697AAA29463046C1
:1003CC009847889B82468DE81002314663642A4622
:1003DC002B460120C04790B94FF4F0727AA9204601
:1003EC0003F048F9BAF1080F06D1216C2846FFF743
:1003FC00FFFE09260746C6E7BAF1070F05D0092705
:10040C0038460DF5727DBDE8F0873846216CFFF754
:10041C0075FF03A800F08CFB406C7047F0B54FF0F3
:10042C00FF3ECB6BF9B00B640E1D01AD0F460446BD
:10043C000FCE0FC50FCE0FC50FCE0FC596E80F0010
:10044C0085E80F00CDF800E006E023696A462146F6
:10045C0098470828054608D110992046FFF7C8FE92
:10046C000028F2D0092079B0F0BD6846FFF712FFE2
:10047C00062DF7D139462046FFF742FF30B4DD6B2D
:10048C00C160826119461D64002230BC58E700BF70
:10049C0070B54369C6680B6426B10122FFF750FFA3
:1004AC0003F006F803690A4604460D46014602208D
:1004BC009847072807D0082803D129462046FFF77C
:1004CC001FFF02F0F5FF3046296CFFF717FF281DC0
:1004DC0000F02EFBC2682AB110B4CC6B00220C6465
:1004EC0010BC2DE79AE700BF704700BF836813B1BB
:1004FC00014601201847704700B5042907D8DFE8EA
:10050C0001F00309060909000BB90F2A05D90220CD
:10051C005DF804FB01205DF804FB00EB82025268DD
:10052C001846019B1A605DF804FB00BF002310B550
:10053C0084B003AC0A4600941946FFF7DDFF03981C
:10054C0004B010BD00B5042907D8DFE801F0030999
:10055C00060909000BB90F2A05D902205DF804FB26
:10056C0001205DF804FB019900EB82020968184632
:10057C0051605DF804FB00BF002310B584B004ACDF
:10058C0044F8042D00940A461946FFF7DBFF04B02B
:10059C0010BD00BFF0B54FF0FF3ED36BADF50F7D36
:1005AC001364151D17AC07460E460FCD0FC40FCDA7
:1005BC000FC40FCD0FC495E80F0084E80F00CDF8E1
:1005CC0058E012E00C2116A86A46FFF7D5FF314619
:1005DC0016A8B84778B9049B16AA6946082098470C
:1005EC000528044608D0092805D026996846FFF747
:1005FC00FFFD0028E6D0092416A8FFF74BFE204685
:10060C000DF50F7DF0BD00BF2DE9F04FCC6C914680
:10061C0022688BB004340D460792089400F0030B4B
:10062C001E46002B60D10323120207928DF8256021
:10063C008DF824302B6DBBF1020F08BFAC6B13F09F
:10064C00010340D1019300F008030393D4F8008018
:10065C00B8F1000F39D0022E43D0B4F8008067886F
:10066C000434AB6C27F0010A0F2148469A44FFF77B
:10067C005DFF824533D828F001039A4450452CBFC6
:10068C00002001207F0007F0020708F0010847EA6C
:10069C000807012F3ED035D3022F1CD1236823F03D
:1006AC0000420292BBF1000F76D128B103990029C8
:1006BC007ED0002A00F0A680002B77DB029B013352
:1006CC0004EB8304C2E700230193022E3EDDFFF707
:1006DC0013FE002840D009200BB0BDE8F08F00209D
:1006EC00D0E767680834BCE7022BA3DC0221130CAB
:1006FC008DF825301204DBB204EB830407928DF8DD
:10070C00241097E7BBF1000F02D0002840F0BD8009
:10071C0004349BE7BBF1000F25D1A8B194E80C0081
:10072C00991C4FEAD272D6D005F1580101330691CB
:10073C0000F0A380201DFFF7D9FD06AB014628462B
:10074C0002F032FD002877D108347FE707A948462C
:10075C0000F0F0FA0028BED1019B002B5CD10820E0
:10076C000BB0BDE8F08F0D2148462F6AFFF7DEFE77
:10077C008742E9D1AB6A9C42E6D12046FFF7EAFCFE
:10078C000F2102464846FFF7F7FE48462A4600214D
:10079C00FFF7F2FE07209FE70D2148462F6AFFF76F
:1007AC00C5FE874258D02368002B87DA043485E7CE
:1007BC00029B3BB305F15803271DCDF810B0DDF8B3
:1007CC000C80A346DDF808A01C46059602E0B24555
:1007DC00B04616D038460694FFF788FD06AB0146A6
:1007EC000022284602F0E0FC08F10106043700283C
:1007FC00EDD0029B5C464345DDF810B0059ED2D18E
:10080C0000E05C4648460D21FFF790FE069B2862EF
:10081C00AC626B6206205FE70F214846FFF786FE4D
:10082C000E2102464846FFF7A7FE4846294A0F21EB
:10083C00FFF7A2FE07204FE707460D214846FFF7BA
:10084C0075FE022F28621DD12B46069A43F82C2FD9
:10085C006B62AC6206203FE7AB6A9C42A3D10422D8
:10086C0000270299A318A962EF622A636B632368BD
:10087C00BB421DDB0123019320E748460D21FFF706
:10088C0055FE2862069B6B62E3E72046FFF762FC8D
:10089C0004340646AC63284602F0E4FC00283FF41E
:1008AC001AAF484632460F21FFF766FE072013E7C2
:1008BC000846013004EB8000FFF74CFC0F21024688
:1008CC004846FFF759FE48462A463946FFF754FE7C
:1008DC00072001E7FF330008002395E6012393E688
:1008EC00022391E6F0B50446C5B004290DD8DFE823
:1008FC0001F055030C310F00012B4FEA124695B253
:10090C0064D17219102A40F29D80022045B0F0BDCE
:10091C00002BFAD1102AF8D82368D80600F1C88029
:10092C0022AE30460192012500F074F90023A06B31
:10093C00019A05FA03F1114203D00168043046F81C
:10094C0023100133042BF4D1A063304600F058F986
:10095C000020DBE7032BD8D1150C97B2EB19102B29
:10096C00D3D823681E0700F1B78022AE304600F0C2
:10097C0025F9ED00A06B5FB1043D0346711900EB46
:10098C00C70053F8042B834241F8042FF9D11846C1
:10099C00A063304600F0F0F80020B7E7002BB4D18C
:1009AC000127A56B96B2201D07FA03F1314203F122
:1009BC00010302D0296804350160102B00F10400FA
:1009CC00F2D112F400503BD1A5639FE7052B9CD1CB
:1009DC007719202F99D80F2E66D92F46002D3AD192
:1009EC002A460027002AA06B72DD00EBC2020146EA
:1009FC0044A800EBC6008C3851F8045B914240F8D7
:100A0C00045FF9D1084697B1102E324638BF102238
:100A1C0044A901EBC202A2F5C4727900043A00EBBE
:100A2C00810150F8045B884242F8045FF9D1012B34
:100A3C0048D00F2EA16333D917B102A800F094F857
:100A4C00002063E70F2E3FF660AF00272268D10726
:100A5C0017D4002F60D02268510745D4012B4DD0FC
:100A6C000F2E06D822A8019300F07AF8019B002FD4
:100A7C00B6D002A8019300F07BF8019BC6F11002DE
:100A8C00B0E722F00101052B2160019320463BD0F9
:100A9C0022F0030240F8482B00F05AF8019BD8E7EB
:100AAC0022A800F059F8C7E7102FCED9103FCDE798
:100ABC0023F01003236004F5E870019200F0AAF80B
:100ACC00019A2DE70431A16322A800F03DF8B7E7A5
:100ADC00002F99D10146AAE723F00803236004F5FF
:100AEC00A87000F06BF840E7204622F0040240F8B2
:100AFC00D02B019300F03CF8019BAFE722A80193A7
:100B0C0000F026F8019BB9E741F0020140F8481BC0
:100B1C0000F026F8019B9CE7012B03D00F2E3FF62B
:100B2C005FAF9FE722A8019300F012F8019B57E7F3
:100B3C0000F1340191E838009C46A6464CF8045D5F
:100B4C0090E8FF0FE54600BD90EC210B704700BF0D
:100B5C0080EC210B704700BF90EC200B704700BF5E
:100B6C0080EC200B704700BFD0EC200B704700BF0F
:100B7C00C0EC200B704700BFF0EC0201F0EC02114E
:100B8C00F0EC0221F0EC0231F0EC0241F0EC0251FD
:100B9C00F0EC0261F0EC0271F0EC0281F0EC0291ED
:100BAC00F0EC02A1F0EC02B1F0EC02C1F0EC02D1DD
:100BBC00F0EC02E1F0EC02F1704700BFE0EC020156
:100BCC00E0EC0211E0EC0221E0EC0231E0EC02413D
:100BDC00E0EC0251E0EC0261E0EC0271E0EC02812D
:100BEC00E0EC0291E0EC02A1E0EC02B1E0EC02C11D
:100BFC00E0EC02D1E0EC02E1E0EC02F1704700BF66
:100C0C00B0FC0181B0FC0191B0FC01A1B0FC01B1C0
:100C1C00704700BFA0FC0181A0FC0191A0FC01A1C8
:100C2C00A0FC01B1704700BFEC4600B52DE90050A7
:100C3C002DE9FF1F4FF000032DE90C0001A9FFF770
:100C4C00EDFBDDF840E012B0704700BFEC4600B59C
:100C5C002DE900502DE9FF1F4FF000032DE90C008A
:100C6C0001A9FFF715FCDDF840E012B0704700BF9A
:100C7C00EC4600B52DE900502DE9FF1F4FF00003A5
:100C8C002DE90C0001A9FFF725FCDDF840E012B0BE
:100C9C00704700BFEC4600B52DE900502DE9FF1F51
:100CAC004FF000032DE90C0001ABFFF7E7FBDDF87B
:100CBC0040E012B0704700BFEC4600B52DE9005083
:100CCC002DE9FF1F4FF000032DE90C0001AAFFF7DF
:100CDC0061FCDDF840E012B0704700BF027A1AB92F
:100CEC00437A43B9B02070470368013A02721A0282
:100CFC000260180E704703214268013B10B4437226
:100D0C001368141D01721A024460026010BC180EA4
:100D1C00704700BF002300B585B003AA00921946A6
:100D2C000C22FFF7E9FB039805B05DF804FB00BF4C
:100D3C00F0E700BF2DE9F04306460F464FF00008E0
:100D4C0085B03846FFF7CAFFB028044623D0050605
:100D5C0027D400230DF10C09194685000D22CDF87E
:100D6C0000903046FFF7C8FBEDB2039B600605F11F
:100D7C0004054CBF5D1BED1800230D221946CDF860
:100D8C00009030460395FFF7DDFB3846FFF7A6FFD2
:100D9C00B0280446DBD1B8F1000F00F0948000209D
:100DAC001CE000F0F003802B5CD0902B19D0A02B12
:100DBC002CD0B02B3ED0C02B6BD000F0F803D02B36
:100DCC000BD100F00702013242F40022052301216D
:100DDC003046FFF787FD0028B3D0092005B0BDE8E9
:100DEC00F08300F00D030D2BF7D0002303AD00F0C2
:100DFC000F02194600953046FFF77EFB0023009545
:100E0C0019460D223046FFF79DFB9AE7C3434FF47A
:100E1C007F6203F007031A410023010702F47F628B
:100E2C0048BF42F4804219463046FFF75BFD00286C
:100E3C00D3D186E7B12857D0B22868D0B32800F0B8
:100E4C00958000F0FC03B42BC7D0012300F00702FF
:100E5C001A4442F4002219463046FFF743FD00289D
:100E6C00BBD16EE73846FFF739FF24020443B4F5D3
:100E7C00004FB2D000232401A2B219463046FFF72E
:100E8C0031FD0028A9D114F4004F18BF4FF0010810
:100E9C0057E7C6287DD0C72800F0868000F0F803FD
:100EAC00C02B00F09480C82800F09F80C92894D1F2
:100EBC003846FFF713FF020300F00F0002F4702214
:100ECC000130024382E703AC43460E2241460094B4
:100EDC003046FFF711FB0094304643460F22414643
:100EEC00FFF730FB404679E73846FFF7F7FE00285E
:100EFC003FF473AF10F0F0037FF46FAF0246194666
:100F0C003046FFF7EFFC00287FF467AF19E70023AA
:100F1C000DF10C090D221946CDF800903046FFF763
:100F2C00EBFA3846FFF7DAFE02064FF002040CD556
:100F3C00039B00F07F00A040034438460393FFF767
:100F4C00CDFE030604F10704F2D40023039900F04C
:100F5C007F02A24001F501718C18CDF80090194662
:100F6C000D2230460394FFF7EDFAEAE63846FFF718
:100F7C00B5FE0123010300F00F0001F47021C2182B
:100F8C000A4330461946FFF7ADFC00287FF425AF25
:100F9C00D7E63846FFF7A2FE010300F00F0003234B
:100FAC0001F47021421CEBE73846FFF797FE00284E
:100FBC003FF413AF10F0F0037FF40FAF024604219F
:100FCC003046FFF78FFC00287FF407AFB9E6032308
:100FDC0000F00F02013242F4202219463046FFF78E
:100FEC0081FC00287FF4F9AEABE63846FFF776FEBD
:100FFC0000F0F00200F00F031032013343EA02322A
:10100C00E4E600BF30B503240D46C36C85B05A68C6
:10101C008DF80C40DC791202083301A928460192A4
:10102C008DF80D400293FFF785FE05B030BD00BF73
:10103C0008B5FFF77DFE806C08BD00BF08B5FFF753
:10104C0077FEC06CC37900EB8300083008BD00BF8D
:10105C0008B502F02DFA00BF08B5FFF7F9FF00BF85
:10106C0080B483B000AF7860044A7B681A607B68F8
:10107C0018460C37BD4680BC704700BFB836000818
:10108C0080B483B000AF7860044A7B681A607B68D8
:10109C0018460C37BD4680BC704700BFB8360008F8
:1010AC0080B582B000AF78607868FFF7E9FF7868A8
:1010BC0002F033F87B6818460837BD4680BD000047
:1010CC0080B582B000AF786039607B68012B0CD1A1
:1010DC003B684FF6FF72934207D10648FFF7C0FFFB
:1010EC00054A0649034802F01AF800BF0837BD4606
:1010FC0080BD00BF98000020000000208D1000086B
:10110C0080B500AF4FF6FF710120FFF7D9FF80BD0E
:10111C0080B483B000AF7860044A7B681A607B6847
:10112C0018460C37BD4680BC704700BFDC36000843
:10113C0080B483B000AF7860044A7B681A607B6827
:10114C0018460C37BD4680BC704700BFDC36000823
:10115C0080B582B000AF78607868FFF7E9FF7868F7
:10116C0001F0DBFF7B6818460837BD4680BD0000E8
:10117C0080B582B000AF786039607B68012B0CD1F0
:10118C003B684FF6FF72934207D10648FFF7C0FF4A
:10119C00054A0649034801F0C2FF00BF0837BD46A7
:1011AC0080BD00BF9C000020000000203D11000805
:1011BC0080B500AF4FF6FF710120FFF7D9FF80BD5E
:1011CC0080B483B000AF7860204A7B681A607B687B
:1011DC00032283F825207B68002283F826207B6875
:1011EC0000229A627B6800229A857B68002283F831
:1011FC002E207B68002283F82F207B6840F2DC5283
:10120C001A867B6800225A647B6801229A647B6888
:10121C00002283F890207B68002283F891207B6861
:10122C00002283F892207B68002283F893207B684D
:10123C00002283F894207B68002283F895207B6839
:10124C0018460C37BD4680BC704700BF08370008F5
:10125C0080B483B000AF7860044A7B681A607B6806
:10126C0018460C37BD4680BC704700BF08370008D5
:10127C0080B582B000AF78607868FFF7E9FF7868D6
:10128C0001F04BFF7B6818460837BD4680BD000057
:10129C0080B582B000AF786039607B68012B0CD1CF
:1012AC003B684FF6FF72934207D10648FFF788FF61
:1012BC00054A0649034801F032FF00BF0837BD4616
:1012CC0080BD00BFA0000020000000205D120008BF
:1012DC0080B500AF4FF6FF710120FFF7D9FF80BD3D
:1012EC0080B483B000AF78600E4A7B681A607B686C
:1012FC0000221A717B6800225A717B6800229A7155
:10130C007B680022DA717B6801221A727B680122E9
:10131C00DA607B6864221A617B6818460C37BD461C
:10132C0080BC70472837000880B483B000AF786069
:10133C00044A7B681A607B6818460C37BD4680BC33
:10134C00704700BF2837000880B582B000AF7860C6
:10135C007868FFF7E9FF786801F0DFFE7B681846D4
:10136C000837BD4680BD000080B582B000AF786004
:10137C0039607B68012B0CD13B684FF6FF729342AE
:10138C0007D10648FFF7ACFF054A0649034801F0B0
:10139C00C6FE00BF0837BD4680BD00BF540100200B
:1013AC00000000203513000880B500AF4FF6FF7128
:1013BC000120FFF7D9FF80BD80B483B000AF786007
:1013CC00054A7B681A607B6800221A717B68184694
:1013DC000C37BD4680BC70475037000880B483B0D2
:1013EC0000AF7860044A7B681A607B6818460C373B
:1013FC00BD4680BC704700BF5037000880B582B036
:10140C0000AF78607868FFF7E9FF786801F085FE37
:10141C007B6818460837BD4680BD000080B582B099
:10142C0000AF786039607B68012B0CD13B684FF6BC
:10143C00FF72934207D10648FFF7BEFF054A0649E3
:10144C00034801F06CFE00BF0837BD4680BD00BFED
:10145C006801002000000020E913000880B500AFEF
:10146C004FF6FF710120FFF7D9FF80BD80B483B028
:10147C0000AF7860054A7B681A607B6800221A719D
:10148C007B6818460C37BD4680BC7047783700081F
:10149C0080B483B000AF7860044A7B681A607B68C4
:1014AC0018460C37BD4680BC704700BF7837000823
:1014BC0080B582B000AF78607868FFF7E9FF786894
:1014CC0001F02BFE7B6818460837BD4680BD000036
:1014DC0080B582B000AF786039607B68012B0CD18D
:1014EC003B684FF6FF72934207D10648FFF7BEFFE9
:1014FC00054A0649034801F012FE00BF0837BD46F5
:10150C0080BD00BF74010020000000209D14000865
:10151C0080B500AF4FF6FF710120FFF7D9FF80BDFA
:10152C004FF4A0220E4808B54FF0050E02614FF49F
:10153C0080120C4B426180E8084001220023C276E5
:10154C008360C3600376437683760377437700F03A
:10155C00D7FA18B1BDE8084000F0B9B908BD00BF12
:10156C008C0100200064004010B5044686B01022A7
:10157C00002102A801F0E4FF2268214B9A423DD1E0
:10158C0003F5D633DA6902A942F00072DA61DA693E
:10159C001C4802F000720092009A9A6942F0040210
:1015AC009A619B6903F004030193019B4FF4006360
:1015BC00029300F049FE4FF48053029302230393ED
:1015CC00032302A90F48059300F03EFE00221320CE
:1015DC00114600F099FD132000F0CAFD00221420E2
:1015EC00114600F091FD142000F0C2FD00221520E0
:1015FC00114600F089FD152000F0BAFD06B010BDB3
:10160C0000640040000801400023084901224B619E
:10161C008B610B604B608B60CB600B610E230448BD
:10162C00CA610A624B6200F0E6BA00BFB401002046
:10163C008C0100200023012240F21E2100B58BB04A
:10164C008DF82000059204930393019102928DF87A
:10165C00183008AA07AB01A9054800F063FB4FF44A
:10166C008061044800F0D7FE0BB05DF804FB00BFAE
:10167C008C0100200010014000B58BB008AB6A460D
:10168C00002100F09DFB4FF40061034800F0C3FE05
:10169C000BB05DF804FB00BF0010014010222DE9D7
:1016AC00F04389B00DEB0200002101F049FF3C4BE7
:1016BC003C4F9A69384642F010029A619A694FF48D
:1016CC00406102F010020092009A9A69032442F0E1
:1016DC0020029A619A69072502F020020192019A70
:1016EC009A69002642F004029A619A694FF0020846
:1016FC0002F004020292029A9A69DFF8BC9042F05E
:10170C0008029A619B69002203F008030393039B70
:10171C0000F07CFE4FF2FF3304A938460493059485
:10172C0000F092FD04A920480495059400F08CFD6E
:10173C0048F2F17304A948460493059400F084FD23
:10174C001A4B04A948460593CDF81080069600F074
:10175C007BFD4FF6FF7304A915480493059400F024
:10176C0073FD4FF440630493012304A93846059399
:10177C000696CDF81C8000F067FD0E4A3146536882
:10178C00284643F0E06343F400435360324600F0D4
:10179C00BBFC284600F0ECFC09B0BDE8F08300BFB0
:1017AC000010024000100140001401400000111014
:1017BC00000C0140000001400008014080B582B0DF
:1017CC0000AF00F079F900F03DF8FFF767FFFFF785
:1017DC00A7FE00F0DBF8FFF717FF174800F077FAC9
:1017EC000221154800F062FB0346002B0CBF0123BD
:1017FC000023DBB2002B04D04FF480610F4800F0C3
:10180C000AFE0123FB7100233B603B680C4A9342A8
:10181C00F9D83B68002B0BD1FB790A2B01DD012396
:10182C00FB71FB791846FFF705FFFB790133FB7160
:10183C003B6801333B60E8E78C010020001001405D
:10184C00EF49020080B590B000AF07F118032822D1
:10185C000021184601F074FE3B1D00221A605A60EC
:10186C009A60DA601A610223BB610123BB62102308
:10187C00FB6200237B6307F11803184600F0E2FDBE
:10188C000346002B14BF01230023DBB2002B01D035
:10189C0000F01DF80F237B600023BB600023FB606E
:1018AC0000233B6100237B613B1D0021184600F0A7
:1018BC00A3FF0346002B14BF01230023DBB2002B34
:1018CC0001D000F004F800BF4037BD4680BD80B4A5
:1018DC0000AF00BFBD4680BC704700000E4B82B00D
:1018EC009A6942F001029A619A6902F0010200922F
:1018FC00009ADA6942F08052DA61DB69074A03F038
:10190C0080530193019B536823F0E06343F0007311
:10191C00536002B0704700BF00100240000001404D
:10192C007047FEE7FEE7FEE7FEE77047704770473B
:10193C0000F0D4B8022000F079BD0000014800F09E
:10194C00D2BA00BF8C010020FFF7F8BFFFF7F6BF3B
:10195C00014800F0F4BF00BFDC010020014801F099
:10196C008BBA00BF6C0200200120704708B501F053
:10197C00B5FD162303604FF0FF3008BD08B501F02C
:10198C00ADFD16230360FEE77047000010B58CB068
:10199C001022002103A801F0D3FD1422002107A876
:1019AC0001F0CEFD002340221848194901930293FF
:1019BC0080E8060083604FF47A7203618023C26072
:1019CC00836101F097F808B1FFF781FF4FF4805362
:1019DC0003A90E48039301F0C3F808B1FFF777FF92
:1019EC00002407A909480794089401F09FF908B14D
:1019FC00FFF76DFF01A905480194029401F0BEF9AF
:101A0C0008B1FFF764FF0CB010BD00BFDC01002073
:101A1C0000040040036807B5B3F1804F0DD103F506
:101A2C000433DA6942F00102DA61DB6903F0010385
:101A3C000093009B03B05DF804FB0B4A9342F9D171
:101A4C000A4B1D20DA6942F00202DA610022DB69DE
:101A5C00114603F002030193019B00F055FB1D207E
:101A6C0000F086FBE6E700BF0004004000100240D7
:101A7C0038B50E4B054618784FF47A73B3FBF0F378
:101A8C000B4A1068B0FBF3F000F080FB044658B929
:101A9C000F2D09D8024629464FF0FF3000F034FBD9
:101AAC00044B20461D6038BD012038BD08000020C5
:101ABC00040000200C000020074A08B5136803201E
:101ACC0043F01003136000F00DFB0020FFF7D0FF74
:101ADC00FFF704FF002008BD00200240034A044B1E
:101AEC0011681B780B441360704700BFAC020020D8
:101AFC0008000020014B1868704700BFAC020020A2
:101B0C0038B5044600286ED090F820300BB9FFF79A
:101B1C002BFD2268136823F002031360FFF7EAFF22
:101B2C00054623685A68910751D41A6842F001029D
:101B3C001A60FFF7DFFF054623685A68D20754D5B1
:101B4C00227E0020012A1A680CBF42F0800222F08B
:101B5C0080021A60627E012A1A680CBF42F04002B1
:101B6C0022F040021A60A27E012A1A680CBF42F0D1
:101B7C00200222F020021A60E27E012A1A680CBFB1
:101B8C0022F0100242F010021A60227F012A1A6819
:101B9C000CBF42F0080222F008021A60627F012A90
:101BAC001A680CBF42F0040222F004021A60E168C9
:101BBC00A2680A4321690A4361690A4361680139D1
:101BCC000A43DA610123606284F8203038BDFFF7E4
:101BDC0091FF401B0A28A4D9636A43F40033636263
:101BEC00052384F82030012038BDFFF783FF401B0C
:101BFC000A28A1D9F0E790F8203070B5013B012BF1
:101C0C005FD8012403684869D3F8002242F001022E
:101C1C00C3F8002200F01F0204FA02F2D443D3F8F6
:101C2C001C522540C3F81C52CD6985BBD3F80C520D
:101C3C00CE682540C3F80C528D8803EBC00045EAF2
:101C4C000645C0F840528E680D8845EA0645C0F836
:101C5C004452886968BBD3F804022040C3F80402DC
:101C6C00086950BBD3F814022040C3F81402096A67
:101C7C000020012902BFD3F81C120A43C3F81C220E
:101C8C00D3F8002222F00102C3F8002270BD012D0E
:101C9C00DFD1D3F80C520E681543C3F80C528D8863
:101CAC0003EBC00045EA0645C0F840528E688D89AA
:101CBC00CBE7D3F804021043D0E7D3F81402104357
:101CCC00D3E7436A43F480234362012070BD38B5E7
:101CDC0090F820300446012B1FD10223026880F8B3
:101CEC002030136823F001031360FFF703FF054650
:101CFC002368586810F0010001D1606238BDFFF70D
:101D0C00F9FE401B0A28F3D9636A43F4003363627B
:101D1C00052384F82030012038BD436A43F40023A6
:101D2C004362F8E7F0B590F820500668013D012DAC
:101D3C00B46841D814F0E05F3AD0C4F30164032CCA
:101D4C004FF0010505D1436A43F4000343620120BF
:101D5C00F0BDA5401D608868CF6804F1180310BB66
:101D6C00086847EA40501B01F05008692401097DBE
:101D7C003319C3F88401012908BFD3F88411344402
:101D8C0004BF41F48071C3F8841151680020C4F879
:101D9C008C111268C4F88821D3F8802142F001021A
:101DAC00C3F88021F0BD4D68384340EAC500DAE73E
:101DBC00436A43F40013C9E7436A43F48023C5E73D
:101DCC00F0B590F82040013C012C6BD8066841B965
:101DDC00F468A40707D1436A43F40013436201205B
:101DEC00F0BD3469F5E70C013519D5F8B07107F081
:101DFC0004079760002F4BD1D5F8B0717F0D176099
:101E0C00D5F8B071264407F00207D760D5F8B47145
:101E1C0007F00F071761D5F8B471D5F8B451C7F3B3
:101E2C0007272D0C97615561D6F8B8211A700268F6
:101E3C002244D2F8B821120A5A7002682244D2F80D
:101E4C00B821120C9A7002682244D2F8B821120EF2
:101E5C00DA7002682244D2F8BC211A71026822445A
:101E6C00D2F8BC21120A5A7102682244D2F8BC2161
:101E7C00120C9A7102681444D4F8BC21120EDA7157
:101E8C00036851B9DA6842F02002DA600020F0BD34
:101E9C00D5F8B071FF085760B2E71A6942F020021A
:101EAC001A61F3E7436A43F4802397E790F82030F4
:101EBC00013B012B05D8026800205369194351617D
:101ECC007047436A43F48023436201207047704794
:101EDC00704770477047704770477047704770473E
:101EEC007047704770472DE9F84F036805465E69E7
:101EFC00D3F8049016F001049F68D3F80CB0D3F813
:101F0C0010A0D3F8188022D017F0010407D00122BA
:101F1C00B9079A6040F1A380FFF7D9FF0024FB05B5
:101F2C0009D54FF480722B68B8059A6040F1A580F2
:101F3C002846FFF7CDFFFB0309D54FF480322B6801
:101F4C00B8039A6040F1A7802846FFF7C2FF330719
:101F5C0007D51BF0100F1FBF10222B6844F4007420
:101F6C00DA60770708D51BF0080F05D008222B681C
:101F7C002846DA60FFF7B1FFB00706D52B68DB689F
:101F8C00990702D02846FFF777FB720607D51AF09F
:101F9C00100F1FBF10222B6844F480641A61B30623
:101FAC0008D51AF0080F05D008222B6828461A61AC
:101FBC00FFF795FFF70606D52B681B69980702D02B
:101FCC002846FFF78BFFB10308D519F0100F05D089
:101FDC0010222B6828465A60FFF782FFF20308D5BF
:101FEC0019F0080F05D008222B6828465A60FFF715
:101FFC0078FF33042AD519F0040F2A6824D0F7058A
:10200C0004D518F0010F18BF44F00104B00504D535
:10201C0018F0020F18BF44F00204710504D518F033
:10202C00040F18BF44F0040433050DD518F07003E9
:10203C000AD0302B4CD03CD8102B43D0202B44D082
:10204C00936923F070039361042353602CB16B6A82
:10205C0028461C436C62FFF745FFBDE8F88F7A07F2
:10206C0005D417F0080405D1FFF734FF57E74FF4F8
:10207C00006454E74FF4805451E7790502D544F4D9
:10208C00005458E73A0502D544F4804453E72846F7
:10209C00FFF721FF4FE7790302D544F4004456E7DC
:1020AC003A0302D544F4803451E72846FFF714FF75
:1020BC004DE7502B0FD0602B10D0402BC0D144F0EB
:1020CC004004BDE744F00804BAE744F01004B7E755
:1020DC0044F02004B4E744F08004B1E744F4807485
:1020EC00AEE70000074A0002D36800F4E06023F476
:1020FC00E0631B041B0C43F0BF6343F40033034346
:10210C00D360704700ED00E0174B30B5DC68C4F3CA
:10211C000224C4F10703251D042B28BF0423062D1C
:10212C004FF0010598BF002405FA03F303F1FF33C8
:10213C0088BF033C1940A14005FA04F4013C22403D
:10214C00002842EA01024FEA0212A9BF00F16040E6
:10215C00064BD2B200F56140BBBF00F00F00D2B20B
:10216C0080F800231A5430BD00ED00E014ED00E0BF
:10217C00002808DB0123420900F01F0003FA00F0DD
:10218C00014B43F82200704700E100E00138B0F148
:10219C00807F0AD2F021064B064A586082F8231041
:1021AC000020072298601A6070470120704700BF1A
:1021BC0010E000E000ED00E090F8213010B5022BAB
:1021CC0003D004238363012010BD03681A6822F036
:1021DC000E021A601A6822F001021A60184A934221
:1021EC001FD0143293421ED0143293421DD014329D
:1021FC0093421DD0143293421DD0143293420CBF23
:10220C004FF480134FF080730E4A00245360012367
:10221C0080F82130436B80F820407BB198472046F2
:10222C0010BD0123F0E71023EEE74FF48073EBE7CA
:10223C004FF48053E8E74FF48033E5E7184610BDC0
:10224C0008000240000002402DE9F74F002426460A
:10225C00664BDFF8A8E1DFF8A8C10A6832FA06F588
:10226C0002D103B0BDE8F08F4FF0010808FA06F870
:10227C0002EA080290457FD14D68122D00F0AA8029
:10228C0000F28380022D00F0A28077D8002D00F0A0
:10229C008980012D00F099804FF00F09FF2A93BF20
:1022AC00824606F18045083DD0F800B092BFB500DB
:1022BC00D0F804B0AD0009FA05F82BEA080804FAC6
:1022CC0005F588BF00F1040A48EA0505CAF8005074
:1022DC00D1F804A01AF0805F4ED0454D444FAD6943
:1022EC0026F0030845F00105BD61BD6908F1804881
:1022FC0005F00105019508F5803806F0030B019DEA
:10230C004FEA8B0BD8F8085009FA0BF925EA0909A2
:10231C00384DA84263D005F58065A84261D005F51B
:10232C008065A8425FD005F58065A8420CBF0325E7
:10233C00042505FA0BF545EA0905C8F808501D688F
:10234C001AF4803F14BF154395431D605D681AF461
:10235C00003F14BF154395435D609D681AF4801FC0
:10236C0014BF154395439D60DD681AF4001F14BF1C
:10237C002A4325EA0202DA6001366EE7032D22D0E9
:10238C00112D89D1CC68043486E71B4FBD4209D08E
:10239C0012D8DFF870904D4504D009F580394D45C1
:1023AC007FF47AAF8C68C4B1012C0CBFC0F81080DC
:1023BC00C0F8148008246FE77545F3D06545F1D05B
:1023CC00DFF84490EBE7002466E7CC6864E7CC6860
:1023DC00083461E7CC680C345EE704245CE7002524
:1023EC00A7E70125A5E70225A3E700BF00040140EC
:1023FC0000100240000801400000211000003110C4
:10240C000000321000001110000022100AB101610E
:10241C0070470904FBE7C36803EA010221EA0301E0
:10242C0041EA0241016170477047000008B5044B56
:10243C005969014202D05861FFF7F6FF08BD00BF91
:10244C00000401402DE9F341054608B901203CE0A8
:10245C000368DB0710D42B689F075DD42B68190722
:10246C0000F194802B685A0700F1BE80E8690028BF
:10247C0040F02C81002028E08F4C636803F00C03A3
:10248C00042B07D0636803F00C03082B09D1636895
:10249C00DE0306D523689C03DDD56B68002BDAD1EF
:1024AC00D4E76B68B3F5803F12D1236843F48033D3
:1024BC002360FFF71FFB064623689803CBD4FFF776
:1024CC0019FB801B6428F7D9032002B0BDE8F0810A
:1024DC009BB9236823F480332360236823F480237F
:1024EC002360FFF707FB064623689903B3D5FFF774
:1024FC0001FB801B6428F7D9E6E7B3F5A02F23680E
:10250C0003D143F480232360CFE723F4803323608B
:10251C00236823F48023CBE7674C636813F00C0F1C
:10252C0007D0636803F00C03082B10D16368DA033F
:10253C000DD423689B0702D52B69012B86D1236808
:10254C006A6923F0F80343EAC203236086E72A6929
:10255C005A4B6AB101221A60FFF7CCFA064623687F
:10256C009F07ECD4FFF7C6FA801B0228F7D9ABE71C
:10257C001A60FFF7BFFA0646236898077FF56EAF1F
:10258C00FFF7B8FA801B0228F6D99DE7AA694A4CD6
:10259C004B4BDAB101221A60FFF7ACFA0646636ABC
:1025AC009B070DD54FF4FA52464B1B68B3FBF2F365
:1025BC00019300BF019B5A1E0192002BF9D151E7E8
:1025CC00FFF798FA801B0228E9D97DE71A60FFF71C
:1025DC0091FA0646636A9F077FF544AFFFF78AFAC4
:1025EC00801B0228F6D96FE7334CE369D80024D45A
:1025FC000127E36943F08053E361E36903F08053FF
:10260C000093009B304E3368D90518D5EB68012B2D
:10261C0026D1236A43F001032362FFF76BFA41F2E0
:10262C0088368046236A9B073FD5002F3FF41EAFA8
:10263C00E36923F08053E36118E70027E2E733688E
:10264C0043F480733360FFF755FA80463368DA053C
:10265C00DCD4FFF74FFAA0EB08006428F6D933E777
:10266C00ABB9236A41F2883823F001032362236A51
:10267C0023F004032362FFF73DFA0646236A98070A
:10268C00D3D5FFF737FA801B4045F7D91CE7052B4C
:10269C00236A03D143F004032362BAE723F0010356
:1026AC002362236A23F00403B6E7FFF723FAA0EBB7
:1026BC000800B042B6D907E70010024000004242C1
:1026CC008004424204000020007000402A4B5A68EB
:1026DC001C4602F00C02082A3DD00023274E02288B
:1026EC0033602BD1FFF706FA0746236899011FD4F4
:1026FC002B6AB3F5803F05D16268A96822F40032D9
:10270C000A436260696A62680B4322F474121343D1
:10271C00636001233360FFF7EDF9054623689A01E6
:10272C003FF5A8AEFFF7E6F9401B0228F6D9CBE639
:10273C00FFF7E0F9C01B0228D7D9C5E6FFF7DAF995
:10274C00054623689B017FF595AEFFF7D3F9401B37
:10275C000228F6D9B8E601283FF4B7AE58682B6AC0
:10276C0000F480329A427FF471AE6B6A00F4701000
:10277C00C01A18BF0120A8E60010024060004242B7
:10278C0030B5194B87B002AC03F11005224618681E
:10279C005968083303C2AB421446F7D101238DF8B4
:1027AC000430022311498DF805304B6803F00C02FC
:1027BC00082A17D1C3F3834206A80244DB0312F89C
:1027CC00102C0CD54B680A48C3F34043504306AA5F
:1027DC00134413F8143CB0FBF3F007B030BD0548BC
:1027EC005043FAE70248F8E78F3700080010024020
:1027FC0000127A0000093D002DE9F0410D46044617
:10280C0010B90120BDE8F081454A136803F00703B5
:10281C008B4229D321688E0731D4CA0744D4404A4D
:10282C00136803F007039D4267D322683D4D12F0F5
:10283C00040F6ED1130706D56B68226923F460531D
:10284C0043EAC2036B60FFF79BFF6B68364AC3F326
:10285C000313D35CD840354B1860354B1868FFF721
:10286C0007F90020BDE8F081136823F007030B4340
:10287C001360136803F007039942C2D1CAE7294BCE
:10288C0011F0040F1EBF5A6842F4E0625A60080748
:10289C0042BF5A6842F460525A605A68A06822F0EB
:1028AC00F00202435A60B8E762681E4E012A336890
:1028BC001BD113F4003FA4D0736841F2883823F085
:1028CC00030313437360FFF715F9074673686268D7
:1028DC0003F00C03B3EB820FA1D0FFF70BF9C01B75
:1028EC004045F3D90320BDE8F081022A02D113F050
:1028FC00007FE0E713F0020FDDE7136823F0070316
:10290C002B431360136803F007039D427FF479AFE8
:10291C008BE76B68E16823F4E0630B436B6089E73A
:10292C0000200240001002409F37000804000020E5
:10293C000C00002070477047704770477047036861
:10294C0010B51A69044691070ED5DA6892070BD5B3
:10295C006FF002021A6101229B6902779B0777D004
:10296C00FFF7EAFF0023237723681A69500710D575
:10297C00DA6851070DD56FF004021A6102229B69C7
:10298C00227713F4407F204668D0FFF7D5FF002351
:10299C00237723681A6912070FD5DA6810070CD54C
:1029AC006FF008021A610422DB692277990720462E
:1029BC005AD0FFF7C1FF0023237723681A69D20688
:1029CC0010D5DA68D0060DD56FF010021A61082206
:1029DC00DB69227713F4407F20464BD0FFF7ACFF26
:1029EC000023237723681A69D10708D5DA68D20740
:1029FC0005D56FF0010220461A61FFF79BFF236893
:102A0C001A69100608D5DA68110605D56FF0800230
:102A1C0020461A6100F0E5F923681A69520608D5B8
:102A2C00DA68500605D56FF0400220461A61FFF7B0
:102A3C0085FF23681A69910622D5DA6892061FD59C
:102A4C006FF020022046BDE810401A6100F0C8B9B2
:102A5C00FFF771FF2046FFF770FF83E7FFF76BFF6F
:102A6C002046FFF76AFF92E7FFF765FF2046FFF766
:102A7C0064FFA0E7FFF75FFF2046FFF75EFFAFE7BD
:102A8C0010BD00001A4A036890420AD0B0F1804F82
:102A9C0007D0A2F59432904203D002F580629042A6
:102AAC0015D14A6823F070031343114A90420AD09F
:102ABC00B0F1804F07D0A2F59432904203D002F5CA
:102ACC008062904203D1CA6823F4407313434A696D
:102ADC0023F08003134303608B68C3620B6883622B
:102AEC00034B984204BF0B69036301234361704796
:102AFC00002C014010B5044630B390F83D3003F083
:102B0C00FF021BB980F83C20FEF784FF02232068EB
:102B1C0084F83D30211DFFF7B5FF0123002084F818
:102B2C00463084F83E3084F83F3084F8403084F8E6
:102B3C00413084F8423084F8433084F8443084F8CF
:102B4C00453084F83D3010BD012010BD10B58468AF
:102B5C000A4324F47F4442EA03232343836010BDD9
:102B6C0090F83C3070B5012B04464FF0020019D0A0
:102B7C00012384F83D00206884F83C30836823F4FA
:102B8C007F4323F0770383600B68402B65D015D807
:102B9C00102B0CD007D853B10123002084F83D3002
:102BAC0084F83C0070BD202B01D0302BF4D182680E
:102BBC0043F0070322F0700213431AE0602B34D069
:102BCC0019D8502BE8D14A68CE68016A056A21F001
:102BDC000A0125F00105056283690A4323F0F0031D
:102BEC0043EA061383610262836823F0700343F0A7
:102BFC0057038360D0E7702B0CD0B3F5005FCBD1BB
:102C0C00CB684A688968FFF7A1FF2268936843F490
:102C1C00804308E0CB684A688968FFF797FF226811
:102C2C00936843F077039360B6E74D68CE68016A0A
:102C3C0021F0100101628269036A22F4704223F0D0
:102C4C00A00343EA051342EA0632826103628368F9
:102C5C0023F0700343F06703CBE74A68CE68016A40
:102C6C00056A21F00A0125F00105056283690A4312
:102C7C0023F0F00343EA061383610262836823F0B6
:102C8C00700343F04703B4E7006838B583684A68BB
:102C9C0023F070030C68134323F007032343502ADB
:102CAC0083601ED003D8402A0BD0002038BD602A88
:102CBC0027D0702AF9D10B698A68C968FFF746FFDB
:102CCC00F3E7052C30D0026A036A096923F001038B
:102CDC000362836923F0F00343EA01138361026208
:102CEC00E3E78A680D69016A046A21F00A0124F09D
:102CFC000104046283690A4323F0F00343EA0513D9
:102D0C00ECE78C680D69016A21F01001016282699F
:102D1C00036A22F4704223F0A00342EA053243EA2C
:102D2C00041382610362C0E7012038BD38B590F806
:102D3C003C300446012B4FF002031CD0012580F8D7
:102D4C003D3080F83C50FFF79FFF30B1002384F8F2
:102D5C003D5084F83C30284638BD2368DA6822F0B0
:102D6C004002DA60DA6822F48042DA6084F83D507E
:102D7C0084F83C0038BD184638BD000090F83C3053
:102D8C0030B5012B4FF0020325D0012280F83D30E5
:102D9C0003680D685C6880F83C2024F070042C43B8
:102DAC009A685C600D4CA3420AD0B3F1804F07D0F7
:102DBC00A4F59434A34203D004F58064A34204D157
:102DCC00496822F080020A439A60012380F83D3062
:102DDC00002380F83C30184630BD00BF002C014069
:102DEC00704770470368DA6822F49072DA605A69A7
:102DFC0022F001025A61202380F83A307047704764
:102E0C00704790F83A3010B5222B32D18168836A22
:102E1C00B1F5805F026820D1016909BB5268C2F329
:102E2C00080223F8022BC48D8362013CA4B2C48532
:102E3C008CB90368DA6822F02002DA60DA6822F4CE
:102E4C008072DA605A6922F001025A61202380F8FC
:102E5C003A30FFF7D5FF002010BD31B9016921B917
:102E6C0052681A70836A0133DDE7526802F07F0200
:102E7C00F7E7022010BD7047036870B51A68044666
:102E8C001607D9685D6907D196065CD58D065AD5AB
:102E9C00BDE87040FFF7B5BF15F0010502D111F484
:102EAC00907F50D0D00705D5CB0542BFE36B43F0E4
:102EBC000103E363560704D51DB1E36B43F0020332
:102ECC00E363900704D51DB1E36B43F00403E363A4
:102EDC00130706D58E0600D41DB1E36B43F008032F
:102EEC00E363E36B002B64D0950604D5880602D50A
:102EFC002046FFF786FF236820465D69E26B1107C9
:102F0C0002D415F040051AD0FFF76CFF23685A69FC
:102F1C00520610D55A69606B22F040025A6150B1CA
:102F2C00244B4363FFF748F9002842D0606BBDE89F
:102F3C007040436B18472046FFF79DFF70BDFFF7AD
:102F4C009AFFE56370BD160625D50D0623D594F8BA
:102F5C003920212A2DD1A268B2F5805F226A15D1C1
:102F6C00216999B932F8021BC1F308015960226238
:102F7C00E28C013A92B2E284DAB9DA6822F0800289
:102F8C00DA60DA6842F04002DA6070BD511C2162EE
:102F9C0012785A60ECE750060BD54A0609D5DA6868
:102FAC00204622F04002DA60202384F83930FFF703
:102FBC0026FF70BDC52F000808B50023406AC385E5
:102FCC00C384FFF758FF08BD002103E00B4B5B588F
:102FDC00435004310A480B4B42189A42F6D30A4A22
:102FEC0002E0002342F8043B084B9A42F9D3FEF767
:102FFC00CBFC00F079FAFEF7E1FB7047F8390008DA
:10300C00000000207C0000207C000020B402002086
:10301C00FEE7000010B50446024B036000F062F9B5
:10302C00204610BDEC37000810B50446FFF7F2FF40
:10303C0020460C2100F033F9204610BD2DE9F0415B
:10304C00069E804696420F4614461D4603D11946ED
:10305C0000F09CF958B9D8F8080022460368069687
:10306C001E6A39462B46B446BDE8F041604706203F
:10307C00BDE8F0812DE9F14F0E46194683461746FF
:10308C0099460A9CDDF82CA0DDF830800D9D00F0EF
:10309C007DF990B1002E2C602F7109DB3444A045D2
:1030AC000CBF06240124AC71002001B0BDE8F08FE8
:1030BC000236F9D10123AB71F6E7444504D15146F0
:1030CC00584600F063F988B9DBF808003A46036803
:1030DC000D95CDF83080CDF82CA00A94DC693146E2
:1030EC004B46A44601B0BDE8F04F60476F71DBE77B
:1030FC002DE9F04104460D4616461F4600F006F930
:10310C0048B9A0683246036829469C693B46A446E8
:10311C00BDE8F0416047BDE8F08100F009BA0B460C
:10312C000146184600F0CCB908B5804700F0C0F94C
:10313C00024B1868BFF35B8F704700BF1000002074
:10314C0008B5FFF7F5FFFFF7EFFF08B58047FFF76E
:10315C00F7FF0000024B1868BFF35B8F704700BF8E
:10316C001400002008B5FFF7F5FFFFF7EEFF03781A
:10317C00472B17D143784E2B14D18378552B11D173
:10318C00C378432B0ED10379432B0BD143792B2BD3
:10319C0008D183792B2B05D1C07901288CBF002055
:1031AC0001207047002070472DE9F3411E4603783B
:1031BC000D46472B0246C17947D143784E2B44D15B
:1031CC008378552B41D1C378432B3ED10379462BC1
:1031DC003BD143794F2B38D18379522B35D10029F0
:1031EC0033D1012308460024019433BB38BB012999
:1031FC000ABF52F8203CA2F12003783B01290CBFF6
:10320C0052F8202C58321C680192236820469B6887
:10321C009847B0B10227019B1B6801932B6801AA48
:10322C00D3F81080214601232846C04758B1019B92
:10323C003360384602B0BDE8F081084CE5E7084C35
:10324C00E3E70127EAE70746F3E71046FFF78FFFAE
:10325C0080F00100C0B20023C5E700BF843800082D
:10326C008C38000810B5044600F01EF902462046C2
:10327C00A4F12001FFF77BFF60B154F8043C01334B
:10328C00012B44F8043C03D1936844F8083C91604A
:10329C00012010BD9368002BF9D0FFF751FFFFF709
:1032AC003CBF7FB5102300240293036815469E692A
:1032BC0000946B468DF8044003941268B0479DF857
:1032CC00043003F00603062B09BF01202046009BA7
:1032DC002B6004B070BD009890420CBF06200120FA
:1032EC007047000010B50446024B036000F04BF829
:1032FC00204610BD4838000810B50446FFF7F2FF11
:10330C0020460821FFF7CBFF204610BD38B51546E7
:10331C001C4600F03BF820B10823E360062325602F
:10332C00237138BD2DE9F04105460C4616461F4663
:10333C0000F02CF848B9032F07D8236832462946E9
:10334C002046BDE8F0415B691847BDE8F0812DE9E6
:10335C00F041069E9846089B07469E421546099CDE
:10336C0003D1079900F012F858B94146384600F0DD
:10337C000DF818B1012326602571A3710020BDE85A
:10338C00F0816571FAE7704700207047814208B5FB
:10339C000ED0406803782A2B0CD049680B782A2B66
:1033AC0008BF0131FCF7CCFEB0FA80F0400908BD33
:1033BC00012008BD002008BD0378472B17D14378A6
:1033CC004E2B14D18378552B11D1C378432B0ED1AE
:1033DC000379432B0BD143792B2B08D183792B2BDE
:1033EC0005D1C07901288CBF002001207047002036
:1033FC00704738B50246FFF7DFFF40B1002552F8A1
:10340C00184C104600F026F825B1FFF7ABFE044629
:10341C000125F6E72046FFF798FE0378472B17D1D6
:10342C0043784E2B14D18378552B11D1C378432B71
:10343C000ED10379432B0BD143792B2B08D18379F4
:10344C002B2B05D1C07901288CBF0020012070479F
:10345C000020704738B5054600F026F80146026892
:10346C002846A5F12004FFF7D8FF30B90AB1FFF7C1
:10347C0067FE0C601446204638BD55F80C3C2846B7
:10348C00002BB4BFC3F10103013345F80C3C4B686E
:10349C00A24203F1FF334B601CBF45F8102C0C60AB
:1034AC006C6AFDF721F8E6E7004870477C010020C4
:1034BC0008B5062000F0C0F80120FEF75FFA000006
:1034CC0010B5054C13462CB10A4601460220AFF349
:1034DC00008010BD204610BD00000000014B186894
:1034EC00704700BF1800002070B500250C4E0D4C25
:1034FC00A41BA410A54209D100F0C8F800250A4E5F
:10350C000A4CA41BA410A54205D170BD56F8253059
:10351C0098470135EEE756F8253098470135F2E724
:10352C00D8390008D8390008D8390008F43900080F
:10353C00024B0146186800F00BB800BF18000020C1
:10354C0003460244934200D1704703F8011BF9E78C
:10355C0038B50546002943D051F8043C0C1F002B0C
:10356C00B8BFE41800F084F81E4A1368104633B94B
:10357C00636014602846BDE8384000F07AB8A34276
:10358C000BD921686218934201BF1A685B68521804
:10359C00226063600460EDE713465A680AB1A242E8
:1035AC00FAD919685818A0420BD120680144581850
:1035BC0082421960DED110685268014419605A6069
:1035CC00D8E702D90C232B60D4E7206821188A4253
:1035DC0001BF116852680918216062605C60C9E71C
:1035EC0038BD00BF880100201F2938B504460D46A0
:1035FC0004D9162303604FF0FF3038BD426C12B172
:10360C0052F821304BB9204600F030F82A460146DA
:10361C002046BDE8384000F017B8012B0AD0591CE1
:10362C0003D116230360012038BD0024284642F83C
:10363C0025409847002038BD024B01461868FFF71B
:10364C00D3BF00BF1800002038B50023064C054638
:10365C00084611462360FEF789F9431C02D1236802
:10366C0003B12B6038BD00BFB0020020FEF77CB95F
:10367C007047704710B5431E0A44914200D110BDEB
:10368C0011F8014B03F8014FF7E70000F8B500BF44
:10369C00F8BC08BC9E467047F8B500BFF8BC08BC27
:0436AC009E4670477F
:1036B00000000000C03600088D100008AD100008A2
:1036C00048380008C836000838416C6C5461736B88
:1036D0007300000000000000E43600083D110008FF
:1036E0005D11000848380008EC36000831344361A9
:1036F0006E53656E644D616E616765720000000017
:1037000000000000103700085D1200087D1200085C
:103710004838000818370008364675746162610041
:10372000000000003037000835130008551300086A
:10373000483800083837000831314D6F64654D61F5
:103740006E616765720000000000000058370008D5
:10375000E913000809140008483800086037000819
:1037600031324D6F746F724D616E6167657200002A
:1037700000000000803700089D140008BD140008F8
:10378000483800088837000835546F6F6C730002A2
:10379000030405060708090A0B0C0D0E0F10100094
:1037A00000000000000000010203040607080900F1
:1037B000EC370008BC370008103800084E31305F85
:1037C0005F637878616269763132305F5F73695F19
:1037D000636C6173735F747970655F696E666F4562
:1037E0000000000000000000B03700082130000891
:1037F0003530000895330008953300083133000850
:10380000AF320008FD300008813000084930000860
:10381000EC3700081C3800086C3800084E31305F67
:103820005F637878616269763131375F5F636C61BD
:1038300073735F747970655F696E666F4500000031
:103840000000000010380008F132000805330008BD
:10385000953300089533000831330008AF32000873
:10386000193300085B330008E332000848380008C9
:1038700074380008537439747970655F696E666FC7
:103880000000000048380008943800084838000854
:10389000B43800084E31305F5F63787861626976D2
:1038A0003131355F5F666F726365645F756E77692E
:1038B0006E6445004E31305F5F637878616269768F
:1038C0003131395F5F666F726569676E5F65786316
:0838D000657074696F6E45001C
:1038D80001970181B0B00884000000000F970181B2
:1038E800B0B008840000000008B10181B0B00084C5
:1038F8000000000008B10181B0B0008400000000A1
:1039080058C8FF7F01000000ECC8FF7FB0A9028003
:1039180088C9FF7FB0B0A880D8C9FF7F0100000028
:10392800E4C9FF7FB0B0AA801CCAFF7FAE71B28025
:10393800ECCAFF7F01000000E8CAFF7FAB3F388078
:1039480040CBFF7F010000004CCBFF7FB0B0AA80C6
:1039580088CBFF7F0100000040CCFF7FAB0EB28018
:10396800ACCCFF7FB0AF0A8074CFFF7F01000000AE
:1039780078CFFF7FAB3F0480BCD1FF7F0100000000
:1039880098D3FF7F00840480ACD3FF7F0100000040
:10399800A8D3FF7FB0AD048070D6FF7FB0A90480A4
:1039A80094D6FF7F44FFFF7F98D6FF7F48FFFF7FB5
:1039B800A4D6FF7F0100000008DEFF7F14FFFF7F11
:1039C80088DEFF7F18FFFF7F0ADFFF7F010000000E
:1039D800310100080D110008BD110008DD120008B2
:0C39E800B5130008691400081D15000844
:0439F4000D010008B9
:1039F800000000000024F400010000001000000096
:103A0800BD3400084D3100081C00002000000000F3
:103A1800000000000000000000000000000000009E
:103A2800000000000000000000000000000000008E
:103A3800000000000000000000000000000000007E
:103A4800000000000000000000000000000000006E
:103A5800000000000000000000000000000000005E
:0C3A680000000000000000000000000052
:0400000508002FD5EB
:00000001FF
