:020000040800F2
:1000000000500020BD1700087104000873040008A8
:100010007504000877040008790400080000000057
:100020000000000000000000000000007B04000849
:100030007D040008000000007F040008810400081F
:10004000051800080518000805180008051800081C
:1000500005180008051800080518000885040008A0
:1000600005180008051800080518000805180008FC
:1000700005180008051800080518000805180008EC
:100080000518000805180008051800089D04000858
:10009000990400088D0400080518000805180008D8
:1000A00005180008051800080518000805180008BC
:1000B00005180008A1040008051800080518000824
:1000C000051800080518000805180008051800089C
:1000D000051800080518000805180008051800088C
:1000E00005180008051800080518000800000000A1
:1000F0000000000000000000000000000000000000
:0C01000000000000000000005FF808F1A3
:10010C0010B5054C237833B9044B13B10448AFF345
:10011C0000800123237010BD0C00002000000000A3
:10012C006018000808B5034B1BB103490348AFF333
:10013C00008008BD000000001000002060180008BE
:10014C004FF4A0220E4808B54FF0050E02614FF493
:10015C0080120C4B426180E8084001220023C276D9
:10016C008360C3600376437683760377437700F02E
:10017C0043FA18B1BDE8084000F050B908BD00BF03
:10018C00280000200064004010B5044686B0102200
:10019C00002102A801F056FB2268214B9A423DD166
:1001AC0003F5D633DA6902A942F00072DA61DA6932
:1001BC001C4802F000720092009A9A6942F0040204
:1001CC009A619B6903F004030193019B4FF4006354
:1001DC00029300F01FFD4FF480530293022303930C
:1001EC00032302A90F48059300F014FD00221320ED
:1001FC00114600F0B7FC132000F0E8FC002214209C
:10020C00114600F0AFFC142000F0E0FC0022152099
:10021C00114600F0A7FC152000F0D8FC06B010BD6C
:10022C0000640040000801400023084901224B6192
:10023C008B610B604B608B60CB600B610E230448B1
:10024C00CA610A624B6200F052BA00BF5000002033
:10025C002800002000B58BB008AB6A46002100F0E6
:10026C00DDFA4FF40061034800F0BBFD0BB05DF804
:10027C0004FB00BF0010014010222DE9F04389B0AF
:10028C000DEB0200002101F0DDFA3C4B3C4F9A696A
:10029C00384642F010029A619A694FF4406102F0BC
:1002AC0010020092009A9A69032442F020029A618B
:1002BC009A69072502F020020192019A9A69002698
:1002CC0042F004029A619A694FF0020802F00402AB
:1002DC000292029A9A69DFF8BC9042F008029A6185
:1002EC009B69002203F008030393039B00F074FD49
:1002FC004FF2FF3304A938460493059400F08AFCAE
:10030C0004A920480495059400F084FC48F2FD7380
:10031C0004A948460493059400F07CFC1A4B04A9EC
:10032C0048460593CDF81080069600F073FC4FF606
:10033C00FF7304A915480493059400F06BFC4FF46B
:10034C0040630493012304A9384605930696CDF81F
:10035C001C8000F05FFC0E4A31465368284643F07F
:10036C00E06343F400435360324600F0FBFB284645
:10037C0000F02CFC09B0BDE8F08300BF0010024077
:10038C00001001400014014000001110000C01404D
:10039C00000001400008014000B591B02822002166
:1003AC0006A801F04FFA1422002101A801F04AFA24
:1003BC000223069301230A93102306A80B9300F043
:1003CC0027FD00210F2301A80193029103910491B1
:1003DC00059100F0F7FE11B05DF804FB08B500F0D4
:1003EC00E7F8FFF7D9FFFFF747FFFFF7A9FE00F08B
:1003FC0059F8FFF719FF084800F0E5F90221064803
:10040C0000F082FA38B900F180404FF4806100F5B9
:10041C00883000F0E6FCFEE7280000207047000062
:10042C000E4B82B09A6942F001029A619A6902F00D
:10043C0001020092009ADA6942F08052DA61DB69BB
:10044C00074A03F080530193019B536823F0E06348
:10045C0043F00073536002B0704700BF00100240BD
:10046C00000001407047FEE7FEE7FEE7FEE770473D
:10047C007047704700F0AEB8022000F0BDBC000021
:10048C00014800F05EBA00BF28000020FFF7F8BF5B
:10049C00FFF7F6BF014800F038BF00BF780000201E
:1004AC007047000010B58CB01022002103A801F099
:1004BC00C9F91422002107A801F0C4F90023402235
:1004CC00184819490193029380E8060083604FF4A1
:1004DC007A7203618023C260836100F0F1FF08B17E
:1004EC00FFF79CFF4FF4805303A90E48039301F0D0
:1004FC001DF808B1FFF792FF002407A909480794DB
:10050C00089401F0F9F808B1FFF788FF01A9054834
:10051C000194029401F018F908B1FFF77FFF0CB0B9
:10052C0010BD00BF780000200004004007B50D4B43
:10053C0002689A4212D103F50333DA691D2042F0A6
:10054C000202DA610022DB69114603F00203019317
:10055C00019B00F007FB1D2000F038FB03B05DF899
:10056C0004FB00BF0004004038B50E4B054618785C
:10057C004FF47A73B3FBF0F30B4A1068B0FBF3F053
:10058C0000F032FB044658B90F2D09D80246294613
:10059C004FF0FF3000F0E6FA044B20461D6038BDEA
:1005AC00012038BD040000200000002008000020BD
:1005BC00074A08B51368032043F01003136000F0DA
:1005CC00BFFA0020FFF7D0FFFFF72AFF002008BD7D
:1005DC0000200240034A044B11681B780B44136043
:1005EC00704700BFC000002004000020014B1868B9
:1005FC00704700BFC000002038B5044600286ED0FC
:10060C0090F820300BB9FFF7BFFD2268136823F078
:10061C0002031360FFF7EAFF054623685A68910747
:10062C0051D41A6842F001021A60FFF7DFFF054649
:10063C0023685A68D20754D5227E0020012A1A68F2
:10064C000CBF42F0800222F080021A60627E012A06
:10065C001A680CBF42F0400222F040021A60A27EDF
:10066C00012A1A680CBF42F0200222F020021A6004
:10067C00E27E012A1A680CBF22F0100242F010022E
:10068C001A60227F012A1A680CBF42F0080222F07D
:10069C0008021A60627F012A1A680CBF42F0040239
:1006AC0022F004021A60E168A2680A4321690A4335
:1006BC0061690A43616801390A43DA6101236062A6
:1006CC0084F8203038BDFFF791FF401B0A28A4D9CD
:1006DC00636A43F400336362052384F820300120FD
:1006EC0038BDFFF783FF401B0A28A1D9F0E790F82B
:1006FC00203070B5013B012B5FD801240368486999
:10070C00D3F8002242F00102C3F8002200F01F02CD
:10071C0004FA02F2D443D3F81C522540C3F81C52FD
:10072C00CD6985BBD3F80C52CE682540C3F80C526A
:10073C008D8803EBC00045EA0645C0F840528E6830
:10074C000D8845EA0645C0F84452886968BBD3F861
:10075C0004022040C3F80402086950BBD3F8140209
:10076C002040C3F81402096A0020012902BFD3F803
:10077C001C120A43C3F81C22D3F8002222F00102F7
:10078C00C3F8002270BD012DDFD1D3F80C520E68D6
:10079C001543C3F80C528D8803EBC00045EA06459F
:1007AC00C0F840528E688D89CBE7D3F80402104311
:1007BC00D0E7D3F814021043D3E7436A43F4802301
:1007CC004362012070BD38B590F820300446012BEF
:1007DC001FD10223026880F82030136823F0010334
:1007EC001360FFF703FF05462368586810F00100FB
:1007FC0001D1606238BDFFF7F9FE401B0A28F3D91E
:10080C00636A43F400336362052384F820300120CB
:10081C0038BD436A43F400234362F8E7F0B590F81F
:10082C002040013C012C6BD8066841B9F468A40740
:10083C0007D1436A43F4001343620120F0BD3469CD
:10084C00F5E70C013519D5F8B07107F0040797607E
:10085C00002F4BD1D5F8B0717F0D1760D5F8B07162
:10086C00264407F00207D760D5F8B47107F00F07DC
:10087C001761D5F8B471D5F8B451C7F307272D0C0F
:10088C0097615561D6F8B8211A7002682244D2F8E3
:10089C00B821120A5A7002682244D2F8B821120CFC
:1008AC009A7002682244D2F8B821120EDA700268EB
:1008BC002244D2F8BC211A7102682244D2F8BC211D
:1008CC00120A5A7102682244D2F8BC21120C9A7195
:1008DC0002681444D4F8BC21120EDA71036851B9C1
:1008EC00DA6842F02002DA600020F0BDD5F8B07171
:1008FC00FF085760B2E71A6942F020021A61F3E769
:10090C00436A43F4802397E790F82030013B012B96
:10091C0005D8026800205369194351617047436A36
:10092C0043F480234362012070477047704770473F
:10093C0070477047704770477047704770477047F3
:10094C0070472DE9F84F036805465E69D3F80490AB
:10095C0016F001049F68D3F80CB0D3F810A0D3F8AC
:10096C00188022D017F0010407D00122B9079A6031
:10097C0040F1A380FFF7D9FF0024FB0509D54FF404
:10098C0080722B68B8059A6040F1A5802846FFF765
:10099C00CDFFFB0309D54FF480322B68B8039A6066
:1009AC0040F1A7802846FFF7C2FF330707D51BF09D
:1009BC00100F1FBF10222B6844F40074DA60770705
:1009CC0008D51BF0080F05D008222B682846DA60E2
:1009DC00FFF7B1FFB00706D52B68DB68990702D08B
:1009EC002846FFF737FC720607D51AF0100F1FBF09
:1009FC0010222B6844F480641A61B30608D51AF0EF
:100A0C00080F05D008222B6828461A61FFF795FFBE
:100A1C00F70606D52B681B69980702D02846FFF706
:100A2C008BFFB10308D519F0100F05D010222B68DD
:100A3C0028465A60FFF782FFF20308D519F0080F19
:100A4C0005D008222B6828465A60FFF778FF33043C
:100A5C002AD519F0040F2A6824D0F70504D518F00C
:100A6C00010F18BF44F00104B00504D518F0020FB3
:100A7C0018BF44F00204710504D518F0040F18BF18
:100A8C0044F0040433050DD518F070030AD0302B54
:100A9C004CD03CD8102B43D0202B44D0936923F05E
:100AAC0070039361042353602CB16B6A28461C437A
:100ABC006C62FFF745FFBDE8F88F7A0705D417F095
:100ACC00080405D1FFF734FF57E74FF4006454E7EF
:100ADC004FF4805451E7790502D544F4005458E79B
:100AEC003A0502D544F4804453E72846FFF721FF2A
:100AFC004FE7790302D544F4004456E73A0302D594
:100B0C0044F4803451E72846FFF714FF4DE7502B8F
:100B1C000FD0602B10D0402BC0D144F04004BDE767
:100B2C0044F00804BAE744F01004B7E744F020049A
:100B3C00B4E744F08004B1E744F48074AEE70000FD
:100B4C00074A0002D36800F4E06023F4E0631B045E
:100B5C001B0C43F0BF6343F400330343D360704773
:100B6C0000ED00E0174B30B5DC68C4F30224C4F18F
:100B7C000703251D042B28BF0423062D4FF0010568
:100B8C0098BF002405FA03F303F1FF3388BF033C3D
:100B9C001940A14005FA04F4013C2240002842EA25
:100BAC0001024FEA0212A9BF00F16040064BD2B21B
:100BBC0000F56140BBBF00F00F00D2B280F80023FB
:100BCC001A5430BD00ED00E014ED00E0002808DB05
:100BDC000123420900F01F0003FA00F0014B43F817
:100BEC002200704700E100E00138B0F1807F0AD2AA
:100BFC00F021064B064A586082F823100020072289
:100C0C0098601A6070470120704700BF10E000E048
:100C1C0000ED00E02DE9F74F00242646664BDFF887
:100C2C00A8E1DFF8A8C10A6832FA06F502D103B0D0
:100C3C00BDE8F08F4FF0010808FA06F802EA080246
:100C4C0090457FD14D68122D00F0AA8000F2838070
:100C5C00022D00F0A28077D8002D00F08980012DA4
:100C6C0000F099804FF00F09FF2A93BF824606F1DE
:100C7C008045083DD0F800B092BFB500D0F804B064
:100C8C00AD0009FA05F82BEA080804FA05F588BF47
:100C9C0000F1040A48EA0505CAF80050D1F804A08E
:100CAC001AF0805F4ED0454D444FAD6926F00308D5
:100CBC0045F00105BD61BD6908F1804805F00105ED
:100CCC00019508F5803806F0030B019D4FEA8B0B5C
:100CDC00D8F8085009FA0BF925EA0909384DA84249
:100CEC0063D005F58065A84261D005F58065A84202
:100CFC005FD005F58065A8420CBF0325042505FAD5
:100D0C000BF545EA0905C8F808501D681AF4803F30
:100D1C0014BF154395431D605D681AF4003F14BF62
:100D2C00154395435D609D681AF4801F14BF1543ED
:100D3C0095439D60DD681AF4001F14BF2A4325EA11
:100D4C000202DA6001366EE7032D22D0112D89D113
:100D5C00CC68043486E71B4FBD4209D012D8DFF8AB
:100D6C0070904D4504D009F580394D457FF47AAF2C
:100D7C008C68C4B1012C0CBFC0F81080C0F8148072
:100D8C0008246FE77545F3D06545F1D0DFF8449042
:100D9C00EBE7002466E7CC6864E7CC68083461E7CD
:100DAC00CC680C345EE704245CE70025A7E701253A
:100DBC00A5E70225A3E700BF000401400010024094
:100DCC00000801400000211000003110000032101A
:100DDC0000001110000022100AB1016170470904D3
:100DEC00FBE7C36803EA010221EA030141EA02417D
:100DFC00016170477047000008B5044B5969014206
:100E0C0002D05861FFF7F6FF08BD00BF0004014097
:100E1C002DE9F341054608B901203CE00368DB07E6
:100E2C0010D42B689F075DD42B68190700F19480B0
:100E3C002B685A0700F1BE80E869002840F02C812D
:100E4C00002028E08F4C636803F00C03042B07D0C0
:100E5C00636803F00C03082B09D16368DE0306D525
:100E6C0023689C03DDD56B68002BDAD1D4E76B6863
:100E7C00B3F5803F12D1236843F480332360FFF72E
:100E8C00B5FB064623689803CBD4FFF7AFFB801B5A
:100E9C006428F7D9032002B0BDE8F0819BB9236820
:100EAC0023F480332360236823F480232360FFF72B
:100EBC009DFB064623689903B3D5FFF797FB801B70
:100ECC006428F7D9E6E7B3F5A02F236803D143F4E0
:100EDC0080232360CFE723F480332360236823F43B
:100EEC008023CBE7674C636813F00C0F07D0636863
:100EFC0003F00C03082B10D16368DA030DD42368BC
:100F0C009B0702D52B69012B86D123686A6923F0D4
:100F1C00F80343EAC203236086E72A695A4B6AB195
:100F2C0001221A60FFF762FB064623689F07ECD488
:100F3C00FFF75CFB801B0228F7D9ABE71A60FFF7C1
:100F4C0055FB0646236898077FF56EAFFFF74EFBFF
:100F5C00801B0228F6D99DE7AA694A4C4B4BDAB1A3
:100F6C0001221A60FFF742FB0646636A9B070DD508
:100F7C004FF4FA52464B1B68B3FBF2F3019300BFDC
:100F8C00019B5A1E0192002BF9D151E7FFF72EFB62
:100F9C00801B0228E9D97DE71A60FFF727FB06467C
:100FAC00636A9F077FF544AFFFF720FB801B022885
:100FBC00F6D96FE7334CE369D80024D40127E369F1
:100FCC0043F08053E361E36903F080530093009B8B
:100FDC00304E3368D90518D5EB68012B26D1236A1E
:100FEC0043F001032362FFF701FB41F28836804690
:100FFC00236A9B073FD5002F3FF41EAFE36923F014
:10100C008053E36118E70027E2E7336843F4807309
:10101C003360FFF7EBFA80463368DA05DCD4FFF770
:10102C00E5FAA0EB08006428F6D933E7ABB9236ADC
:10103C0041F2883823F001032362236A23F004036E
:10104C002362FFF7D3FA0646236A9807D3D5FFF736
:10105C00CDFA801B4045F7D91CE7052B236A03D139
:10106C0043F004032362BAE723F001032362236AEB
:10107C0023F00403B6E7FFF7B9FAA0EB0800B0427F
:10108C00B6D907E7001002400000424280044242F9
:10109C0000000020007000402A4B5A681C4602F0E9
:1010AC000C02082A3DD00023274E022833602BD196
:1010BC00FFF79CFA0746236899011FD42B6AB3F5F6
:1010CC00803F05D16268A96822F400320A4362604D
:1010DC00696A62680B4322F4741213436360012340
:1010EC003360FFF783FA054623689A013FF5A8AEF3
:1010FC00FFF77CFA401B0228F6D9CBE6FFF776FA0D
:10110C00C01B0228D7D9C5E6FFF770FA054623683D
:10111C009B017FF595AEFFF769FA401B0228F6D9C3
:10112C00B8E601283FF4B7AE58682B6A00F4803259
:10113C009A427FF471AE6B6A00F47010C01A18BF3B
:10114C000120A8E6001002406000424230B5194B65
:10115C0087B002AC03F110052246186859680833B1
:10116C0003C2AB421446F7D101238DF8043002239D
:10117C0011498DF805304B6803F00C02082A17D181
:10118C00C3F3834206A80244DB0312F8102C0CD5DF
:10119C004B680A48C3F34043504306AA134413F860
:1011AC00143CB0FBF3F007B030BD05485043FAE7F0
:1011BC000248F8E7781800080010024000127A0084
:1011CC0000093D002DE9F0410D46044610B90120FF
:1011DC00BDE8F081454A136803F007038B4229D31D
:1011EC0021688E0731D4CA0744D4404A136803F0EF
:1011FC0007039D4267D322683D4D12F0040F6ED158
:10120C00130706D56B68226923F4605343EAC203C3
:10121C006B60FFF79BFF6B68364AC3F30313D35C19
:10122C00D840354B1860354B1868FFF79DF90020F6
:10123C00BDE8F081136823F007030B4313601368B8
:10124C0003F007039942C2D1CAE7294B11F0040FEE
:10125C001EBF5A6842F4E0625A60080742BF5A68DF
:10126C0042F460525A605A68A06822F0F0020243BD
:10127C005A60B8E762681E4E012A33681BD113F41A
:10128C00003FA4D0736841F2883823F00303134362
:10129C007360FFF7ABF907467368626803F00C03E1
:1012AC00B3EB820FA1D0FFF7A1F9C01B4045F3D9D6
:1012BC000320BDE8F081022A02D113F0007FE0E7A1
:1012CC0013F0020FDDE7136823F007032B431360C1
:1012DC00136803F007039D427FF479AF8BE76B68CB
:1012EC00E16823F4E0630B436B6089E70020024064
:1012FC0000100240881800080000002008000020A0
:10130C0070477047704770477047036810B51A698B
:10131C00044691070ED5DA6892070BD56FF00202DE
:10132C001A6101229B6902779B0777D0FFF7EAFFCE
:10133C000023237723681A69500710D5DA68510700
:10134C000DD56FF004021A6102229B69227713F407
:10135C00407F204668D0FFF7D5FF00232377236812
:10136C001A6912070FD5DA6810070CD56FF008024E
:10137C001A610422DB692277990720465AD0FFF7BD
:10138C00C1FF0023237723681A69D20610D5DA68C7
:10139C00D0060DD56FF010021A610822DB69227796
:1013AC0013F4407F20464BD0FFF7ACFF002323778C
:1013BC0023681A69D10708D5DA68D20705D56FF00A
:1013CC00010220461A61FFF79BFF23681A69100679
:1013DC0008D5DA68110605D56FF0800220461A612F
:1013EC0000F0E5F923681A69520608D5DA68500648
:1013FC0005D56FF0400220461A61FFF785FF236880
:10140C001A69910622D5DA6892061FD56FF0200270
:10141C002046BDE810401A6100F0C8B9FFF771FF13
:10142C002046FFF770FF83E7FFF76BFF2046FFF7BF
:10143C006AFF92E7FFF765FF2046FFF764FFA0E71E
:10144C00FFF75FFF2046FFF75EFFAFE710BD000020
:10145C001A4A036890420AD0B0F1804F07D0A2F527
:10146C009432904203D002F58062904215D14A68C2
:10147C0023F070031343114A90420AD0B0F1804F0D
:10148C0007D0A2F59432904203D002F580629042CC
:10149C0003D1CA6823F4407313434A6923F08003D1
:1014AC00134303608B68C3620B688362034B9842DF
:1014BC0004BF0B690363012343617047002C014097
:1014CC0010B5044630B390F83D3003F0FF021BB961
:1014DC0080F83C20FFF72AF80223206884F83D307E
:1014EC00211DFFF7B5FF0123002084F8463084F856
:1014FC003E3084F83F3084F8403084F8413084F832
:10150C00423084F8433084F8443084F8453084F811
:10151C003D3010BD012010BD10B584680A4324F481
:10152C007F4442EA03232343836010BD90F83C3090
:10153C0070B5012B04464FF0020019D0012384F83A
:10154C003D00206884F83C30836823F47F4323F00B
:10155C00770383600B68402B65D015D8102B0CD00B
:10156C0007D853B10123002084F83D3084F83C00A7
:10157C0070BD202B01D0302BF4D1826843F00703CF
:10158C0022F0700213431AE0602B34D019D8502B80
:10159C00E8D14A68CE68016A056A21F00A0125F093
:1015AC000105056283690A4323F0F00343EA06133D
:1015BC0083610262836823F0700343F057038360F6
:1015CC00D0E7702B0CD0B3F5005FCBD1CB684A6859
:1015DC008968FFF7A1FF2268936843F4804308E011
:1015EC00CB684A688968FFF797FF2268936843F0D5
:1015FC0077039360B6E74D68CE68016A21F010015D
:10160C0001628269036A22F4704223F0A00343EA68
:10161C00051342EA063282610362836823F0700389
:10162C0043F06703CBE74A68CE68016A056A21F08C
:10163C000A0125F00105056283690A4323F0F003D2
:10164C0043EA061383610262836823F0700343F05C
:10165C004703B4E7006838B583684A6823F0700321
:10166C000C68134323F007032343502A83601ED0D6
:10167C0003D8402A0BD0002038BD602A27D0702A0E
:10168C00F9D10B698A68C968FFF746FFF3E7052CA7
:10169C0030D0026A036A096923F00103036283698B
:1016AC0023F0F00343EA011383610262E3E78A68E3
:1016BC000D69016A046A21F00A0124F00104046234
:1016CC0083690A4323F0F00343EA0513ECE78C68C3
:1016DC000D69016A21F0100101628269036A22F42A
:1016EC00704223F0A00342EA053243EA04138261FC
:1016FC000362C0E7012038BD38B590F83C30044691
:10170C00012B4FF002031CD0012580F83D3080F8EE
:10171C003C50FFF79FFF30B1002384F83D5084F814
:10172C003C30284638BD2368DA6822F04002DA6083
:10173C00DA6822F48042DA6084F83D5084F83C0088
:10174C0038BD184638BD000090F83C3030B5012B40
:10175C004FF0020325D0012280F83D3003680D685C
:10176C005C6880F83C2024F070042C439A685C6020
:10177C000D4CA3420AD0B3F1804F07D0A4F594349A
:10178C00A34203D004F58064A34204D1496822F03B
:10179C0080020A439A60012380F83D30002380F8D0
:1017AC003C30184630BD00BF002C014070477047DC
:1017BC00002103E00B4B5B58435004310A480B4BA0
:1017CC0042189A42F6D30A4A02E0002342F8043B3C
:1017DC00084B9A42F9D3FEF763FE00F00FF8FEF7C0
:1017EC00FDFD7047A0180008000000200C00002030
:1017FC000C000020C4000020FEE7000070B500259E
:10180C000C4E0D4CA41BA410A54209D100F022F8DB
:10181C0000250A4E0A4CA41BA410A54205D170BD8C
:10182C0056F8253098470135EEE756F8253098479D
:10183C000135F2E798180008981800089818000865
:10184C009C18000803460244934200D1704703F8E9
:10185C00011BF9E7F8B500BFF8BC08BC9E46704701
:0C186C00F8B500BFF8BC08BC9E467047F1
:1018780002030405060708090A0B0C0D0E0F1010C9
:101888000000000000000000010203040607080928
:041898003101000812
:04189C000D01000832
:0C18A0000024F400010000001000000013
:04000005080017BD1B
:00000001FF
