:020000040800F2
:100000000050002061280008591400085B14000803
:100010005D1400085F14000861140008000000006F
:100020000000000000000000000000006314000851
:100030006514000800000000671400086914000837
:10004000A9280008A9280008A9280008A92800084C
:10005000A9280008A9280008A92800086D1400088C
:10006000A9280008A9280008A9280008A92800082C
:10007000A9280008A9280008A9280008A92800081C
:10008000A9280008A9280008A92800088514000844
:100090008114000875140008A9280008A928000880
:1000A000A9280008A9280008A9280008A9280008EC
:1000B000A928000889140008A9280008A928000810
:1000C000A9280008A9280008A9280008A9280008CC
:1000D000A9280008A9280008A9280008A9280008BC
:1000E000A9280008A9280008A92800080000000085
:1000F0000000000000000000000000000000000000
:0C01000000000000000000005FF808F1A3
:10010C0010B5054C237833B9044B13B10448AFF345
:10011C0000800123237010BD70000020000000003F
:10012C00BC29000808B5034B1BB103490348AFF3C6
:10013C00008008BD0000000074000020BC290008ED
:10014C0003685A004CBF43F0004323F000431844AB
:10015C00704700BF61B32DE9F84F01F1FF3A9046AB
:10016C000646D146002707EB090404EBD47464104F
:10017C00E50071190846FFF7E3FFA245834605F138
:10018C000800304409D0FFF7DBFFC34500F1FF3016
:10019C0005D8404509D2671CE5E7C34505D9A742F8
:1001AC0002D004F1FF39DEE700210846BDE8F88FE4
:1001BC0008467047012807D0022807D0044B0028B6
:1001CC000CBF184600207047024870470248704721
:1001DC00D1080008D5080008D908000830B5254B0F
:1001EC0083B004468D1E73B301A92846AFF300807B
:1001FC0018B301992A46FFF7ADFF0146E8B1FFF7A6
:10020C009FFF4B68A064012B11D0002B22DB081D33
:10021C00FFF796FF0023E06423650368002B1EDBC9
:10022C00FFF78EFF00232061184603B030BD052375
:10023C0000221846226103B030BD09230022184663
:10024C00226103B030BD0C4B0C491846C91AC910B9
:10025C000191CFE70123081DE0642365DDE7C3F3BB
:10026C000360FFF7A7FF0028206114BF00230923B8
:10027C00DAE700BF00000000242A0008F42A000876
:10028C00036810B5DA07044606D49B0700F1480052
:10029C0009D500F057FC2368590709D51A070ED564
:1002AC00DB0613D510BD00F045FC23685907F5D4C7
:1002BC0004F1D00000F04EFC23681A07F0D404F5CA
:1002CC00A87000F04FFC2368DB06EBD404F5E87053
:1002DC00BDE8104000F08ABC036803B10344184623
:1002EC00704700BF09207047704700BF70B50446C7
:1002FC000D4608E02A6C2369626121462A460120DA
:10030C009847082808D1296C2046FFF767FF064656
:10031C000028EFD002F0F6FA0728FBD13046296C02
:10032C00FFF7E2FF281D00F0F9FB00BF2DE9F047B5
:10033C0005460027ADF5727D03AC0E1D92460FCE1F
:10034C000FC40FCE0FC40FCE0FC496E80F00D5F814
:10035C000C80D5F8189084E80F0002AC2846216C6C
:10036C002760FFF73BFFBAF1000F074614BF0A26C0
:10037C0009267FB1A36B46F010018DE810022A46C6
:10038C00636401202B46C04778BB38460DF5727D5F
:10039C00BDE8F087236C4FF4F0726B6121467AA8AC
:1003AC0002F0B7FA2B697AAA294630469847889BFF
:1003BC0082468DE81002314663642A462B460120A2
:1003CC00C04790B94FF4F0727AA9204602F0A1FA16
:1003DC00BAF1080F06D1216C2846FFF7FFFE09265B
:1003EC000746C6E7BAF1070F05D0092738460DF5C1
:1003FC00727DBDE8F0873846216CFFF775FF03A8C6
:10040C0000F08CFB406C7047F0B54FF0FF3ECB6BAF
:10041C00F9B00B640E1D01AD0F4604460FCE0FC58F
:10042C000FCE0FC50FCE0FC596E80F0085E80F0055
:10043C00CDF800E006E023696A4621469847082873
:10044C00054608D110992046FFF7C8FE0028F2D0C7
:10045C00092079B0F0BD6846FFF712FF062DF7D1E1
:10046C0039462046FFF742FF30B4DD6BC160826134
:10047C0019461D64002230BC58E700BF70B54369B3
:10048C00C6680B6426B10122FFF750FF02F03AFA5E
:10049C0003690A4604460D46014602209847072880
:1004AC0007D0082803D129462046FFF71FFF02F08A
:1004BC0029FA3046296CFFF717FF281D00F02EFB98
:1004CC00C2682AB110B4CC6B00220C6410BC2DE7AE
:1004DC009AE700BF704700BF836813B10146012043
:1004EC001847704700B5042907D8DFE801F0030965
:1004FC00060909000BB90F2A05D902205DF804FB87
:10050C0001205DF804FB00EB820252681846019B47
:10051C001A605DF804FB00BF002310B584B003AC77
:10052C000A4600941946FFF7DDFF039804B010BD8E
:10053C0000B5042907D8DFE801F003090609090012
:10054C000BB90F2A05D902205DF804FB01205DF8D8
:10055C0004FB019900EB82020968184651605DF8B2
:10056C0004FB00BF002310B584B004AC44F8042D88
:10057C0000940A461946FFF7DBFF04B010BD00BF1C
:10058C00F0B54FF0FF3ED36BADF50F7D1364151D29
:10059C0017AC07460E460FCD0FC40FCD0FC40FCDB1
:1005AC000FC495E80F0084E80F00CDF858E012E076
:1005BC000C2116A86A46FFF7D5FF314616A8B84796
:1005CC0078B9049B16AA6946082098470528044662
:1005DC0008D0092805D026996846FFF7FFFD0028AA
:1005EC00E6D0092416A8FFF74BFE20460DF50F7D2B
:1005FC00F0BD00BF2DE9F04FCC6C914622688BB05A
:10060C0004340D460792089400F0030B1E46002B91
:10061C0060D10323120207928DF825608DF82430E7
:10062C002B6DBBF1020F08BFAC6B13F0010340D173
:10063C00019300F008030393D4F80080B8F1000F85
:10064C0039D0022E43D0B4F8008067880434AB6CE8
:10065C0027F0010A0F2148469A44FFF75DFF8245B7
:10066C0033D828F001039A4450452CBF00200120B8
:10067C007F0007F0020708F0010847EA0807012F7E
:10068C003ED035D3022F1CD1236823F000420292B6
:10069C00BBF1000F76D128B1039900297ED0002A36
:1006AC0000F0A680002B77DB029B013304EB830464
:1006BC00C2E700230193022E3EDDFFF713FE002854
:1006CC0040D009200BB0BDE8F08F0020D0E7676860
:1006DC000834BCE7022BA3DC0221130C8DF8253067
:1006EC001204DBB204EB830407928DF8241097E715
:1006FC00BBF1000F02D0002840F0BD8004349BE712
:10070C00BBF1000F25D1A8B194E80C00991C4FEA5D
:10071C00D272D6D005F158010133069100F0A380B6
:10072C00201DFFF7D9FD06AB01462846AFF300802C
:10073C00002877D108347FE707A9484600F0F0FA83
:10074C000028BED1019B002B5CD108200BB0BDE86A
:10075C00F08F0D2148462F6AFFF7DEFE8742E9D164
:10076C00AB6A9C42E6D12046FFF7EAFC0F21024619
:10077C004846FFF7F7FE48462A460021FFF7F2FEEF
:10078C0007209FE70D2148462F6AFFF7C5FE8742D9
:10079C0058D02368002B87DA043485E7029B3BB3DF
:1007AC0005F15803271DCDF810B0DDF80C80A346D9
:1007BC00DDF808A01C46059602E0B245B04616D0FE
:1007CC0038460694FFF788FD06AB01460022284602
:1007DC00AFF3008008F1010604370028EDD0029B2E
:1007EC005C464345DDF810B0059ED2D100E05C4676
:1007FC0048460D21FFF790FE069B2862AC626B62A7
:10080C0006205FE70F214846FFF786FE0E210246C1
:10081C004846FFF7A7FE4846294A0F21FFF7A2FEDC
:10082C0007204FE707460D214846FFF775FE022FBC
:10083C0028621DD12B46069A43F82C2F6B62AC62B2
:10084C0006203FE7AB6A9C42A3D104220027029901
:10085C00A318A962EF622A636B632368BB421DDB9A
:10086C000123019320E748460D21FFF755FE28622E
:10087C00069B6B62E3E72046FFF762FC04340646F6
:10088C00AC632846AFF3008000283FF41AAF48460B
:10089C0032460F21FFF766FE072013E708460130AA
:1008AC0004EB8000FFF74CFC0F2102464846FFF793
:1008BC0059FE48462A463946FFF754FE072001E701
:1008CC0000000000002395E6012393E6022391E645
:1008DC00F0B50446C5B004290DD8DFE801F0550386
:1008EC000C310F00012B4FEA124695B264D17219EC
:1008FC00102A40F29D80022045B0F0BD002BFAD1A9
:10090C00102AF8D82368D80600F1C88022AE3046E9
:10091C000192012500F074F90023A06B019A05FAED
:10092C0003F1114203D00168043046F8231001335F
:10093C00042BF4D1A063304600F058F90020DBE71B
:10094C00032BD8D1150C97B2EB19102BD3D82368E5
:10095C001E0700F1B78022AE304600F025F9ED00FD
:10096C00A06B5FB1043D0346711900EBC70053F84F
:10097C00042B834241F8042FF9D11846A06330466A
:10098C0000F0F0F80020B7E7002BB4D10127A56BDD
:10099C0096B2201D07FA03F1314203F1010302D094
:1009AC00296804350160102B00F10400F2D112F417
:1009BC0000503BD1A5639FE7052B9CD17719202FC5
:1009CC0099D80F2E66D92F46002D3AD12A460027EA
:1009DC00002AA06B72DD00EBC202014644A800EBBA
:1009EC00C6008C3851F8045B914240F8045FF9D191
:1009FC00084697B1102E324638BF102244A901EB9D
:100A0C00C202A2F5C4727900043A00EB810150F8DD
:100A1C00045B884242F8045FF9D1012B48D00F2EB9
:100A2C00A16333D917B102A800F094F8002063E752
:100A3C000F2E3FF660AF00272268D10717D4002F86
:100A4C0060D02268510745D4012B4DD00F2E06D80B
:100A5C0022A8019300F07AF8019B002FB6D002A8CF
:100A6C00019300F07BF8019BC6F11002B0E722F075
:100A7C000101052B2160019320463BD022F003029B
:100A8C0040F8482B00F05AF8019BD8E722A800F058
:100A9C0059F8C7E7102FCED9103FCDE723F010033C
:100AAC00236004F5E870019200F0AAF8019A2DE792
:100ABC000431A16322A800F03DF8B7E7002F99D1CB
:100ACC000146AAE723F00803236004F5A87000F0A0
:100ADC006BF840E7204622F0040240F8D02B01933B
:100AEC0000F03CF8019BAFE722A8019300F026F838
:100AFC00019BB9E741F0020140F8481B00F026F8D1
:100B0C00019B9CE7012B03D00F2E3FF65FAF9FE7B5
:100B1C0022A8019300F012F8019B57E700F1340171
:100B2C0091E838009C46A6464CF8045D90E8FF0F0F
:100B3C00E54600BD90EC210B704700BF80EC210B0B
:100B4C00704700BF90EC200B704700BF80EC200B6F
:100B5C00704700BFD0EC200B704700BFC0EC200BDF
:100B6C00704700BFF0EC0201F0EC0211F0EC022136
:100B7C00F0EC0231F0EC0241F0EC0251F0EC0261CD
:100B8C00F0EC0271F0EC0281F0EC0291F0EC02A1BD
:100B9C00F0EC02B1F0EC02C1F0EC02D1F0EC02E1AD
:100BAC00F0EC02F1704700BFE0EC0201E0EC021146
:100BBC00E0EC0221E0EC0231E0EC0241E0EC02510D
:100BCC00E0EC0261E0EC0271E0EC0281E0EC0291FD
:100BDC00E0EC02A1E0EC02B1E0EC02C1E0EC02D1ED
:100BEC00E0EC02E1E0EC02F1704700BFB0FC0181E7
:100BFC00B0FC0191B0FC01A1B0FC01B1704700BF89
:100C0C00A0FC0181A0FC0191A0FC01A1A0FC01B100
:100C1C00704700BFEC4600B52DE900502DE9FF1FD1
:100C2C004FF000032DE90C0001A9FFF7EDFBDDF8F7
:100C3C0040E012B0704700BFEC4600B52DE9005003
:100C4C002DE9FF1F4FF000032DE90C0001A9FFF760
:100C5C0015FCDDF840E012B0704700BFEC4600B563
:100C6C002DE900502DE9FF1F4FF000032DE90C007A
:100C7C0001A9FFF725FCDDF840E012B0704700BF7A
:100C8C00EC4600B52DE900502DE9FF1F4FF0000395
:100C9C002DE90C0001ABFFF7E7FBDDF840E012B0EB
:100CAC00704700BFEC4600B52DE900502DE9FF1F41
:100CBC004FF000032DE90C0001AAFFF761FCDDF8F1
:100CCC0040E012B0704700BF027A1AB9437A43B9B8
:100CDC00B02070470368013A02721A020260180EC3
:100CEC00704703214268013B10B443721368141D12
:100CFC0001721A024460026010BC180E704700BFEB
:100D0C00002300B585B003AA009219460C22FFF708
:100D1C00E9FB039805B05DF804FB00BFF0E700BFEA
:100D2C002DE9F04306460F464FF0000885B03846D3
:100D3C00FFF7CAFFB028044623D0050627D40023AA
:100D4C000DF10C09194685000D22CDF800903046A6
:100D5C00FFF7C8FBEDB2039B600605F104054CBF21
:100D6C005D1BED1800230D221946CDF8009030467E
:100D7C000395FFF7DDFB3846FFF7A6FFB0280446C6
:100D8C00DBD1B8F1000F00F0948000201CE000F0E3
:100D9C00F003802B5CD0902B19D0A02B2CD0B02B37
:100DAC003ED0C02B6BD000F0F803D02B0BD100F051
:100DBC000702013242F40022052301213046FFF7DD
:100DCC0087FD0028B3D0092005B0BDE8F08300F002
:100DDC000D030D2BF7D0002303AD00F00F021946C5
:100DEC0000953046FFF77EFB0023009519460D2237
:100DFC003046FFF79DFB9AE7C3434FF47F6203F045
:100E0C0007031A410023010702F47F6248BF42F432
:100E1C00804219463046FFF75BFD0028D3D186E7A8
:100E2C00B12857D0B22868D0B32800F0958000F0D4
:100E3C00FC03B42BC7D0012300F007021A4442F480
:100E4C00002219463046FFF743FD0028BBD16EE760
:100E5C003846FFF739FF24020443B4F5004FB2D0F3
:100E6C0000232401A2B219463046FFF731FD0028B9
:100E7C00A9D114F4004F18BF4FF0010857E7C6284A
:100E8C007DD0C72800F0868000F0F803C02B00F05E
:100E9C009480C82800F09F80C92894D13846FFF769
:100EAC0013FF020300F00F0002F470220130024322
:100EBC0082E703AC43460E22414600943046FFF7CE
:100ECC0011FB0094304643460F224146FFF730FB9E
:100EDC00404679E73846FFF7F7FE00283FF473AF3A
:100EEC0010F0F0037FF46FAF024619463046FFF75F
:100EFC00EFFC00287FF467AF19E700230DF10C0914
:100F0C000D221946CDF800903046FFF7EBFA384623
:100F1C00FFF7DAFE02064FF002040CD5039B00F03B
:100F2C007F00A040034438460393FFF7CDFE030631
:100F3C0004F10704F2D40023039900F07F02A240CD
:100F4C0001F501718C18CDF8009019460D22304630
:100F5C000394FFF7EDFAEAE63846FFF7B5FE0123F6
:100F6C00010300F00F0001F47021C2180A4330464F
:100F7C001946FFF7ADFC00287FF425AFD7E63846BD
:100F8C00FFF7A2FE010300F00F00032301F4702110
:100F9C00421CEBE73846FFF797FE00283FF413AFEF
:100FAC0010F0F0037FF40FAF024604213046FFF738
:100FBC008FFC00287FF407AFB9E6032300F00F0283
:100FCC00013242F4202219463046FFF781FC0028FA
:100FDC007FF4F9AEABE63846FFF776FE00F0F00290
:100FEC0000F00F031032013343EA0232E4E600BF93
:100FFC0030B503240D46C36C85B05A688DF80C408F
:10100C00DC791202083301A9284601928DF80D40B3
:10101C000293FFF785FE05B030BD00BF08B5FFF7A2
:10102C007DFE806C08BD00BF08B5FFF777FEC06C75
:10103C00C37900EB8300083008BD00BF08B501F090
:10104C0061FC00BF08B5FFF7F9FF00BF4FF4A02209
:10105C000E4808B54FF0050E02614FF480120C4B90
:10106C00426180E8084001220023C2768360C3609D
:10107C000376437683760377437700F0C1FA18B191
:10108C00BDE8084000F0B9B908BD00BF8C000020D5
:10109C000064004010B5044686B01022002102A85E
:1010AC0001F028FC2268214B9A423DD103F5D6333E
:1010BC00DA6902A942F00072DA61DA691C4802F0BE
:1010CC0000720092009A9A6942F004029A619B693C
:1010DC0003F004030193019B4FF40063029300F0AF
:1010EC00EBFD4FF48053029302230393032302A9D5
:1010FC000F48059300F0E0FD00221320114600F08C
:10110C0083FD132000F0B4FD00221420114600F0E2
:10111C007BFD142000F0ACFD00221520114600F0E0
:10112C0073FD152000F0A4FD06B010BD0064004056
:10113C00000801400023084901224B618B610B60C0
:10114C004B608B60CB600B610E230448CA610A6252
:10115C004B6200F0D0BA00BFB40000208C0000201D
:10116C000023012240F21E2100B58BB08DF8200027
:10117C00059204930393019102928DF8183008AAFA
:10118C0007AB01A9054800F04DFB4FF48061044802
:10119C0000F079FE0BB05DF804FB00BF8C00002062
:1011AC000010014000B58BB008AB6A46002100F07E
:1011BC0087FB4FF40061034800F065FE0BB05DF84F
:1011CC0004FB00BF0010014010222DE9F04389B050
:1011DC000DEB0200002101F08DFB3C4B3C4F9A695A
:1011EC00384642F010029A619A694FF4406102F05D
:1011FC0010020092009A9A69032442F020029A612C
:10120C009A69072502F020020192019A9A69002638
:10121C0042F004029A619A694FF0020802F004024B
:10122C000292029A9A69DFF8BC9042F008029A6125
:10123C009B69002203F008030393039B00F01EFE3E
:10124C004FF2FF3304A938460493059400F034FDA3
:10125C0004A920480495059400F02EFD48F2FD7376
:10126C0004A948460493059400F026FD1A4B04A9E2
:10127C0048460593CDF81080069600F01DFD4FF6FC
:10128C00FF7304A915480493059400F015FD4FF461
:10129C0040630493012304A9384605930696CDF8C0
:1012AC001C8000F009FD0E4A31465368284643F075
:1012BC00E06343F400435360324600F0A5FC28463B
:1012CC0000F0D6FC09B0BDE8F08300BF001002406E
:1012DC00001001400014014000001110000C0140EE
:1012EC00000001400008014080B582B000AF00F062
:1012FC0063F900F03DF8FFF767FFFFF7A7FE00F07A
:10130C00D5F8FFF717FF174800F061FA02211548CE
:10131C0000F04CFB0346002B0CBF01230023DBB277
:10132C00002B04D04FF480610F4800F0ACFD01237A
:10133C00FB7100233B603B680C4A9342F9D83B6835
:10134C00002B0BD1FB790A2B01DD0123FB71FB79FF
:10135C001846FFF705FFFB790133FB713B6801333E
:10136C003B60E8E78C00002000100140EF490200D0
:10137C0080B590B000AF07F1180328220021184661
:10138C0001F0B8FA3B1D00221A605A609A60DA60CC
:10139C001A610223BB610123BB621023FB62002391
:1013AC007B6307F11803184600F084FD0346002BFD
:1013BC0014BF01230023DBB2002B01D000F01DF879
:1013CC000F237B600023BB600023FB6000233B6189
:1013DC0000237B613B1D0021184600F045FF0346AE
:1013EC00002B14BF01230023DBB2002B01D000F033
:1013FC0004F800BF4037BD4680BD80B400AF00BFCD
:10140C00BD4680BC704700000E4B82B09A6942F01A
:10141C0001029A619A6902F001020092009ADA695B
:10142C0042F08052DA61DB69074A03F08053019382
:10143C00019B536823F0E06343F00073536002B0E8
:10144C00704700BF00100240000001407047FEE7EB
:10145C00FEE7FEE7FEE770477047704700F0BEB846
:10146C00022000F01BBD0000014800F0BCBA00BF18
:10147C008C000020FFF7F8BFFFF7F6BF014800F023
:10148C0096BF00BFDC0000200120704708B501F0BA
:10149C0007FA162303604FF0FF3008BD08B501F0C2
:1014AC00FFF916230360FEE77047000010B58CB0FF
:1014BC001022002103A801F01DFA1422002107A814
:1014CC0001F018FA0023402218481949019302939D
:1014DC0080E8060083604FF47A7203618023C26057
:1014EC00836101F03FF808B1FFF787FF4FF4805399
:1014FC0003A90E48039301F06BF808B1FFF77DFFC9
:10150C00002407A909480794089401F047F908B189
:10151C00FFF773FF01A905480194029401F066F9E5
:10152C0008B1FFF76AFF0CB010BD00BFDC00002053
:10153C000004004007B50D4B02689A4212D103F526
:10154C000333DA691D2042F00202DA610022DB6902
:10155C00114603F002030193019B00F055FB1D2083
:10156C0000F086FB03B05DF804FB00BF00040040F4
:10157C0038B50E4B054618784FF47A73B3FBF0F37D
:10158C000B4A1068B0FBF3F000F080FB044658B92E
:10159C000F2D09D8024629464FF0FF3000F034FBDE
:1015AC00044B20461D6038BD012038BD04000020CE
:1015BC000000002008000020074A08B5136803202B
:1015CC0043F01003136000F00DFB0020FFF7D0FF79
:1015DC00FFF71AFF002008BD00200240034A044B0D
:1015EC0011681B780B441360704700BF2401002066
:1015FC0004000020014B1868704700BF2401002034
:10160C0038B5044600286ED090F820300BB9FFF79F
:10161C0041FD2268136823F002031360FFF7EAFF11
:10162C00054623685A68910751D41A6842F00102A2
:10163C001A60FFF7DFFF054623685A68D20754D5B6
:10164C00227E0020012A1A680CBF42F0800222F090
:10165C0080021A60627E012A1A680CBF42F04002B6
:10166C0022F040021A60A27E012A1A680CBF42F0D6
:10167C00200222F020021A60E27E012A1A680CBFB6
:10168C0022F0100242F010021A60227F012A1A681E
:10169C000CBF42F0080222F008021A60627F012A95
:1016AC001A680CBF42F0040222F004021A60E168CE
:1016BC00A2680A4321690A4361690A4361680139D6
:1016CC000A43DA610123606284F8203038BDFFF7E9
:1016DC0091FF401B0A28A4D9636A43F40033636268
:1016EC00052384F82030012038BDFFF783FF401B11
:1016FC000A28A1D9F0E790F8203070B5013B012BF6
:10170C005FD8012403684869D3F8002242F0010233
:10171C00C3F8002200F01F0204FA02F2D443D3F8FB
:10172C001C522540C3F81C52CD6985BBD3F80C5212
:10173C00CE682540C3F80C528D8803EBC00045EAF7
:10174C000645C0F840528E680D8845EA0645C0F83B
:10175C004452886968BBD3F804022040C3F80402E1
:10176C00086950BBD3F814022040C3F81402096A6C
:10177C000020012902BFD3F81C120A43C3F81C2213
:10178C00D3F8002222F00102C3F8002270BD012D13
:10179C00DFD1D3F80C520E681543C3F80C528D8868
:1017AC0003EBC00045EA0645C0F840528E688D89AF
:1017BC00CBE7D3F804021043D0E7D3F8140210435C
:1017CC00D3E7436A43F480234362012070BD38B5EC
:1017DC0090F820300446012B1FD10223026880F8B8
:1017EC002030136823F001031360FFF703FF054655
:1017FC002368586810F0010001D1606238BDFFF712
:10180C00F9FE401B0A28F3D9636A43F40033636280
:10181C00052384F82030012038BD436A43F40023AB
:10182C004362F8E7F0B590F820500668013D012DB1
:10183C00B46841D814F0E05F3AD0C4F30164032CCF
:10184C004FF0010505D1436A43F4000343620120C4
:10185C00F0BDA5401D608868CF6804F1180310BB6B
:10186C00086847EA40501B01F05008692401097DC3
:10187C003319C3F88401012908BFD3F88411344407
:10188C0004BF41F48071C3F8841151680020C4F87E
:10189C008C111268C4F88821D3F8802142F001021F
:1018AC00C3F88021F0BD4D68384340EAC500DAE743
:1018BC00436A43F40013C9E7436A43F48023C5E742
:1018CC00F0B590F82040013C012C6BD8066841B96A
:1018DC00F468A40707D1436A43F400134362012060
:1018EC00F0BD3469F5E70C013519D5F8B07107F086
:1018FC0004079760002F4BD1D5F8B0717F0D17609E
:10190C00D5F8B071264407F00207D760D5F8B4714A
:10191C0007F00F071761D5F8B471D5F8B451C7F3B8
:10192C0007272D0C97615561D6F8B8211A700268FB
:10193C002244D2F8B821120A5A7002682244D2F812
:10194C00B821120C9A7002682244D2F8B821120EF7
:10195C00DA7002682244D2F8BC211A71026822445F
:10196C00D2F8BC21120A5A7102682244D2F8BC2166
:10197C00120C9A7102681444D4F8BC21120EDA715C
:10198C00036851B9DA6842F02002DA600020F0BD39
:10199C00D5F8B071FF085760B2E71A6942F020021F
:1019AC001A61F3E7436A43F4802397E790F82030F9
:1019BC00013B012B05D80268002053691943516182
:1019CC007047436A43F48023436201207047704799
:1019DC007047704770477047704770477047704743
:1019EC007047704770472DE9F84F036805465E69EC
:1019FC00D3F8049016F001049F68D3F80CB0D3F818
:101A0C0010A0D3F8188022D017F0010407D00122BF
:101A1C00B9079A6040F1A380FFF7D9FF0024FB05BA
:101A2C0009D54FF480722B68B8059A6040F1A580F7
:101A3C002846FFF7CDFFFB0309D54FF480322B6806
:101A4C00B8039A6040F1A7802846FFF7C2FF33071E
:101A5C0007D51BF0100F1FBF10222B6844F4007425
:101A6C00DA60770708D51BF0080F05D008222B6821
:101A7C002846DA60FFF7B1FFB00706D52B68DB68A4
:101A8C00990702D02846FFF78DFB720607D51AF08E
:101A9C00100F1FBF10222B6844F480641A61B30628
:101AAC0008D51AF0080F05D008222B6828461A61B1
:101ABC00FFF795FFF70606D52B681B69980702D030
:101ACC002846FFF78BFFB10308D519F0100F05D08E
:101ADC0010222B6828465A60FFF782FFF20308D5C4
:101AEC0019F0080F05D008222B6828465A60FFF71A
:101AFC0078FF33042AD519F0040F2A6824D0F7058F
:101B0C0004D518F0010F18BF44F00104B00504D53A
:101B1C0018F0020F18BF44F00204710504D518F038
:101B2C00040F18BF44F0040433050DD518F07003EE
:101B3C000AD0302B4CD03CD8102B43D0202B44D087
:101B4C00936923F070039361042353602CB16B6A87
:101B5C0028461C436C62FFF745FFBDE8F88F7A07F7
:101B6C0005D417F0080405D1FFF734FF57E74FF4FD
:101B7C00006454E74FF4805451E7790502D544F4DE
:101B8C00005458E73A0502D544F4804453E72846FC
:101B9C00FFF721FF4FE7790302D544F4004456E7E1
:101BAC003A0302D544F4803451E72846FFF714FF7A
:101BBC004DE7502B0FD0602B10D0402BC0D144F0F0
:101BCC004004BDE744F00804BAE744F01004B7E75A
:101BDC0044F02004B4E744F08004B1E744F480748A
:101BEC00AEE70000074A0002D36800F4E06023F47B
:101BFC00E0631B041B0C43F0BF6343F4003303434B
:101C0C00D360704700ED00E0174B30B5DC68C4F3CF
:101C1C000224C4F10703251D042B28BF0423062D21
:101C2C004FF0010598BF002405FA03F303F1FF33CD
:101C3C0088BF033C1940A14005FA04F4013C224042
:101C4C00002842EA01024FEA0212A9BF00F16040EB
:101C5C00064BD2B200F56140BBBF00F00F00D2B210
:101C6C0080F800231A5430BD00ED00E014ED00E0C4
:101C7C00002808DB0123420900F01F0003FA00F0E2
:101C8C00014B43F82200704700E100E00138B0F14D
:101C9C00807F0AD2F021064B064A586082F8231046
:101CAC000020072298601A6070470120704700BF1F
:101CBC0010E000E000ED00E02DE9F74F002426468F
:101CCC00664BDFF8A8E1DFF8A8C10A6832FA06F51E
:101CDC0002D103B0BDE8F08F4FF0010808FA06F806
:101CEC0002EA080290457FD14D68122D00F0AA80BF
:101CFC0000F28380022D00F0A28077D8002D00F036
:101D0C008980012D00F099804FF00F09FF2A93BFB5
:101D1C00824606F18045083DD0F800B092BFB50070
:101D2C00D0F804B0AD0009FA05F82BEA080804FA5B
:101D3C0005F588BF00F1040A48EA0505CAF8005009
:101D4C00D1F804A01AF0805F4ED0454D444FAD69D8
:101D5C0026F0030845F00105BD61BD6908F1804816
:101D6C0005F00105019508F5803806F0030B019D7F
:101D7C004FEA8B0BD8F8085009FA0BF925EA090938
:101D8C00384DA84263D005F58065A84261D005F5B1
:101D9C008065A8425FD005F58065A8420CBF03257D
:101DAC00042505FA0BF545EA0905C8F808501D6825
:101DBC001AF4803F14BF154395431D605D681AF4F7
:101DCC00003F14BF154395435D609D681AF4801F56
:101DDC0014BF154395439D60DD681AF4001F14BFB2
:101DEC002A4325EA0202DA6001366EE7032D22D07F
:101DFC00112D89D1CC68043486E71B4FBD4209D024
:101E0C0012D8DFF870904D4504D009F580394D4556
:101E1C007FF47AAF8C68C4B1012C0CBFC0F8108071
:101E2C00C0F8148008246FE77545F3D06545F1D0F0
:101E3C00DFF84490EBE7002466E7CC6864E7CC68F5
:101E4C00083461E7CC680C345EE704245CE70025B9
:101E5C00A7E70125A5E70225A3E700BF0004014081
:101E6C000010024000080140000021100000311059
:101E7C000000321000001110000022100AB10161A4
:101E8C0070470904FBE7C36803EA010221EA030176
:101E9C0041EA0241016170477047000008B5044BEC
:101EAC005969014202D05861FFF7F6FF08BD00BF27
:101EBC00000401402DE9F341054608B901203CE03E
:101ECC000368DB0710D42B689F075DD42B681907B8
:101EDC0000F194802B685A0700F1BE80E869002855
:101EEC0040F02C81002028E08F4C636803F00C0339
:101EFC00042B07D0636803F00C03082B09D163682B
:101F0C00DE0306D523689C03DDD56B68002BDAD184
:101F1C00D4E76B68B3F5803F12D1236843F4803368
:101F2C002360FFF767FB064623689803CBD4FFF7C3
:101F3C0061FB801B6428F7D9032002B0BDE8F08157
:101F4C009BB9236823F480332360236823F4802314
:101F5C002360FFF74FFB064623689903B3D5FFF7C1
:101F6C0049FB801B6428F7D9E6E7B3F5A02F23685B
:101F7C0003D143F480232360CFE723F48033236021
:101F8C00236823F48023CBE7674C636813F00C0FB2
:101F9C0007D0636803F00C03082B10D16368DA03D5
:101FAC000DD423689B0702D52B69012B86D123689E
:101FBC006A6923F0F80343EAC203236086E72A69BF
:101FCC005A4B6AB101221A60FFF714FB06462368CC
:101FDC009F07ECD4FFF70EFB801B0228F7D9ABE769
:101FEC001A60FFF707FB0646236898077FF56EAF6C
:101FFC00FFF700FB801B0228F6D99DE7AA694A4C23
:10200C004B4BDAB101221A60FFF7F4FA0646636A09
:10201C009B070DD54FF4FA52464B1B68B3FBF2F3FA
:10202C00019300BF019B5A1E0192002BF9D151E77D
:10203C00FFF7E0FA801B0228E9D97DE71A60FFF769
:10204C00D9FA0646636A9F077FF544AFFFF7D2FAC9
:10205C00801B0228F6D96FE7334CE369D80024D4EF
:10206C000127E36943F08053E361E36903F0805394
:10207C000093009B304E3368D90518D5EB68012BC3
:10208C0026D1236A43F001032362FFF7B3FA41F22E
:10209C0088368046236A9B073FD5002F3FF41EAF3E
:1020AC00E36923F08053E36118E70027E2E7336824
:1020BC0043F480733360FFF79DFA80463368DA058A
:1020CC00DCD4FFF797FAA0EB08006428F6D933E7C5
:1020DC00ABB9236A41F2883823F001032362236AE7
:1020EC0023F004032362FFF785FA0646236A980758
:1020FC00D3D5FFF77FFA801B4045F7D91CE7052B9A
:10210C00236A03D143F004032362BAE723F00103EB
:10211C002362236A23F00403B6E7FFF76BFAA0EB04
:10212C000800B042B6D907E7001002400000424256
:10213C008004424200000020007000402A4B5A6884
:10214C001C4602F00C02082A3DD00023274E022820
:10215C0033602BD1FFF74EFA0746236899011FD441
:10216C002B6AB3F5803F05D16268A96822F400326E
:10217C000A436260696A62680B4322F47412134367
:10218C00636001233360FFF735FA054623689A0133
:10219C003FF5A8AEFFF72EFA401B0228F6D9CBE686
:1021AC00FFF728FAC01B0228D7D9C5E6FFF722FA99
:1021BC00054623689B017FF595AEFFF71BFA401B84
:1021CC000228F6D9B8E601283FF4B7AE58682B6A56
:1021DC0000F480329A427FF471AE6B6A00F4701096
:1021EC00C01A18BF0120A8E600100240600042424D
:1021FC0030B5194B87B002AC03F1100522461868B4
:10220C005968083303C2AB421446F7D101238DF849
:10221C000430022311498DF805304B6803F00C0291
:10222C00082A17D1C3F3834206A80244DB0312F831
:10223C00102C0CD54B680A48C3F34043504306AAF4
:10224C00134413F8143CB0FBF3F007B030BD054851
:10225C005043FAE70248F8E7D4290008001002407E
:10226C0000127A0000093D002DE9F0410D460446AC
:10227C0010B90120BDE8F081454A136803F007034B
:10228C008B4229D321688E0731D4CA0744D4404AE3
:10229C00136803F007039D4267D322683D4D12F08B
:1022AC00040F6ED1130706D56B68226923F46053B3
:1022BC0043EAC2036B60FFF79BFF6B68364AC3F3BC
:1022CC000313D35CD840354B1860354B1868FFF7B7
:1022DC004FF90020BDE8F081136823F007030B438E
:1022EC001360136803F007039942C2D1CAE7294B64
:1022FC0011F0040F1EBF5A6842F4E0625A600807DE
:10230C0042BF5A6842F460525A605A68A06822F080
:10231C00F00202435A60B8E762681E4E012A336825
:10232C001BD113F4003FA4D0736841F2883823F01A
:10233C00030313437360FFF75DF907467368626824
:10234C0003F00C03B3EB820FA1D0FFF753F9C01BC2
:10235C004045F3D90320BDE8F081022A02D113F0E5
:10236C00007FE0E713F0020FDDE7136823F00703AB
:10237C002B431360136803F007039D427FF479AF7E
:10238C008BE76B68E16823F4E0630B436B6089E7D0
:10239C000020024000100240E42900080000002048
:1023AC0008000020704770477047704770470368FB
:1023BC0010B51A69044691070ED5DA6892070BD549
:1023CC006FF002021A6101229B6902779B0777D09A
:1023DC00FFF7EAFF0023237723681A69500710D50B
:1023EC00DA6851070DD56FF004021A6102229B695D
:1023FC00227713F4407F204668D0FFF7D5FF0023E7
:10240C00237723681A6912070FD5DA6810070CD5E1
:10241C006FF008021A610422DB69227799072046C3
:10242C005AD0FFF7C1FF0023237723681A69D2061D
:10243C0010D5DA68D0060DD56FF010021A6108229B
:10244C00DB69227713F4407F20464BD0FFF7ACFFBB
:10245C000023237723681A69D10708D5DA68D207D5
:10246C0005D56FF0010220461A61FFF79BFF236828
:10247C001A69100608D5DA68110605D56FF08002C6
:10248C0020461A6100F0E5F923681A69520608D54E
:10249C00DA68500605D56FF0400220461A61FFF746
:1024AC0085FF23681A69910622D5DA6892061FD532
:1024BC006FF020022046BDE810401A6100F0C8B948
:1024CC00FFF771FF2046FFF770FF83E7FFF76BFF05
:1024DC002046FFF76AFF92E7FFF765FF2046FFF7FC
:1024EC0064FFA0E7FFF75FFF2046FFF75EFFAFE753
:1024FC0010BD00001A4A036890420AD0B0F1804F18
:10250C0007D0A2F59432904203D002F5806290423B
:10251C0015D14A6823F070031343114A90420AD034
:10252C00B0F1804F07D0A2F59432904203D002F55F
:10253C008062904203D1CA6823F4407313434A6902
:10254C0023F08003134303608B68C3620B688362C0
:10255C00034B984204BF0B6903630123436170472B
:10256C00002C014010B5044630B390F83D3003F018
:10257C00FF021BB980F83C20FEF7DCFF0223206829
:10258C0084F83D30211DFFF7B5FF0123002084F8AE
:10259C00463084F83E3084F83F3084F8403084F87C
:1025AC00413084F8423084F8433084F8443084F865
:1025BC00453084F83D3010BD012010BD10B5846845
:1025CC000A4324F47F4442EA03232343836010BD6F
:1025DC0090F83C3070B5012B04464FF0020019D036
:1025EC00012384F83D00206884F83C30836823F490
:1025FC007F4323F0770383600B68402B65D015D89D
:10260C00102B0CD007D853B10123002084F83D3097
:10261C0084F83C0070BD202B01D0302BF4D18268A3
:10262C0043F0070322F0700213431AE0602B34D0FE
:10263C0019D8502BE8D14A68CE68016A056A21F096
:10264C000A0125F00105056283690A4323F0F003B2
:10265C0043EA061383610262836823F0700343F03C
:10266C0057038360D0E7702B0CD0B3F5005FCBD150
:10267C00CB684A688968FFF7A1FF2268936843F426
:10268C00804308E0CB684A688968FFF797FF2268A7
:10269C00936843F077039360B6E74D68CE68016AA0
:1026AC0021F0100101628269036A22F4704223F066
:1026BC00A00343EA051342EA06328261036283688F
:1026CC0023F0700343F06703CBE74A68CE68016AD6
:1026DC00056A21F00A0125F00105056283690A43A8
:1026EC0023F0F00343EA061383610262836823F04C
:1026FC00700343F04703B4E7006838B583684A6851
:10270C0023F070030C68134323F007032343502A70
:10271C0083601ED003D8402A0BD0002038BD602A1D
:10272C0027D0702AF9D10B698A68C968FFF746FF70
:10273C00F3E7052C30D0026A036A096923F0010320
:10274C000362836923F0F00343EA0113836102629D
:10275C00E3E78A680D69016A046A21F00A0124F032
:10276C000104046283690A4323F0F00343EA05136E
:10277C00ECE78C680D69016A21F010010162826935
:10278C00036A22F4704223F0A00342EA053243EAC2
:10279C00041382610362C0E7012038BD38B590F89C
:1027AC003C300446012B4FF002031CD0012580F86D
:1027BC003D3080F83C50FFF79FFF30B1002384F888
:1027CC003D5084F83C30284638BD2368DA6822F046
:1027DC004002DA60DA6822F48042DA6084F83D5014
:1027EC0084F83C0038BD184638BD000090F83C30E9
:1027FC0030B5012B4FF0020325D0012280F83D307B
:10280C0003680D685C6880F83C2024F070042C434D
:10281C009A685C600D4CA3420AD0B3F1804F07D08C
:10282C00A4F59434A34203D004F58064A34204D1EC
:10283C00496822F080020A439A60012380F83D30F7
:10284C00002380F83C30184630BD00BF002C0140FE
:10285C0070477047002103E00B4B5B584350043129
:10286C000A480B4B42189A42F6D30A4A02E000235C
:10287C0042F8043B084B9A42F9D3FEF715FE00F0E0
:10288C0015F8FEF731FD7047FC2A00080000002007
:10289C0070000020700000202C010020FEE70000DA
:1028AC00014B1868704700BF0C00002070B5002564
:1028BC000C4E0D4CA41BA410A54209D100F078F8C5
:1028CC0000250A4E0A4CA41BA410A54205D170BDCC
:1028DC0056F8253098470135EEE756F825309847DD
:1028EC000135F2E7F42A0008F42A0008F42A00085B
:1028FC00F82A000803460244934200D1704703F8BB
:10290C00011BF9E708B5062000F036F80120FEF7A8
:10291C00C5FD10B5431E0A44914200D110BD11F8FB
:10292C00014B03F8014FF7E71F2938B504460D4654
:10293C0004D9162303604FF0FF3038BD426C12B13E
:10294C0052F821304BB9204600F030F82A460146A7
:10295C002046BDE8384000F017B8012B0AD0591CAE
:10296C0003D116230360012038BD0024284642F809
:10297C0025409847002038BD024B01461868FFF7E8
:10298C00D3BF00BF0C00002038B50023064C054611
:10299C00084611462360FEF779FD431C02D12368DB
:1029AC0003B12B6038BD00BF28010020FEF76CBDC1
:1029BC00F8B500BFF8BC08BC9E467047F8B500BF20
:0829CC00F8BC08BC9E467047F0
:1029D40002030405060708090A0B0C0D0E0F10105C
:1029E40000000000000000000102030406070809BB
:1029F40001970181B0B00884000000000F970181A5
:102A0400B0B008840000000008B10181B0B00084B7
:102A14000000000008B10181B0B000840000000093
:102A240028D7FF7F01000000BCD7FF7FB0A9028038
:102A340058D8FF7FB0B0A880A8D8FF7F010000005D
:102A4400B4D8FF7FB0B0AA80ECD8FF7FAE71B2805B
:102A5400BCD9FF7F01000000B8D9FF7FAB3F3880AD
:102A640010DAFF7F010000001CDAFF7FB0B0AA80FB
:102A740058DAFF7F0100000010DBFF7FAB0EB2804D
:102A84007CDBFF7FB0AF0A8044DEFF7F01000000E3
:102A940048DEFF7FAB3F04808CE0FF7F0100000035
:102AA40068E2FF7F008404807CE2FF7F0100000075
:102AB40078E2FF7FB0AD048040E5FF7FB0A90480D9
:102AC40064E5FF7F44FFFF7F68E5FF7F48FFFF7FEA
:102AD40074E5FF7F0100000018E8FF7F14FFFF7F0B
:102AE40098E8FF7F18FFFF7F1AE9FF7F01000000CD
:042AF40031010008A4
:042AF8000D010008C4
:102AFC000024F40001000000100000001000002071
:102B0C0000000000000000000000000000000000B9
:102B1C0000000000000000000000000000000000A9
:102B2C000000000000000000000000000000000099
:102B3C000000000000000000000000000000000089
:102B4C000000000000000000000000000000000079
:102B5C000000000000000000000000000000000069
:040000050800286166
:00000001FF
